{
	"contracts/BandOracleReader.sol": {
		"BandOracleReader": {
			"abi": [
				{
					"inputs": [
						{
							"internalType": "contract IStdReference",
							"name": "_bandOracle",
							"type": "address"
						},
						{
							"internalType": "string",
							"name": "_base",
							"type": "string"
						},
						{
							"internalType": "string",
							"name": "_quote",
							"type": "string"
						},
						{
							"internalType": "uint256",
							"name": "_updateFee",
							"type": "uint256"
						},
						{
							"internalType": "address",
							"name": "_owner",
							"type": "address"
						}
					],
					"payable": false,
					"stateMutability": "nonpayable",
					"type": "constructor"
				},
				{
					"anonymous": false,
					"inputs": [
						{
							"indexed": false,
							"internalType": "uint16",
							"name": "chainId",
							"type": "uint16"
						},
						{
							"indexed": false,
							"internalType": "uint64",
							"name": "sequenceNumber",
							"type": "uint64"
						}
					],
					"name": "BatchPriceFeedUpdate",
					"type": "event"
				},
				{
					"anonymous": false,
					"inputs": [
						{
							"indexed": false,
							"internalType": "address",
							"name": "oldOwner",
							"type": "address"
						},
						{
							"indexed": false,
							"internalType": "address",
							"name": "newOwner",
							"type": "address"
						}
					],
					"name": "OwnerChanged",
					"type": "event"
				},
				{
					"anonymous": false,
					"inputs": [
						{
							"indexed": false,
							"internalType": "address",
							"name": "newOwner",
							"type": "address"
						}
					],
					"name": "OwnerNominated",
					"type": "event"
				},
				{
					"anonymous": false,
					"inputs": [
						{
							"indexed": true,
							"internalType": "bytes32",
							"name": "id",
							"type": "bytes32"
						},
						{
							"indexed": false,
							"internalType": "uint64",
							"name": "publishTime",
							"type": "uint64"
						},
						{
							"indexed": false,
							"internalType": "int64",
							"name": "price",
							"type": "int64"
						},
						{
							"indexed": false,
							"internalType": "uint64",
							"name": "conf",
							"type": "uint64"
						}
					],
					"name": "PriceFeedUpdate",
					"type": "event"
				},
				{
					"constant": false,
					"inputs": [],
					"name": "acceptOwnership",
					"outputs": [],
					"payable": false,
					"stateMutability": "nonpayable",
					"type": "function"
				},
				{
					"constant": true,
					"inputs": [],
					"name": "bandOracle",
					"outputs": [
						{
							"internalType": "contract IStdReference",
							"name": "",
							"type": "address"
						}
					],
					"payable": false,
					"stateMutability": "view",
					"type": "function"
				},
				{
					"constant": true,
					"inputs": [],
					"name": "base",
					"outputs": [
						{
							"internalType": "string",
							"name": "",
							"type": "string"
						}
					],
					"payable": false,
					"stateMutability": "view",
					"type": "function"
				},
				{
					"constant": true,
					"inputs": [],
					"name": "decimals",
					"outputs": [
						{
							"internalType": "uint8",
							"name": "",
							"type": "uint8"
						}
					],
					"payable": false,
					"stateMutability": "view",
					"type": "function"
				},
				{
					"constant": true,
					"inputs": [
						{
							"internalType": "uint256",
							"name": "",
							"type": "uint256"
						}
					],
					"name": "getAnswer",
					"outputs": [
						{
							"internalType": "int256",
							"name": "",
							"type": "int256"
						}
					],
					"payable": false,
					"stateMutability": "view",
					"type": "function"
				},
				{
					"constant": true,
					"inputs": [
						{
							"internalType": "bytes32",
							"name": "",
							"type": "bytes32"
						}
					],
					"name": "getEmaPrice",
					"outputs": [
						{
							"components": [
								{
									"internalType": "int64",
									"name": "price",
									"type": "int64"
								},
								{
									"internalType": "uint64",
									"name": "conf",
									"type": "uint64"
								},
								{
									"internalType": "int32",
									"name": "expo",
									"type": "int32"
								},
								{
									"internalType": "uint256",
									"name": "publishTime",
									"type": "uint256"
								}
							],
							"internalType": "struct PythStructs.Price",
							"name": "",
							"type": "tuple"
						}
					],
					"payable": false,
					"stateMutability": "view",
					"type": "function"
				},
				{
					"constant": true,
					"inputs": [
						{
							"internalType": "bytes32",
							"name": "",
							"type": "bytes32"
						},
						{
							"internalType": "uint256",
							"name": "",
							"type": "uint256"
						}
					],
					"name": "getEmaPriceNoOlderThan",
					"outputs": [
						{
							"components": [
								{
									"internalType": "int64",
									"name": "price",
									"type": "int64"
								},
								{
									"internalType": "uint64",
									"name": "conf",
									"type": "uint64"
								},
								{
									"internalType": "int32",
									"name": "expo",
									"type": "int32"
								},
								{
									"internalType": "uint256",
									"name": "publishTime",
									"type": "uint256"
								}
							],
							"internalType": "struct PythStructs.Price",
							"name": "",
							"type": "tuple"
						}
					],
					"payable": false,
					"stateMutability": "view",
					"type": "function"
				},
				{
					"constant": true,
					"inputs": [
						{
							"internalType": "bytes32",
							"name": "",
							"type": "bytes32"
						}
					],
					"name": "getEmaPriceUnsafe",
					"outputs": [
						{
							"components": [
								{
									"internalType": "int64",
									"name": "price",
									"type": "int64"
								},
								{
									"internalType": "uint64",
									"name": "conf",
									"type": "uint64"
								},
								{
									"internalType": "int32",
									"name": "expo",
									"type": "int32"
								},
								{
									"internalType": "uint256",
									"name": "publishTime",
									"type": "uint256"
								}
							],
							"internalType": "struct PythStructs.Price",
							"name": "",
							"type": "tuple"
						}
					],
					"payable": false,
					"stateMutability": "view",
					"type": "function"
				},
				{
					"constant": true,
					"inputs": [
						{
							"internalType": "bytes32",
							"name": "",
							"type": "bytes32"
						}
					],
					"name": "getPrice",
					"outputs": [
						{
							"components": [
								{
									"internalType": "int64",
									"name": "price",
									"type": "int64"
								},
								{
									"internalType": "uint64",
									"name": "conf",
									"type": "uint64"
								},
								{
									"internalType": "int32",
									"name": "expo",
									"type": "int32"
								},
								{
									"internalType": "uint256",
									"name": "publishTime",
									"type": "uint256"
								}
							],
							"internalType": "struct PythStructs.Price",
							"name": "",
							"type": "tuple"
						}
					],
					"payable": false,
					"stateMutability": "view",
					"type": "function"
				},
				{
					"constant": true,
					"inputs": [
						{
							"internalType": "bytes32",
							"name": "",
							"type": "bytes32"
						},
						{
							"internalType": "uint256",
							"name": "",
							"type": "uint256"
						}
					],
					"name": "getPriceNoOlderThan",
					"outputs": [
						{
							"components": [
								{
									"internalType": "int64",
									"name": "price",
									"type": "int64"
								},
								{
									"internalType": "uint64",
									"name": "conf",
									"type": "uint64"
								},
								{
									"internalType": "int32",
									"name": "expo",
									"type": "int32"
								},
								{
									"internalType": "uint256",
									"name": "publishTime",
									"type": "uint256"
								}
							],
							"internalType": "struct PythStructs.Price",
							"name": "",
							"type": "tuple"
						}
					],
					"payable": false,
					"stateMutability": "view",
					"type": "function"
				},
				{
					"constant": true,
					"inputs": [
						{
							"internalType": "bytes32",
							"name": "",
							"type": "bytes32"
						}
					],
					"name": "getPriceUnsafe",
					"outputs": [
						{
							"components": [
								{
									"internalType": "int64",
									"name": "price",
									"type": "int64"
								},
								{
									"internalType": "uint64",
									"name": "conf",
									"type": "uint64"
								},
								{
									"internalType": "int32",
									"name": "expo",
									"type": "int32"
								},
								{
									"internalType": "uint256",
									"name": "publishTime",
									"type": "uint256"
								}
							],
							"internalType": "struct PythStructs.Price",
							"name": "",
							"type": "tuple"
						}
					],
					"payable": false,
					"stateMutability": "view",
					"type": "function"
				},
				{
					"constant": true,
					"inputs": [
						{
							"internalType": "uint80",
							"name": "_roundId",
							"type": "uint80"
						}
					],
					"name": "getRoundData",
					"outputs": [
						{
							"internalType": "uint80",
							"name": "",
							"type": "uint80"
						},
						{
							"internalType": "int256",
							"name": "",
							"type": "int256"
						},
						{
							"internalType": "uint256",
							"name": "",
							"type": "uint256"
						},
						{
							"internalType": "uint256",
							"name": "",
							"type": "uint256"
						},
						{
							"internalType": "uint80",
							"name": "",
							"type": "uint80"
						}
					],
					"payable": false,
					"stateMutability": "view",
					"type": "function"
				},
				{
					"constant": true,
					"inputs": [
						{
							"internalType": "uint256",
							"name": "",
							"type": "uint256"
						}
					],
					"name": "getTimestamp",
					"outputs": [
						{
							"internalType": "uint256",
							"name": "",
							"type": "uint256"
						}
					],
					"payable": false,
					"stateMutability": "view",
					"type": "function"
				},
				{
					"constant": true,
					"inputs": [
						{
							"internalType": "bytes[]",
							"name": "updateData",
							"type": "bytes[]"
						}
					],
					"name": "getUpdateFee",
					"outputs": [
						{
							"internalType": "uint256",
							"name": "feeAmount",
							"type": "uint256"
						}
					],
					"payable": false,
					"stateMutability": "view",
					"type": "function"
				},
				{
					"constant": true,
					"inputs": [],
					"name": "getValidTimePeriod",
					"outputs": [
						{
							"internalType": "uint256",
							"name": "",
							"type": "uint256"
						}
					],
					"payable": false,
					"stateMutability": "view",
					"type": "function"
				},
				{
					"constant": true,
					"inputs": [],
					"name": "latestRound",
					"outputs": [
						{
							"internalType": "uint256",
							"name": "",
							"type": "uint256"
						}
					],
					"payable": false,
					"stateMutability": "view",
					"type": "function"
				},
				{
					"constant": true,
					"inputs": [],
					"name": "latestRoundData",
					"outputs": [
						{
							"internalType": "uint80",
							"name": "",
							"type": "uint80"
						},
						{
							"internalType": "int256",
							"name": "",
							"type": "int256"
						},
						{
							"internalType": "uint256",
							"name": "",
							"type": "uint256"
						},
						{
							"internalType": "uint256",
							"name": "",
							"type": "uint256"
						},
						{
							"internalType": "uint80",
							"name": "",
							"type": "uint80"
						}
					],
					"payable": false,
					"stateMutability": "view",
					"type": "function"
				},
				{
					"constant": false,
					"inputs": [
						{
							"internalType": "address",
							"name": "_owner",
							"type": "address"
						}
					],
					"name": "nominateNewOwner",
					"outputs": [],
					"payable": false,
					"stateMutability": "nonpayable",
					"type": "function"
				},
				{
					"constant": true,
					"inputs": [],
					"name": "nominatedOwner",
					"outputs": [
						{
							"internalType": "address",
							"name": "",
							"type": "address"
						}
					],
					"payable": false,
					"stateMutability": "view",
					"type": "function"
				},
				{
					"constant": true,
					"inputs": [],
					"name": "owner",
					"outputs": [
						{
							"internalType": "address",
							"name": "",
							"type": "address"
						}
					],
					"payable": false,
					"stateMutability": "view",
					"type": "function"
				},
				{
					"constant": false,
					"inputs": [
						{
							"internalType": "bytes[]",
							"name": "updateData",
							"type": "bytes[]"
						},
						{
							"internalType": "bytes32[]",
							"name": "priceIds",
							"type": "bytes32[]"
						},
						{
							"internalType": "uint64",
							"name": "minPublishTime",
							"type": "uint64"
						},
						{
							"internalType": "uint64",
							"name": "maxPublishTime",
							"type": "uint64"
						}
					],
					"name": "parsePriceFeedUpdates",
					"outputs": [
						{
							"components": [
								{
									"internalType": "bytes32",
									"name": "id",
									"type": "bytes32"
								},
								{
									"components": [
										{
											"internalType": "int64",
											"name": "price",
											"type": "int64"
										},
										{
											"internalType": "uint64",
											"name": "conf",
											"type": "uint64"
										},
										{
											"internalType": "int32",
											"name": "expo",
											"type": "int32"
										},
										{
											"internalType": "uint256",
											"name": "publishTime",
											"type": "uint256"
										}
									],
									"internalType": "struct PythStructs.Price",
									"name": "price",
									"type": "tuple"
								},
								{
									"components": [
										{
											"internalType": "int64",
											"name": "price",
											"type": "int64"
										},
										{
											"internalType": "uint64",
											"name": "conf",
											"type": "uint64"
										},
										{
											"internalType": "int32",
											"name": "expo",
											"type": "int32"
										},
										{
											"internalType": "uint256",
											"name": "publishTime",
											"type": "uint256"
										}
									],
									"internalType": "struct PythStructs.Price",
									"name": "emaPrice",
									"type": "tuple"
								}
							],
							"internalType": "struct PythStructs.PriceFeed[]",
							"name": "",
							"type": "tuple[]"
						}
					],
					"payable": true,
					"stateMutability": "payable",
					"type": "function"
				},
				{
					"constant": false,
					"inputs": [],
					"name": "pullDataAndCache",
					"outputs": [
						{
							"components": [
								{
									"internalType": "int256",
									"name": "rate",
									"type": "int256"
								},
								{
									"internalType": "uint256",
									"name": "round",
									"type": "uint256"
								}
							],
							"internalType": "struct BandOracleReader.RateAtRound",
							"name": "",
							"type": "tuple"
						}
					],
					"payable": false,
					"stateMutability": "nonpayable",
					"type": "function"
				},
				{
					"constant": true,
					"inputs": [],
					"name": "quote",
					"outputs": [
						{
							"internalType": "string",
							"name": "",
							"type": "string"
						}
					],
					"payable": false,
					"stateMutability": "view",
					"type": "function"
				},
				{
					"constant": false,
					"inputs": [
						{
							"internalType": "uint256",
							"name": "_fee",
							"type": "uint256"
						}
					],
					"name": "setUpdateFee",
					"outputs": [],
					"payable": false,
					"stateMutability": "nonpayable",
					"type": "function"
				},
				{
					"constant": true,
					"inputs": [],
					"name": "updateFee",
					"outputs": [
						{
							"internalType": "uint256",
							"name": "",
							"type": "uint256"
						}
					],
					"payable": false,
					"stateMutability": "view",
					"type": "function"
				},
				{
					"constant": false,
					"inputs": [
						{
							"internalType": "bytes[]",
							"name": "",
							"type": "bytes[]"
						}
					],
					"name": "updatePriceFeeds",
					"outputs": [],
					"payable": true,
					"stateMutability": "payable",
					"type": "function"
				},
				{
					"constant": false,
					"inputs": [
						{
							"internalType": "bytes[]",
							"name": "",
							"type": "bytes[]"
						},
						{
							"internalType": "bytes32[]",
							"name": "",
							"type": "bytes32[]"
						},
						{
							"internalType": "uint64[]",
							"name": "",
							"type": "uint64[]"
						}
					],
					"name": "updatePriceFeedsIfNecessary",
					"outputs": [],
					"payable": true,
					"stateMutability": "payable",
					"type": "function"
				},
				{
					"constant": false,
					"inputs": [],
					"name": "withdraw",
					"outputs": [],
					"payable": false,
					"stateMutability": "nonpayable",
					"type": "function"
				}
			],
			"devdoc": {
				"methods": {}
			},
			"evm": {
				"assembly": "    /* \"contracts/BandOracleReader.sol\":340:7210  contract BandOracleReader is AggregatorV2V3Interface, IPyth, Owned {... */\n  mstore(0x40, 0x80)\n    /* \"contracts/BandOracleReader.sol\":792:1096  constructor(... */\n  callvalue\n    /* \"--CODEGEN--\":8:17   */\n  dup1\n    /* \"--CODEGEN--\":5:7   */\n  iszero\n  tag_1\n  jumpi\n    /* \"--CODEGEN--\":30:31   */\n  0x00\n    /* \"--CODEGEN--\":27:28   */\n  dup1\n    /* \"--CODEGEN--\":20:32   */\n  revert\n    /* \"--CODEGEN--\":5:7   */\ntag_1:\n    /* \"contracts/BandOracleReader.sol\":792:1096  constructor(... */\n  pop\n  mload(0x40)\n  sub(codesize, bytecodeSize)\n  dup1\n  bytecodeSize\n  dup4\n  codecopy\n  dup2\n  dup2\n  add\n  0x40\n  mstore\n  tag_2\n  swap2\n  swap1\n  dup2\n  add\n  swap1\n  jump(tag_3)\ntag_2:\n    /* \"contracts/BandOracleReader.sol\":969:975  _owner */\n  dup1\n    /* \"contracts/Owned.sol\":242:243  0 */\n  0x00\n    /* \"contracts/Owned.sol\":224:244  _owner != address(0) */\n  0xffffffffffffffffffffffffffffffffffffffff\n  and\n    /* \"contracts/Owned.sol\":224:230  _owner */\n  dup2\n    /* \"contracts/Owned.sol\":224:244  _owner != address(0) */\n  0xffffffffffffffffffffffffffffffffffffffff\n  and\n  eq\n  iszero\n    /* \"contracts/Owned.sol\":216:274  require(_owner != address(0), \"Owner address cannot be 0\") */\n  tag_7\n  jumpi\n  mload(0x40)\n  0x08c379a000000000000000000000000000000000000000000000000000000000\n  dup2\n  mstore\n  0x04\n  add\n  tag_8\n  swap1\n  jump(tag_9)\ntag_8:\n  mload(0x40)\n  dup1\n  swap2\n  sub\n  swap1\n  revert\ntag_7:\n    /* \"contracts/Owned.sol\":292:298  _owner */\n  dup1\n    /* \"contracts/Owned.sol\":284:289  owner */\n  0x00\n  dup1\n    /* \"contracts/Owned.sol\":284:298  owner = _owner */\n  0x0100\n  exp\n  dup2\n  sload\n  dup2\n  0xffffffffffffffffffffffffffffffffffffffff\n  mul\n  not\n  and\n  swap1\n  dup4\n  0xffffffffffffffffffffffffffffffffffffffff\n  and\n  mul\n  or\n  swap1\n  sstore\n  pop\n    /* \"contracts/Owned.sol\":313:345  OwnerChanged(address(0), _owner) */\n  0xb532073b38c83145e3e5135377a08bf9aab55bc0fd7c1179cd4fb995d2a5159c\n    /* \"contracts/Owned.sol\":334:335  0 */\n  0x00\n    /* \"contracts/Owned.sol\":338:344  _owner */\n  dup3\n    /* \"contracts/Owned.sol\":313:345  OwnerChanged(address(0), _owner) */\n  mload(0x40)\n  tag_10\n  swap3\n  swap2\n  swap1\n  jump(tag_11)\ntag_10:\n  mload(0x40)\n  dup1\n  swap2\n  sub\n  swap1\n  log1\n    /* \"contracts/Owned.sol\":171:352  constructor(address _owner) public {... */\n  pop\n    /* \"contracts/BandOracleReader.sol\":1000:1011  _bandOracle */\n  dup5\n    /* \"contracts/BandOracleReader.sol\":987:997  bandOracle */\n  0x02\n  0x00\n    /* \"contracts/BandOracleReader.sol\":987:1011  bandOracle = _bandOracle */\n  0x0100\n  exp\n  dup2\n  sload\n  dup2\n  0xffffffffffffffffffffffffffffffffffffffff\n  mul\n  not\n  and\n  swap1\n  dup4\n  0xffffffffffffffffffffffffffffffffffffffff\n  and\n  mul\n  or\n  swap1\n  sstore\n  pop\n    /* \"contracts/BandOracleReader.sol\":1028:1033  _base */\n  dup4\n    /* \"contracts/BandOracleReader.sol\":1021:1025  base */\n  0x03\n    /* \"contracts/BandOracleReader.sol\":1021:1033  base = _base */\n  swap1\n  dup1\n  mload\n  swap1\n  0x20\n  add\n  swap1\n  tag_13\n  swap3\n  swap2\n  swap1\n  tag_14\n  jump\t// in\ntag_13:\n  pop\n    /* \"contracts/BandOracleReader.sol\":1051:1057  _quote */\n  dup3\n    /* \"contracts/BandOracleReader.sol\":1043:1048  quote */\n  0x04\n    /* \"contracts/BandOracleReader.sol\":1043:1057  quote = _quote */\n  swap1\n  dup1\n  mload\n  swap1\n  0x20\n  add\n  swap1\n  tag_15\n  swap3\n  swap2\n  swap1\n  tag_14\n  jump\t// in\ntag_15:\n  pop\n    /* \"contracts/BandOracleReader.sol\":1079:1089  _updateFee */\n  dup2\n    /* \"contracts/BandOracleReader.sol\":1067:1076  updateFee */\n  0x06\n    /* \"contracts/BandOracleReader.sol\":1067:1089  updateFee = _updateFee */\n  dup2\n  swap1\n  sstore\n  pop\n    /* \"contracts/BandOracleReader.sol\":792:1096  constructor(... */\n  pop\n  pop\n  pop\n  pop\n  pop\n    /* \"contracts/BandOracleReader.sol\":340:7210  contract BandOracleReader is AggregatorV2V3Interface, IPyth, Owned {... */\n  jump(tag_16)\ntag_14:\n  dup3\n  dup1\n  sload\n  0x01\n  dup2\n  0x01\n  and\n  iszero\n  0x0100\n  mul\n  sub\n  and\n  0x02\n  swap1\n  div\n  swap1\n  0x00\n  mstore\n  keccak256(0x00, 0x20)\n  swap1\n  0x1f\n  add\n  0x20\n  swap1\n  div\n  dup2\n  add\n  swap3\n  dup3\n  0x1f\n  lt\n  tag_18\n  jumpi\n  dup1\n  mload\n  not(0xff)\n  and\n  dup4\n  dup1\n  add\n  or\n  dup6\n  sstore\n  jump(tag_17)\ntag_18:\n  dup3\n  dup1\n  add\n  0x01\n  add\n  dup6\n  sstore\n  dup3\n  iszero\n  tag_17\n  jumpi\n  swap2\n  dup3\n  add\ntag_19:\n  dup3\n  dup2\n  gt\n  iszero\n  tag_20\n  jumpi\n  dup3\n  mload\n  dup3\n  sstore\n  swap2\n  0x20\n  add\n  swap2\n  swap1\n  0x01\n  add\n  swap1\n  jump(tag_19)\ntag_20:\ntag_17:\n  pop\n  swap1\n  pop\n  tag_21\n  swap2\n  swap1\n  tag_22\n  jump\t// in\ntag_21:\n  pop\n  swap1\n  jump\t// out\ntag_22:\n  tag_23\n  swap2\n  swap1\ntag_24:\n  dup1\n  dup3\n  gt\n  iszero\n  tag_25\n  jumpi\n  0x00\n  dup2\n  0x00\n  swap1\n  sstore\n  pop\n  0x01\n  add\n  jump(tag_24)\ntag_25:\n  pop\n  swap1\n  jump\ntag_23:\n  swap1\n  jump\t// out\n    /* \"--CODEGEN--\":5:139   */\ntag_27:\n  0x00\n    /* \"--CODEGEN--\":89:95   */\n  dup2\n    /* \"--CODEGEN--\":83:96   */\n  mload\n    /* \"--CODEGEN--\":74:96   */\n  swap1\n  pop\n    /* \"--CODEGEN--\":101:134   */\n  tag_28\n    /* \"--CODEGEN--\":128:133   */\n  dup2\n    /* \"--CODEGEN--\":101:134   */\n  jump(tag_29)\ntag_28:\n    /* \"--CODEGEN--\":68:139   */\n  swap3\n  swap2\n  pop\n  pop\n  jump\n    /* \"--CODEGEN--\":146:320   */\ntag_30:\n  0x00\n    /* \"--CODEGEN--\":250:256   */\n  dup2\n    /* \"--CODEGEN--\":244:257   */\n  mload\n    /* \"--CODEGEN--\":235:257   */\n  swap1\n  pop\n    /* \"--CODEGEN--\":262:315   */\n  tag_31\n    /* \"--CODEGEN--\":309:314   */\n  dup2\n    /* \"--CODEGEN--\":262:315   */\n  jump(tag_32)\ntag_31:\n    /* \"--CODEGEN--\":229:320   */\n  swap3\n  swap2\n  pop\n  pop\n  jump\n    /* \"--CODEGEN--\":328:772   */\ntag_33:\n  0x00\n    /* \"--CODEGEN--\":441:444   */\n  dup3\n    /* \"--CODEGEN--\":434:438   */\n  0x1f\n    /* \"--CODEGEN--\":426:432   */\n  dup4\n    /* \"--CODEGEN--\":422:439   */\n  add\n    /* \"--CODEGEN--\":418:445   */\n  slt\n    /* \"--CODEGEN--\":408:410   */\n  tag_34\n  jumpi\n    /* \"--CODEGEN--\":459:460   */\n  0x00\n    /* \"--CODEGEN--\":456:457   */\n  dup1\n    /* \"--CODEGEN--\":449:461   */\n  revert\n    /* \"--CODEGEN--\":408:410   */\ntag_34:\n    /* \"--CODEGEN--\":489:495   */\n  dup2\n    /* \"--CODEGEN--\":483:496   */\n  mload\n    /* \"--CODEGEN--\":511:576   */\n  tag_35\n    /* \"--CODEGEN--\":526:575   */\n  tag_36\n    /* \"--CODEGEN--\":568:574   */\n  dup3\n    /* \"--CODEGEN--\":526:575   */\n  jump(tag_37)\ntag_36:\n    /* \"--CODEGEN--\":511:576   */\n  jump(tag_38)\ntag_35:\n    /* \"--CODEGEN--\":502:576   */\n  swap2\n  pop\n    /* \"--CODEGEN--\":596:602   */\n  dup1\n    /* \"--CODEGEN--\":589:594   */\n  dup3\n    /* \"--CODEGEN--\":582:603   */\n  mstore\n    /* \"--CODEGEN--\":632:636   */\n  0x20\n    /* \"--CODEGEN--\":624:630   */\n  dup4\n    /* \"--CODEGEN--\":620:637   */\n  add\n    /* \"--CODEGEN--\":665:669   */\n  0x20\n    /* \"--CODEGEN--\":658:663   */\n  dup4\n    /* \"--CODEGEN--\":654:670   */\n  add\n    /* \"--CODEGEN--\":700:703   */\n  dup6\n    /* \"--CODEGEN--\":691:697   */\n  dup4\n    /* \"--CODEGEN--\":686:689   */\n  dup4\n    /* \"--CODEGEN--\":682:698   */\n  add\n    /* \"--CODEGEN--\":679:704   */\n  gt\n    /* \"--CODEGEN--\":676:678   */\n  iszero\n  tag_39\n  jumpi\n    /* \"--CODEGEN--\":717:718   */\n  0x00\n    /* \"--CODEGEN--\":714:715   */\n  dup1\n    /* \"--CODEGEN--\":707:719   */\n  revert\n    /* \"--CODEGEN--\":676:678   */\ntag_39:\n    /* \"--CODEGEN--\":727:766   */\n  tag_40\n    /* \"--CODEGEN--\":759:765   */\n  dup4\n    /* \"--CODEGEN--\":754:757   */\n  dup3\n    /* \"--CODEGEN--\":749:752   */\n  dup5\n    /* \"--CODEGEN--\":727:766   */\n  jump(tag_41)\ntag_40:\n    /* \"--CODEGEN--\":401:772   */\n  pop\n  pop\n  pop\n  swap3\n  swap2\n  pop\n  pop\n  jump\n    /* \"--CODEGEN--\":780:914   */\ntag_42:\n  0x00\n    /* \"--CODEGEN--\":864:870   */\n  dup2\n    /* \"--CODEGEN--\":858:871   */\n  mload\n    /* \"--CODEGEN--\":849:871   */\n  swap1\n  pop\n    /* \"--CODEGEN--\":876:909   */\n  tag_43\n    /* \"--CODEGEN--\":903:908   */\n  dup2\n    /* \"--CODEGEN--\":876:909   */\n  jump(tag_44)\ntag_43:\n    /* \"--CODEGEN--\":843:914   */\n  swap3\n  swap2\n  pop\n  pop\n  jump\n    /* \"--CODEGEN--\":921:1968   */\ntag_3:\n  0x00\n  dup1\n  0x00\n  dup1\n  0x00\n    /* \"--CODEGEN--\":1144:1147   */\n  0xa0\n    /* \"--CODEGEN--\":1132:1141   */\n  dup7\n    /* \"--CODEGEN--\":1123:1130   */\n  dup9\n    /* \"--CODEGEN--\":1119:1142   */\n  sub\n    /* \"--CODEGEN--\":1115:1148   */\n  slt\n    /* \"--CODEGEN--\":1112:1114   */\n  iszero\n  tag_45\n  jumpi\n    /* \"--CODEGEN--\":1161:1162   */\n  0x00\n    /* \"--CODEGEN--\":1158:1159   */\n  dup1\n    /* \"--CODEGEN--\":1151:1163   */\n  revert\n    /* \"--CODEGEN--\":1112:1114   */\ntag_45:\n    /* \"--CODEGEN--\":1196:1197   */\n  0x00\n    /* \"--CODEGEN--\":1213:1297   */\n  tag_46\n    /* \"--CODEGEN--\":1289:1296   */\n  dup9\n    /* \"--CODEGEN--\":1280:1286   */\n  dup3\n    /* \"--CODEGEN--\":1269:1278   */\n  dup10\n    /* \"--CODEGEN--\":1265:1287   */\n  add\n    /* \"--CODEGEN--\":1213:1297   */\n  jump(tag_30)\ntag_46:\n    /* \"--CODEGEN--\":1203:1297   */\n  swap6\n  pop\n    /* \"--CODEGEN--\":1175:1303   */\n  pop\n    /* \"--CODEGEN--\":1355:1357   */\n  0x20\n    /* \"--CODEGEN--\":1344:1353   */\n  dup7\n    /* \"--CODEGEN--\":1340:1358   */\n  add\n    /* \"--CODEGEN--\":1334:1359   */\n  mload\n    /* \"--CODEGEN--\":1379:1397   */\n  0xffffffffffffffff\n    /* \"--CODEGEN--\":1371:1377   */\n  dup2\n    /* \"--CODEGEN--\":1368:1398   */\n  gt\n    /* \"--CODEGEN--\":1365:1367   */\n  iszero\n  tag_47\n  jumpi\n    /* \"--CODEGEN--\":1411:1412   */\n  0x00\n    /* \"--CODEGEN--\":1408:1409   */\n  dup1\n    /* \"--CODEGEN--\":1401:1413   */\n  revert\n    /* \"--CODEGEN--\":1365:1367   */\ntag_47:\n    /* \"--CODEGEN--\":1431:1505   */\n  tag_48\n    /* \"--CODEGEN--\":1497:1504   */\n  dup9\n    /* \"--CODEGEN--\":1488:1494   */\n  dup3\n    /* \"--CODEGEN--\":1477:1486   */\n  dup10\n    /* \"--CODEGEN--\":1473:1495   */\n  add\n    /* \"--CODEGEN--\":1431:1505   */\n  jump(tag_33)\ntag_48:\n    /* \"--CODEGEN--\":1421:1505   */\n  swap5\n  pop\n    /* \"--CODEGEN--\":1313:1511   */\n  pop\n    /* \"--CODEGEN--\":1563:1565   */\n  0x40\n    /* \"--CODEGEN--\":1552:1561   */\n  dup7\n    /* \"--CODEGEN--\":1548:1566   */\n  add\n    /* \"--CODEGEN--\":1542:1567   */\n  mload\n    /* \"--CODEGEN--\":1587:1605   */\n  0xffffffffffffffff\n    /* \"--CODEGEN--\":1579:1585   */\n  dup2\n    /* \"--CODEGEN--\":1576:1606   */\n  gt\n    /* \"--CODEGEN--\":1573:1575   */\n  iszero\n  tag_49\n  jumpi\n    /* \"--CODEGEN--\":1619:1620   */\n  0x00\n    /* \"--CODEGEN--\":1616:1617   */\n  dup1\n    /* \"--CODEGEN--\":1609:1621   */\n  revert\n    /* \"--CODEGEN--\":1573:1575   */\ntag_49:\n    /* \"--CODEGEN--\":1639:1713   */\n  tag_50\n    /* \"--CODEGEN--\":1705:1712   */\n  dup9\n    /* \"--CODEGEN--\":1696:1702   */\n  dup3\n    /* \"--CODEGEN--\":1685:1694   */\n  dup10\n    /* \"--CODEGEN--\":1681:1703   */\n  add\n    /* \"--CODEGEN--\":1639:1713   */\n  jump(tag_33)\ntag_50:\n    /* \"--CODEGEN--\":1629:1713   */\n  swap4\n  pop\n    /* \"--CODEGEN--\":1521:1719   */\n  pop\n    /* \"--CODEGEN--\":1750:1752   */\n  0x60\n    /* \"--CODEGEN--\":1768:1832   */\n  tag_51\n    /* \"--CODEGEN--\":1824:1831   */\n  dup9\n    /* \"--CODEGEN--\":1815:1821   */\n  dup3\n    /* \"--CODEGEN--\":1804:1813   */\n  dup10\n    /* \"--CODEGEN--\":1800:1822   */\n  add\n    /* \"--CODEGEN--\":1768:1832   */\n  jump(tag_42)\ntag_51:\n    /* \"--CODEGEN--\":1758:1832   */\n  swap3\n  pop\n    /* \"--CODEGEN--\":1729:1838   */\n  pop\n    /* \"--CODEGEN--\":1869:1872   */\n  0x80\n    /* \"--CODEGEN--\":1888:1952   */\n  tag_52\n    /* \"--CODEGEN--\":1944:1951   */\n  dup9\n    /* \"--CODEGEN--\":1935:1941   */\n  dup3\n    /* \"--CODEGEN--\":1924:1933   */\n  dup10\n    /* \"--CODEGEN--\":1920:1942   */\n  add\n    /* \"--CODEGEN--\":1888:1952   */\n  jump(tag_27)\ntag_52:\n    /* \"--CODEGEN--\":1878:1952   */\n  swap2\n  pop\n    /* \"--CODEGEN--\":1848:1958   */\n  pop\n    /* \"--CODEGEN--\":1106:1968   */\n  swap3\n  swap6\n  pop\n  swap3\n  swap6\n  swap1\n  swap4\n  pop\n  jump\n    /* \"--CODEGEN--\":1975:2117   */\ntag_53:\n    /* \"--CODEGEN--\":2066:2111   */\n  tag_54\n    /* \"--CODEGEN--\":2105:2110   */\n  dup2\n    /* \"--CODEGEN--\":2066:2111   */\n  jump(tag_55)\ntag_54:\n    /* \"--CODEGEN--\":2061:2064   */\n  dup3\n    /* \"--CODEGEN--\":2054:2112   */\n  mstore\n    /* \"--CODEGEN--\":2048:2117   */\n  pop\n  pop\n  jump\n    /* \"--CODEGEN--\":2124:2237   */\ntag_56:\n    /* \"--CODEGEN--\":2207:2231   */\n  tag_57\n    /* \"--CODEGEN--\":2225:2230   */\n  dup2\n    /* \"--CODEGEN--\":2207:2231   */\n  jump(tag_58)\ntag_57:\n    /* \"--CODEGEN--\":2202:2205   */\n  dup3\n    /* \"--CODEGEN--\":2195:2232   */\n  mstore\n    /* \"--CODEGEN--\":2189:2237   */\n  pop\n  pop\n  jump\n    /* \"--CODEGEN--\":2245:2570   */\ntag_59:\n  0x00\n    /* \"--CODEGEN--\":2405:2472   */\n  tag_60\n    /* \"--CODEGEN--\":2469:2471   */\n  0x19\n    /* \"--CODEGEN--\":2464:2467   */\n  dup4\n    /* \"--CODEGEN--\":2405:2472   */\n  jump(tag_61)\ntag_60:\n    /* \"--CODEGEN--\":2398:2472   */\n  swap2\n  pop\n    /* \"--CODEGEN--\":2505:2532   */\n  0x4f776e657220616464726573732063616e6e6f74206265203000000000000000\n    /* \"--CODEGEN--\":2501:2502   */\n  0x00\n    /* \"--CODEGEN--\":2496:2499   */\n  dup4\n    /* \"--CODEGEN--\":2492:2503   */\n  add\n    /* \"--CODEGEN--\":2485:2533   */\n  mstore\n    /* \"--CODEGEN--\":2561:2563   */\n  0x20\n    /* \"--CODEGEN--\":2556:2559   */\n  dup3\n    /* \"--CODEGEN--\":2552:2564   */\n  add\n    /* \"--CODEGEN--\":2545:2564   */\n  swap1\n  pop\n    /* \"--CODEGEN--\":2391:2570   */\n  swap2\n  swap1\n  pop\n  jump\n    /* \"--CODEGEN--\":2578:2918   */\ntag_11:\n  0x00\n    /* \"--CODEGEN--\":2732:2734   */\n  0x40\n    /* \"--CODEGEN--\":2721:2730   */\n  dup3\n    /* \"--CODEGEN--\":2717:2735   */\n  add\n    /* \"--CODEGEN--\":2709:2735   */\n  swap1\n  pop\n    /* \"--CODEGEN--\":2746:2825   */\n  tag_62\n    /* \"--CODEGEN--\":2822:2823   */\n  0x00\n    /* \"--CODEGEN--\":2811:2820   */\n  dup4\n    /* \"--CODEGEN--\":2807:2824   */\n  add\n    /* \"--CODEGEN--\":2798:2804   */\n  dup6\n    /* \"--CODEGEN--\":2746:2825   */\n  jump(tag_53)\ntag_62:\n    /* \"--CODEGEN--\":2836:2908   */\n  tag_63\n    /* \"--CODEGEN--\":2904:2906   */\n  0x20\n    /* \"--CODEGEN--\":2893:2902   */\n  dup4\n    /* \"--CODEGEN--\":2889:2907   */\n  add\n    /* \"--CODEGEN--\":2880:2886   */\n  dup5\n    /* \"--CODEGEN--\":2836:2908   */\n  jump(tag_56)\ntag_63:\n    /* \"--CODEGEN--\":2703:2918   */\n  swap4\n  swap3\n  pop\n  pop\n  pop\n  jump\n    /* \"--CODEGEN--\":2925:3332   */\ntag_9:\n  0x00\n    /* \"--CODEGEN--\":3116:3118   */\n  0x20\n    /* \"--CODEGEN--\":3105:3114   */\n  dup3\n    /* \"--CODEGEN--\":3101:3119   */\n  add\n    /* \"--CODEGEN--\":3093:3119   */\n  swap1\n  pop\n    /* \"--CODEGEN--\":3166:3175   */\n  dup2\n    /* \"--CODEGEN--\":3160:3164   */\n  dup2\n    /* \"--CODEGEN--\":3156:3176   */\n  sub\n    /* \"--CODEGEN--\":3152:3153   */\n  0x00\n    /* \"--CODEGEN--\":3141:3150   */\n  dup4\n    /* \"--CODEGEN--\":3137:3154   */\n  add\n    /* \"--CODEGEN--\":3130:3177   */\n  mstore\n    /* \"--CODEGEN--\":3191:3322   */\n  tag_64\n    /* \"--CODEGEN--\":3317:3321   */\n  dup2\n    /* \"--CODEGEN--\":3191:3322   */\n  jump(tag_59)\ntag_64:\n    /* \"--CODEGEN--\":3183:3322   */\n  swap1\n  pop\n    /* \"--CODEGEN--\":3087:3332   */\n  swap2\n  swap1\n  pop\n  jump\n    /* \"--CODEGEN--\":3339:3595   */\ntag_38:\n  0x00\n    /* \"--CODEGEN--\":3401:3403   */\n  0x40\n    /* \"--CODEGEN--\":3395:3404   */\n  mload\n    /* \"--CODEGEN--\":3385:3404   */\n  swap1\n  pop\n    /* \"--CODEGEN--\":3439:3443   */\n  dup2\n    /* \"--CODEGEN--\":3431:3437   */\n  dup2\n    /* \"--CODEGEN--\":3427:3444   */\n  add\n    /* \"--CODEGEN--\":3538:3544   */\n  dup2\n    /* \"--CODEGEN--\":3526:3536   */\n  dup2\n    /* \"--CODEGEN--\":3523:3545   */\n  lt\n    /* \"--CODEGEN--\":3502:3520   */\n  0xffffffffffffffff\n    /* \"--CODEGEN--\":3490:3500   */\n  dup3\n    /* \"--CODEGEN--\":3487:3521   */\n  gt\n    /* \"--CODEGEN--\":3484:3546   */\n  or\n    /* \"--CODEGEN--\":3481:3483   */\n  iszero\n  tag_65\n  jumpi\n    /* \"--CODEGEN--\":3559:3560   */\n  0x00\n    /* \"--CODEGEN--\":3556:3557   */\n  dup1\n    /* \"--CODEGEN--\":3549:3561   */\n  revert\n    /* \"--CODEGEN--\":3481:3483   */\ntag_65:\n    /* \"--CODEGEN--\":3579:3589   */\n  dup1\n    /* \"--CODEGEN--\":3575:3577   */\n  0x40\n    /* \"--CODEGEN--\":3568:3590   */\n  mstore\n    /* \"--CODEGEN--\":3379:3595   */\n  pop\n  swap2\n  swap1\n  pop\n  jump\n    /* \"--CODEGEN--\":3602:3924   */\ntag_37:\n  0x00\n    /* \"--CODEGEN--\":3746:3764   */\n  0xffffffffffffffff\n    /* \"--CODEGEN--\":3738:3744   */\n  dup3\n    /* \"--CODEGEN--\":3735:3765   */\n  gt\n    /* \"--CODEGEN--\":3732:3734   */\n  iszero\n  tag_66\n  jumpi\n    /* \"--CODEGEN--\":3778:3779   */\n  0x00\n    /* \"--CODEGEN--\":3775:3776   */\n  dup1\n    /* \"--CODEGEN--\":3768:3780   */\n  revert\n    /* \"--CODEGEN--\":3732:3734   */\ntag_66:\n    /* \"--CODEGEN--\":3845:3849   */\n  0x1f\n    /* \"--CODEGEN--\":3841:3850   */\n  not\n    /* \"--CODEGEN--\":3834:3838   */\n  0x1f\n    /* \"--CODEGEN--\":3826:3832   */\n  dup4\n    /* \"--CODEGEN--\":3822:3839   */\n  add\n    /* \"--CODEGEN--\":3818:3851   */\n  and\n    /* \"--CODEGEN--\":3810:3851   */\n  swap1\n  pop\n    /* \"--CODEGEN--\":3909:3913   */\n  0x20\n    /* \"--CODEGEN--\":3903:3907   */\n  dup2\n    /* \"--CODEGEN--\":3899:3914   */\n  add\n    /* \"--CODEGEN--\":3891:3914   */\n  swap1\n  pop\n    /* \"--CODEGEN--\":3669:3924   */\n  swap2\n  swap1\n  pop\n  jump\n    /* \"--CODEGEN--\":3932:4095   */\ntag_61:\n  0x00\n    /* \"--CODEGEN--\":4047:4053   */\n  dup3\n    /* \"--CODEGEN--\":4042:4045   */\n  dup3\n    /* \"--CODEGEN--\":4035:4054   */\n  mstore\n    /* \"--CODEGEN--\":4084:4088   */\n  0x20\n    /* \"--CODEGEN--\":4079:4082   */\n  dup3\n    /* \"--CODEGEN--\":4075:4089   */\n  add\n    /* \"--CODEGEN--\":4060:4089   */\n  swap1\n  pop\n    /* \"--CODEGEN--\":4028:4095   */\n  swap3\n  swap2\n  pop\n  pop\n  jump\n    /* \"--CODEGEN--\":4103:4194   */\ntag_58:\n  0x00\n    /* \"--CODEGEN--\":4165:4189   */\n  tag_67\n    /* \"--CODEGEN--\":4183:4188   */\n  dup3\n    /* \"--CODEGEN--\":4165:4189   */\n  jump(tag_68)\ntag_67:\n    /* \"--CODEGEN--\":4154:4189   */\n  swap1\n  pop\n    /* \"--CODEGEN--\":4148:4194   */\n  swap2\n  swap1\n  pop\n  jump\n    /* \"--CODEGEN--\":4201:4312   */\ntag_69:\n  0x00\n    /* \"--CODEGEN--\":4283:4307   */\n  tag_70\n    /* \"--CODEGEN--\":4301:4306   */\n  dup3\n    /* \"--CODEGEN--\":4283:4307   */\n  jump(tag_58)\ntag_70:\n    /* \"--CODEGEN--\":4272:4307   */\n  swap1\n  pop\n    /* \"--CODEGEN--\":4266:4312   */\n  swap2\n  swap1\n  pop\n  jump\n    /* \"--CODEGEN--\":4319:4440   */\ntag_68:\n  0x00\n    /* \"--CODEGEN--\":4392:4434   */\n  0xffffffffffffffffffffffffffffffffffffffff\n    /* \"--CODEGEN--\":4385:4390   */\n  dup3\n    /* \"--CODEGEN--\":4381:4435   */\n  and\n    /* \"--CODEGEN--\":4370:4435   */\n  swap1\n  pop\n    /* \"--CODEGEN--\":4364:4440   */\n  swap2\n  swap1\n  pop\n  jump\n    /* \"--CODEGEN--\":4447:4519   */\ntag_71:\n  0x00\n    /* \"--CODEGEN--\":4509:4514   */\n  dup2\n    /* \"--CODEGEN--\":4498:4514   */\n  swap1\n  pop\n    /* \"--CODEGEN--\":4492:4519   */\n  swap2\n  swap1\n  pop\n  jump\n    /* \"--CODEGEN--\":4526:4655   */\ntag_55:\n  0x00\n    /* \"--CODEGEN--\":4613:4650   */\n  tag_72\n    /* \"--CODEGEN--\":4644:4649   */\n  dup3\n    /* \"--CODEGEN--\":4613:4650   */\n  jump(tag_73)\ntag_72:\n    /* \"--CODEGEN--\":4600:4650   */\n  swap1\n  pop\n    /* \"--CODEGEN--\":4594:4655   */\n  swap2\n  swap1\n  pop\n  jump\n    /* \"--CODEGEN--\":4662:4783   */\ntag_73:\n  0x00\n    /* \"--CODEGEN--\":4741:4778   */\n  tag_74\n    /* \"--CODEGEN--\":4772:4777   */\n  dup3\n    /* \"--CODEGEN--\":4741:4778   */\n  jump(tag_75)\ntag_74:\n    /* \"--CODEGEN--\":4728:4778   */\n  swap1\n  pop\n    /* \"--CODEGEN--\":4722:4783   */\n  swap2\n  swap1\n  pop\n  jump\n    /* \"--CODEGEN--\":4790:4898   */\ntag_75:\n  0x00\n    /* \"--CODEGEN--\":4869:4893   */\n  tag_76\n    /* \"--CODEGEN--\":4887:4892   */\n  dup3\n    /* \"--CODEGEN--\":4869:4893   */\n  jump(tag_68)\ntag_76:\n    /* \"--CODEGEN--\":4856:4893   */\n  swap1\n  pop\n    /* \"--CODEGEN--\":4850:4898   */\n  swap2\n  swap1\n  pop\n  jump\n    /* \"--CODEGEN--\":4906:5174   */\ntag_41:\n    /* \"--CODEGEN--\":4971:4972   */\n  0x00\n    /* \"--CODEGEN--\":4978:5079   */\ntag_77:\n    /* \"--CODEGEN--\":4992:4998   */\n  dup4\n    /* \"--CODEGEN--\":4989:4990   */\n  dup2\n    /* \"--CODEGEN--\":4986:4999   */\n  lt\n    /* \"--CODEGEN--\":4978:5079   */\n  iszero\n  tag_79\n  jumpi\n    /* \"--CODEGEN--\":5068:5069   */\n  dup1\n    /* \"--CODEGEN--\":5063:5066   */\n  dup3\n    /* \"--CODEGEN--\":5059:5070   */\n  add\n    /* \"--CODEGEN--\":5053:5071   */\n  mload\n    /* \"--CODEGEN--\":5049:5050   */\n  dup2\n    /* \"--CODEGEN--\":5044:5047   */\n  dup5\n    /* \"--CODEGEN--\":5040:5051   */\n  add\n    /* \"--CODEGEN--\":5033:5072   */\n  mstore\n    /* \"--CODEGEN--\":5014:5016   */\n  0x20\n    /* \"--CODEGEN--\":5011:5012   */\n  dup2\n    /* \"--CODEGEN--\":5007:5017   */\n  add\n    /* \"--CODEGEN--\":5002:5017   */\n  swap1\n  pop\n    /* \"--CODEGEN--\":4978:5079   */\n  jump(tag_77)\ntag_79:\n    /* \"--CODEGEN--\":5094:5100   */\n  dup4\n    /* \"--CODEGEN--\":5091:5092   */\n  dup2\n    /* \"--CODEGEN--\":5088:5101   */\n  gt\n    /* \"--CODEGEN--\":5085:5087   */\n  iszero\n  tag_80\n  jumpi\n    /* \"--CODEGEN--\":5159:5160   */\n  0x00\n    /* \"--CODEGEN--\":5150:5156   */\n  dup5\n    /* \"--CODEGEN--\":5145:5148   */\n  dup5\n    /* \"--CODEGEN--\":5141:5157   */\n  add\n    /* \"--CODEGEN--\":5134:5161   */\n  mstore\n    /* \"--CODEGEN--\":5085:5087   */\ntag_80:\n    /* \"--CODEGEN--\":4955:5174   */\n  pop\n  pop\n  pop\n  pop\n  jump\n    /* \"--CODEGEN--\":5182:5299   */\ntag_29:\n    /* \"--CODEGEN--\":5251:5275   */\n  tag_81\n    /* \"--CODEGEN--\":5269:5274   */\n  dup2\n    /* \"--CODEGEN--\":5251:5275   */\n  jump(tag_58)\ntag_81:\n    /* \"--CODEGEN--\":5244:5249   */\n  dup2\n    /* \"--CODEGEN--\":5241:5276   */\n  eq\n    /* \"--CODEGEN--\":5231:5233   */\n  tag_82\n  jumpi\n    /* \"--CODEGEN--\":5290:5291   */\n  0x00\n    /* \"--CODEGEN--\":5287:5288   */\n  dup1\n    /* \"--CODEGEN--\":5280:5292   */\n  revert\n    /* \"--CODEGEN--\":5231:5233   */\ntag_82:\n    /* \"--CODEGEN--\":5225:5299   */\n  pop\n  jump\n    /* \"--CODEGEN--\":5306:5463   */\ntag_32:\n    /* \"--CODEGEN--\":5395:5439   */\n  tag_83\n    /* \"--CODEGEN--\":5433:5438   */\n  dup2\n    /* \"--CODEGEN--\":5395:5439   */\n  jump(tag_69)\ntag_83:\n    /* \"--CODEGEN--\":5388:5393   */\n  dup2\n    /* \"--CODEGEN--\":5385:5440   */\n  eq\n    /* \"--CODEGEN--\":5375:5377   */\n  tag_84\n  jumpi\n    /* \"--CODEGEN--\":5454:5455   */\n  0x00\n    /* \"--CODEGEN--\":5451:5452   */\n  dup1\n    /* \"--CODEGEN--\":5444:5456   */\n  revert\n    /* \"--CODEGEN--\":5375:5377   */\ntag_84:\n    /* \"--CODEGEN--\":5369:5463   */\n  pop\n  jump\n    /* \"--CODEGEN--\":5470:5587   */\ntag_44:\n    /* \"--CODEGEN--\":5539:5563   */\n  tag_85\n    /* \"--CODEGEN--\":5557:5562   */\n  dup2\n    /* \"--CODEGEN--\":5539:5563   */\n  jump(tag_71)\ntag_85:\n    /* \"--CODEGEN--\":5532:5537   */\n  dup2\n    /* \"--CODEGEN--\":5529:5564   */\n  eq\n    /* \"--CODEGEN--\":5519:5521   */\n  tag_86\n  jumpi\n    /* \"--CODEGEN--\":5578:5579   */\n  0x00\n    /* \"--CODEGEN--\":5575:5576   */\n  dup1\n    /* \"--CODEGEN--\":5568:5580   */\n  revert\n    /* \"--CODEGEN--\":5519:5521   */\ntag_86:\n    /* \"--CODEGEN--\":5513:5587   */\n  pop\n  jump\n    /* \"contracts/BandOracleReader.sol\":340:7210  contract BandOracleReader is AggregatorV2V3Interface, IPyth, Owned {... */\ntag_16:\n  dataSize(sub_0)\n  dup1\n  dataOffset(sub_0)\n  0x00\n  codecopy\n  0x00\n  return\nstop\n\nsub_0: assembly {\n        /* \"contracts/BandOracleReader.sol\":340:7210  contract BandOracleReader is AggregatorV2V3Interface, IPyth, Owned {... */\n      mstore(0x40, 0x80)\n      jumpi(tag_1, lt(calldatasize, 0x04))\n      shr(0xe0, calldataload(0x00))\n      dup1\n      0x956dcd1f\n      gt\n      tag_30\n      jumpi\n      dup1\n      0xb633620c\n      gt\n      tag_31\n      jumpi\n      dup1\n      0xd606a8b7\n      gt\n      tag_32\n      jumpi\n      dup1\n      0xd606a8b7\n      eq\n      tag_26\n      jumpi\n      dup1\n      0xe18910a3\n      eq\n      tag_27\n      jumpi\n      dup1\n      0xef9e5e28\n      eq\n      tag_28\n      jumpi\n      dup1\n      0xfeaf968c\n      eq\n      tag_29\n      jumpi\n      jump(tag_1)\n    tag_32:\n      dup1\n      0xb633620c\n      eq\n      tag_23\n      jumpi\n      dup1\n      0xb9256d28\n      eq\n      tag_24\n      jumpi\n      dup1\n      0xd47eed45\n      eq\n      tag_25\n      jumpi\n      jump(tag_1)\n    tag_31:\n      dup1\n      0x9a6fc8f5\n      gt\n      tag_33\n      jumpi\n      dup1\n      0x9a6fc8f5\n      eq\n      tag_19\n      jumpi\n      dup1\n      0xa4ae35e0\n      eq\n      tag_20\n      jumpi\n      dup1\n      0xb5ab58dc\n      eq\n      tag_21\n      jumpi\n      dup1\n      0xb5dcc911\n      eq\n      tag_22\n      jumpi\n      jump(tag_1)\n    tag_33:\n      dup1\n      0x956dcd1f\n      eq\n      tag_16\n      jumpi\n      dup1\n      0x96834ad3\n      eq\n      tag_17\n      jumpi\n      dup1\n      0x999b93af\n      eq\n      tag_18\n      jumpi\n      jump(tag_1)\n    tag_30:\n      dup1\n      0x668a0f02\n      gt\n      tag_34\n      jumpi\n      dup1\n      0x758cdcf0\n      gt\n      tag_35\n      jumpi\n      dup1\n      0x758cdcf0\n      eq\n      tag_12\n      jumpi\n      dup1\n      0x79ba5097\n      eq\n      tag_13\n      jumpi\n      dup1\n      0x8da5cb5b\n      eq\n      tag_14\n      jumpi\n      dup1\n      0x9474f45b\n      eq\n      tag_15\n      jumpi\n      jump(tag_1)\n    tag_35:\n      dup1\n      0x668a0f02\n      eq\n      tag_9\n      jumpi\n      dup1\n      0x6a2e770f\n      eq\n      tag_10\n      jumpi\n      dup1\n      0x711a2e28\n      eq\n      tag_11\n      jumpi\n      jump(tag_1)\n    tag_34:\n      dup1\n      0x3ccfd60b\n      gt\n      tag_36\n      jumpi\n      dup1\n      0x3ccfd60b\n      eq\n      tag_5\n      jumpi\n      dup1\n      0x4716e9c5\n      eq\n      tag_6\n      jumpi\n      dup1\n      0x5001f3b5\n      eq\n      tag_7\n      jumpi\n      dup1\n      0x53a47bb7\n      eq\n      tag_8\n      jumpi\n      jump(tag_1)\n    tag_36:\n      dup1\n      0x1627540c\n      eq\n      tag_2\n      jumpi\n      dup1\n      0x313ce567\n      eq\n      tag_3\n      jumpi\n      dup1\n      0x31d98b3f\n      eq\n      tag_4\n      jumpi\n    tag_1:\n      0x00\n      dup1\n      revert\n        /* \"contracts/Owned.sol\":358:496  function nominateNewOwner(address _owner) external onlyOwner {... */\n    tag_2:\n      callvalue\n        /* \"--CODEGEN--\":8:17   */\n      dup1\n        /* \"--CODEGEN--\":5:7   */\n      iszero\n      tag_37\n      jumpi\n        /* \"--CODEGEN--\":30:31   */\n      0x00\n        /* \"--CODEGEN--\":27:28   */\n      dup1\n        /* \"--CODEGEN--\":20:32   */\n      revert\n        /* \"--CODEGEN--\":5:7   */\n    tag_37:\n        /* \"contracts/Owned.sol\":358:496  function nominateNewOwner(address _owner) external onlyOwner {... */\n      pop\n      tag_38\n      0x04\n      dup1\n      calldatasize\n      sub\n      tag_39\n      swap2\n      swap1\n      dup2\n      add\n      swap1\n      jump(tag_40)\n    tag_39:\n      tag_41\n      jump\t// in\n    tag_38:\n      stop\n        /* \"contracts/BandOracleReader.sol\":2292:2508  function decimals() external view returns (uint8) {... */\n    tag_3:\n      callvalue\n        /* \"--CODEGEN--\":8:17   */\n      dup1\n        /* \"--CODEGEN--\":5:7   */\n      iszero\n      tag_42\n      jumpi\n        /* \"--CODEGEN--\":30:31   */\n      0x00\n        /* \"--CODEGEN--\":27:28   */\n      dup1\n        /* \"--CODEGEN--\":20:32   */\n      revert\n        /* \"--CODEGEN--\":5:7   */\n    tag_42:\n        /* \"contracts/BandOracleReader.sol\":2292:2508  function decimals() external view returns (uint8) {... */\n      pop\n      tag_43\n      tag_44\n      jump\t// in\n    tag_43:\n      mload(0x40)\n      tag_45\n      swap2\n      swap1\n      jump(tag_46)\n    tag_45:\n      mload(0x40)\n      dup1\n      swap2\n      sub\n      swap1\n      return\n        /* \"contracts/BandOracleReader.sol\":5056:5248  function getPrice(... */\n    tag_4:\n      callvalue\n        /* \"--CODEGEN--\":8:17   */\n      dup1\n        /* \"--CODEGEN--\":5:7   */\n      iszero\n      tag_47\n      jumpi\n        /* \"--CODEGEN--\":30:31   */\n      0x00\n        /* \"--CODEGEN--\":27:28   */\n      dup1\n        /* \"--CODEGEN--\":20:32   */\n      revert\n        /* \"--CODEGEN--\":5:7   */\n    tag_47:\n        /* \"contracts/BandOracleReader.sol\":5056:5248  function getPrice(... */\n      pop\n      tag_48\n      0x04\n      dup1\n      calldatasize\n      sub\n      tag_49\n      swap2\n      swap1\n      dup2\n      add\n      swap1\n      jump(tag_50)\n    tag_49:\n      tag_51\n      jump\t// in\n    tag_48:\n      mload(0x40)\n      tag_52\n      swap2\n      swap1\n      jump(tag_53)\n    tag_52:\n      mload(0x40)\n      dup1\n      swap2\n      sub\n      swap1\n      return\n        /* \"contracts/BandOracleReader.sol\":1529:1694  function withdraw() external onlyOwner {... */\n    tag_5:\n      callvalue\n        /* \"--CODEGEN--\":8:17   */\n      dup1\n        /* \"--CODEGEN--\":5:7   */\n      iszero\n      tag_54\n      jumpi\n        /* \"--CODEGEN--\":30:31   */\n      0x00\n        /* \"--CODEGEN--\":27:28   */\n      dup1\n        /* \"--CODEGEN--\":20:32   */\n      revert\n        /* \"--CODEGEN--\":5:7   */\n    tag_54:\n        /* \"contracts/BandOracleReader.sol\":1529:1694  function withdraw() external onlyOwner {... */\n      pop\n      tag_55\n      tag_56\n      jump\t// in\n    tag_55:\n      stop\n        /* \"contracts/BandOracleReader.sol\":6819:7155  function parsePriceFeedUpdates(... */\n    tag_6:\n      tag_57\n      0x04\n      dup1\n      calldatasize\n      sub\n      tag_58\n      swap2\n      swap1\n      dup2\n      add\n      swap1\n      jump(tag_59)\n    tag_58:\n      tag_60\n      jump\t// in\n    tag_57:\n      mload(0x40)\n      tag_61\n      swap2\n      swap1\n      jump(tag_62)\n    tag_61:\n      mload(0x40)\n      dup1\n      swap2\n      sub\n      swap1\n      return\n        /* \"contracts/BandOracleReader.sol\":583:601  string public base */\n    tag_7:\n      callvalue\n        /* \"--CODEGEN--\":8:17   */\n      dup1\n        /* \"--CODEGEN--\":5:7   */\n      iszero\n      tag_63\n      jumpi\n        /* \"--CODEGEN--\":30:31   */\n      0x00\n        /* \"--CODEGEN--\":27:28   */\n      dup1\n        /* \"--CODEGEN--\":20:32   */\n      revert\n        /* \"--CODEGEN--\":5:7   */\n    tag_63:\n        /* \"contracts/BandOracleReader.sol\":583:601  string public base */\n      pop\n      tag_64\n      tag_65\n      jump\t// in\n    tag_64:\n      mload(0x40)\n      tag_66\n      swap2\n      swap1\n      jump(tag_67)\n    tag_66:\n      mload(0x40)\n      dup1\n      swap2\n      sub\n      swap1\n      return\n        /* \"contracts/Owned.sol\":135:164  address public nominatedOwner */\n    tag_8:\n      callvalue\n        /* \"--CODEGEN--\":8:17   */\n      dup1\n        /* \"--CODEGEN--\":5:7   */\n      iszero\n      tag_68\n      jumpi\n        /* \"--CODEGEN--\":30:31   */\n      0x00\n        /* \"--CODEGEN--\":27:28   */\n      dup1\n        /* \"--CODEGEN--\":20:32   */\n      revert\n        /* \"--CODEGEN--\":5:7   */\n    tag_68:\n        /* \"contracts/Owned.sol\":135:164  address public nominatedOwner */\n      pop\n      tag_69\n      tag_70\n      jump\t// in\n    tag_69:\n      mload(0x40)\n      tag_71\n      swap2\n      swap1\n      jump(tag_72)\n    tag_71:\n      mload(0x40)\n      dup1\n      swap2\n      sub\n      swap1\n      return\n        /* \"contracts/BandOracleReader.sol\":1838:2286  function latestRound() external view returns (uint256) {... */\n    tag_9:\n      callvalue\n        /* \"--CODEGEN--\":8:17   */\n      dup1\n        /* \"--CODEGEN--\":5:7   */\n      iszero\n      tag_73\n      jumpi\n        /* \"--CODEGEN--\":30:31   */\n      0x00\n        /* \"--CODEGEN--\":27:28   */\n      dup1\n        /* \"--CODEGEN--\":20:32   */\n      revert\n        /* \"--CODEGEN--\":5:7   */\n    tag_73:\n        /* \"contracts/BandOracleReader.sol\":1838:2286  function latestRound() external view returns (uint256) {... */\n      pop\n      tag_74\n      tag_75\n      jump\t// in\n    tag_74:\n      mload(0x40)\n      tag_76\n      swap2\n      swap1\n      jump(tag_77)\n    tag_76:\n      mload(0x40)\n      dup1\n      swap2\n      sub\n      swap1\n      return\n        /* \"contracts/BandOracleReader.sol\":1700:1788  function setUpdateFee(uint256 _fee) external onlyOwner {... */\n    tag_10:\n      callvalue\n        /* \"--CODEGEN--\":8:17   */\n      dup1\n        /* \"--CODEGEN--\":5:7   */\n      iszero\n      tag_78\n      jumpi\n        /* \"--CODEGEN--\":30:31   */\n      0x00\n        /* \"--CODEGEN--\":27:28   */\n      dup1\n        /* \"--CODEGEN--\":20:32   */\n      revert\n        /* \"--CODEGEN--\":5:7   */\n    tag_78:\n        /* \"contracts/BandOracleReader.sol\":1700:1788  function setUpdateFee(uint256 _fee) external onlyOwner {... */\n      pop\n      tag_79\n      0x04\n      dup1\n      calldatasize\n      sub\n      tag_80\n      swap2\n      swap1\n      dup2\n      add\n      swap1\n      jump(tag_81)\n    tag_80:\n      tag_82\n      jump\t// in\n    tag_79:\n      stop\n        /* \"contracts/BandOracleReader.sol\":6112:6345  function getEmaPriceNoOlderThan(... */\n    tag_11:\n      callvalue\n        /* \"--CODEGEN--\":8:17   */\n      dup1\n        /* \"--CODEGEN--\":5:7   */\n      iszero\n      tag_83\n      jumpi\n        /* \"--CODEGEN--\":30:31   */\n      0x00\n        /* \"--CODEGEN--\":27:28   */\n      dup1\n        /* \"--CODEGEN--\":20:32   */\n      revert\n        /* \"--CODEGEN--\":5:7   */\n    tag_83:\n        /* \"contracts/BandOracleReader.sol\":6112:6345  function getEmaPriceNoOlderThan(... */\n      pop\n      tag_84\n      0x04\n      dup1\n      calldatasize\n      sub\n      tag_85\n      swap2\n      swap1\n      dup2\n      add\n      swap1\n      jump(tag_86)\n    tag_85:\n      tag_87\n      jump\t// in\n    tag_84:\n      mload(0x40)\n      tag_88\n      swap2\n      swap1\n      jump(tag_53)\n    tag_88:\n      mload(0x40)\n      dup1\n      swap2\n      sub\n      swap1\n      return\n        /* \"contracts/BandOracleReader.sol\":685:709  uint256 public updateFee */\n    tag_12:\n      callvalue\n        /* \"--CODEGEN--\":8:17   */\n      dup1\n        /* \"--CODEGEN--\":5:7   */\n      iszero\n      tag_89\n      jumpi\n        /* \"--CODEGEN--\":30:31   */\n      0x00\n        /* \"--CODEGEN--\":27:28   */\n      dup1\n        /* \"--CODEGEN--\":20:32   */\n      revert\n        /* \"--CODEGEN--\":5:7   */\n    tag_89:\n        /* \"contracts/BandOracleReader.sol\":685:709  uint256 public updateFee */\n      pop\n      tag_90\n      tag_91\n      jump\t// in\n    tag_90:\n      mload(0x40)\n      tag_92\n      swap2\n      swap1\n      jump(tag_77)\n    tag_92:\n      mload(0x40)\n      dup1\n      swap2\n      sub\n      swap1\n      return\n        /* \"contracts/Owned.sol\":502:768  function acceptOwnership() external {... */\n    tag_13:\n      callvalue\n        /* \"--CODEGEN--\":8:17   */\n      dup1\n        /* \"--CODEGEN--\":5:7   */\n      iszero\n      tag_93\n      jumpi\n        /* \"--CODEGEN--\":30:31   */\n      0x00\n        /* \"--CODEGEN--\":27:28   */\n      dup1\n        /* \"--CODEGEN--\":20:32   */\n      revert\n        /* \"--CODEGEN--\":5:7   */\n    tag_93:\n        /* \"contracts/Owned.sol\":502:768  function acceptOwnership() external {... */\n      pop\n      tag_94\n      tag_95\n      jump\t// in\n    tag_94:\n      stop\n        /* \"contracts/Owned.sol\":109:129  address public owner */\n    tag_14:\n      callvalue\n        /* \"--CODEGEN--\":8:17   */\n      dup1\n        /* \"--CODEGEN--\":5:7   */\n      iszero\n      tag_96\n      jumpi\n        /* \"--CODEGEN--\":30:31   */\n      0x00\n        /* \"--CODEGEN--\":27:28   */\n      dup1\n        /* \"--CODEGEN--\":20:32   */\n      revert\n        /* \"--CODEGEN--\":5:7   */\n    tag_96:\n        /* \"contracts/Owned.sol\":109:129  address public owner */\n      pop\n      tag_97\n      tag_98\n      jump\t// in\n    tag_97:\n      mload(0x40)\n      tag_99\n      swap2\n      swap1\n      jump(tag_72)\n    tag_99:\n      mload(0x40)\n      dup1\n      swap2\n      sub\n      swap1\n      return\n        /* \"contracts/BandOracleReader.sol\":5900:6106  function getEmaPriceUnsafe(... */\n    tag_15:\n      callvalue\n        /* \"--CODEGEN--\":8:17   */\n      dup1\n        /* \"--CODEGEN--\":5:7   */\n      iszero\n      tag_100\n      jumpi\n        /* \"--CODEGEN--\":30:31   */\n      0x00\n        /* \"--CODEGEN--\":27:28   */\n      dup1\n        /* \"--CODEGEN--\":20:32   */\n      revert\n        /* \"--CODEGEN--\":5:7   */\n    tag_100:\n        /* \"contracts/BandOracleReader.sol\":5900:6106  function getEmaPriceUnsafe(... */\n      pop\n      tag_101\n      0x04\n      dup1\n      calldatasize\n      sub\n      tag_102\n      swap2\n      swap1\n      dup2\n      add\n      swap1\n      jump(tag_50)\n    tag_102:\n      tag_103\n      jump\t// in\n    tag_101:\n      mload(0x40)\n      tag_104\n      swap2\n      swap1\n      jump(tag_53)\n    tag_104:\n      mload(0x40)\n      dup1\n      swap2\n      sub\n      swap1\n      return\n        /* \"contracts/BandOracleReader.sol\":546:577  IStdReference public bandOracle */\n    tag_16:\n      callvalue\n        /* \"--CODEGEN--\":8:17   */\n      dup1\n        /* \"--CODEGEN--\":5:7   */\n      iszero\n      tag_105\n      jumpi\n        /* \"--CODEGEN--\":30:31   */\n      0x00\n        /* \"--CODEGEN--\":27:28   */\n      dup1\n        /* \"--CODEGEN--\":20:32   */\n      revert\n        /* \"--CODEGEN--\":5:7   */\n    tag_105:\n        /* \"contracts/BandOracleReader.sol\":546:577  IStdReference public bandOracle */\n      pop\n      tag_106\n      tag_107\n      jump\t// in\n    tag_106:\n      mload(0x40)\n      tag_108\n      swap2\n      swap1\n      jump(tag_109)\n    tag_108:\n      mload(0x40)\n      dup1\n      swap2\n      sub\n      swap1\n      return\n        /* \"contracts/BandOracleReader.sol\":5460:5658  function getPriceUnsafe(... */\n    tag_17:\n      callvalue\n        /* \"--CODEGEN--\":8:17   */\n      dup1\n        /* \"--CODEGEN--\":5:7   */\n      iszero\n      tag_110\n      jumpi\n        /* \"--CODEGEN--\":30:31   */\n      0x00\n        /* \"--CODEGEN--\":27:28   */\n      dup1\n        /* \"--CODEGEN--\":20:32   */\n      revert\n        /* \"--CODEGEN--\":5:7   */\n    tag_110:\n        /* \"contracts/BandOracleReader.sol\":5460:5658  function getPriceUnsafe(... */\n      pop\n      tag_111\n      0x04\n      dup1\n      calldatasize\n      sub\n      tag_112\n      swap2\n      swap1\n      dup2\n      add\n      swap1\n      jump(tag_50)\n    tag_112:\n      tag_113\n      jump\t// in\n    tag_111:\n      mload(0x40)\n      tag_114\n      swap2\n      swap1\n      jump(tag_53)\n    tag_114:\n      mload(0x40)\n      dup1\n      swap2\n      sub\n      swap1\n      return\n        /* \"contracts/BandOracleReader.sol\":607:626  string public quote */\n    tag_18:\n      callvalue\n        /* \"--CODEGEN--\":8:17   */\n      dup1\n        /* \"--CODEGEN--\":5:7   */\n      iszero\n      tag_115\n      jumpi\n        /* \"--CODEGEN--\":30:31   */\n      0x00\n        /* \"--CODEGEN--\":27:28   */\n      dup1\n        /* \"--CODEGEN--\":20:32   */\n      revert\n        /* \"--CODEGEN--\":5:7   */\n    tag_115:\n        /* \"contracts/BandOracleReader.sol\":607:626  string public quote */\n      pop\n      tag_116\n      tag_117\n      jump\t// in\n    tag_116:\n      mload(0x40)\n      tag_118\n      swap2\n      swap1\n      jump(tag_67)\n    tag_118:\n      mload(0x40)\n      dup1\n      swap2\n      sub\n      swap1\n      return\n        /* \"contracts/BandOracleReader.sol\":2780:3591  function getRoundData(uint80 _roundId)... */\n    tag_19:\n      callvalue\n        /* \"--CODEGEN--\":8:17   */\n      dup1\n        /* \"--CODEGEN--\":5:7   */\n      iszero\n      tag_119\n      jumpi\n        /* \"--CODEGEN--\":30:31   */\n      0x00\n        /* \"--CODEGEN--\":27:28   */\n      dup1\n        /* \"--CODEGEN--\":20:32   */\n      revert\n        /* \"--CODEGEN--\":5:7   */\n    tag_119:\n        /* \"contracts/BandOracleReader.sol\":2780:3591  function getRoundData(uint80 _roundId)... */\n      pop\n      tag_120\n      0x04\n      dup1\n      calldatasize\n      sub\n      tag_121\n      swap2\n      swap1\n      dup2\n      add\n      swap1\n      jump(tag_122)\n    tag_121:\n      tag_123\n      jump\t// in\n    tag_120:\n      mload(0x40)\n      tag_124\n      swap6\n      swap5\n      swap4\n      swap3\n      swap2\n      swap1\n      jump(tag_125)\n    tag_124:\n      mload(0x40)\n      dup1\n      swap2\n      sub\n      swap1\n      return\n        /* \"contracts/BandOracleReader.sol\":5664:5894  function getPriceNoOlderThan(... */\n    tag_20:\n      callvalue\n        /* \"--CODEGEN--\":8:17   */\n      dup1\n        /* \"--CODEGEN--\":5:7   */\n      iszero\n      tag_126\n      jumpi\n        /* \"--CODEGEN--\":30:31   */\n      0x00\n        /* \"--CODEGEN--\":27:28   */\n      dup1\n        /* \"--CODEGEN--\":20:32   */\n      revert\n        /* \"--CODEGEN--\":5:7   */\n    tag_126:\n        /* \"contracts/BandOracleReader.sol\":5664:5894  function getPriceNoOlderThan(... */\n      pop\n      tag_127\n      0x04\n      dup1\n      calldatasize\n      sub\n      tag_128\n      swap2\n      swap1\n      dup2\n      add\n      swap1\n      jump(tag_86)\n    tag_128:\n      tag_129\n      jump\t// in\n    tag_127:\n      mload(0x40)\n      tag_130\n      swap2\n      swap1\n      jump(tag_53)\n    tag_130:\n      mload(0x40)\n      dup1\n      swap2\n      sub\n      swap1\n      return\n        /* \"contracts/BandOracleReader.sol\":2514:2639  function getAnswer(... */\n    tag_21:\n      callvalue\n        /* \"--CODEGEN--\":8:17   */\n      dup1\n        /* \"--CODEGEN--\":5:7   */\n      iszero\n      tag_131\n      jumpi\n        /* \"--CODEGEN--\":30:31   */\n      0x00\n        /* \"--CODEGEN--\":27:28   */\n      dup1\n        /* \"--CODEGEN--\":20:32   */\n      revert\n        /* \"--CODEGEN--\":5:7   */\n    tag_131:\n        /* \"contracts/BandOracleReader.sol\":2514:2639  function getAnswer(... */\n      pop\n      tag_132\n      0x04\n      dup1\n      calldatasize\n      sub\n      tag_133\n      swap2\n      swap1\n      dup2\n      add\n      swap1\n      jump(tag_81)\n    tag_133:\n      tag_134\n      jump\t// in\n    tag_132:\n      mload(0x40)\n      tag_135\n      swap2\n      swap1\n      jump(tag_136)\n    tag_135:\n      mload(0x40)\n      dup1\n      swap2\n      sub\n      swap1\n      return\n        /* \"contracts/BandOracleReader.sol\":5254:5454  function getEmaPrice(... */\n    tag_22:\n      callvalue\n        /* \"--CODEGEN--\":8:17   */\n      dup1\n        /* \"--CODEGEN--\":5:7   */\n      iszero\n      tag_137\n      jumpi\n        /* \"--CODEGEN--\":30:31   */\n      0x00\n        /* \"--CODEGEN--\":27:28   */\n      dup1\n        /* \"--CODEGEN--\":20:32   */\n      revert\n        /* \"--CODEGEN--\":5:7   */\n    tag_137:\n        /* \"contracts/BandOracleReader.sol\":5254:5454  function getEmaPrice(... */\n      pop\n      tag_138\n      0x04\n      dup1\n      calldatasize\n      sub\n      tag_139\n      swap2\n      swap1\n      dup2\n      add\n      swap1\n      jump(tag_50)\n    tag_139:\n      tag_140\n      jump\t// in\n    tag_138:\n      mload(0x40)\n      tag_141\n      swap2\n      swap1\n      jump(tag_53)\n    tag_141:\n      mload(0x40)\n      dup1\n      swap2\n      sub\n      swap1\n      return\n        /* \"contracts/BandOracleReader.sol\":2645:2774  function getTimestamp(... */\n    tag_23:\n      callvalue\n        /* \"--CODEGEN--\":8:17   */\n      dup1\n        /* \"--CODEGEN--\":5:7   */\n      iszero\n      tag_142\n      jumpi\n        /* \"--CODEGEN--\":30:31   */\n      0x00\n        /* \"--CODEGEN--\":27:28   */\n      dup1\n        /* \"--CODEGEN--\":20:32   */\n      revert\n        /* \"--CODEGEN--\":5:7   */\n    tag_142:\n        /* \"contracts/BandOracleReader.sol\":2645:2774  function getTimestamp(... */\n      pop\n      tag_143\n      0x04\n      dup1\n      calldatasize\n      sub\n      tag_144\n      swap2\n      swap1\n      dup2\n      add\n      swap1\n      jump(tag_81)\n    tag_144:\n      tag_145\n      jump\t// in\n    tag_143:\n      mload(0x40)\n      tag_146\n      swap2\n      swap1\n      jump(tag_77)\n    tag_146:\n      mload(0x40)\n      dup1\n      swap2\n      sub\n      swap1\n      return\n        /* \"contracts/BandOracleReader.sol\":6470:6679  function updatePriceFeedsIfNecessary(... */\n    tag_24:\n      tag_147\n      0x04\n      dup1\n      calldatasize\n      sub\n      tag_148\n      swap2\n      swap1\n      dup2\n      add\n      swap1\n      jump(tag_149)\n    tag_148:\n      tag_150\n      jump\t// in\n    tag_147:\n      stop\n        /* \"contracts/BandOracleReader.sol\":6685:6813  function getUpdateFee(bytes[] calldata updateData) external view returns (uint feeAmount) {... */\n    tag_25:\n      callvalue\n        /* \"--CODEGEN--\":8:17   */\n      dup1\n        /* \"--CODEGEN--\":5:7   */\n      iszero\n      tag_151\n      jumpi\n        /* \"--CODEGEN--\":30:31   */\n      0x00\n        /* \"--CODEGEN--\":27:28   */\n      dup1\n        /* \"--CODEGEN--\":20:32   */\n      revert\n        /* \"--CODEGEN--\":5:7   */\n    tag_151:\n        /* \"contracts/BandOracleReader.sol\":6685:6813  function getUpdateFee(bytes[] calldata updateData) external view returns (uint feeAmount) {... */\n      pop\n      tag_152\n      0x04\n      dup1\n      calldatasize\n      sub\n      tag_153\n      swap2\n      swap1\n      dup2\n      add\n      swap1\n      jump(tag_154)\n    tag_153:\n      tag_155\n      jump\t// in\n    tag_152:\n      mload(0x40)\n      tag_156\n      swap2\n      swap1\n      jump(tag_77)\n    tag_156:\n      mload(0x40)\n      dup1\n      swap2\n      sub\n      swap1\n      return\n        /* \"contracts/BandOracleReader.sol\":1102:1499  function pullDataAndCache() public returns (RateAtRound memory) {... */\n    tag_26:\n      callvalue\n        /* \"--CODEGEN--\":8:17   */\n      dup1\n        /* \"--CODEGEN--\":5:7   */\n      iszero\n      tag_157\n      jumpi\n        /* \"--CODEGEN--\":30:31   */\n      0x00\n        /* \"--CODEGEN--\":27:28   */\n      dup1\n        /* \"--CODEGEN--\":20:32   */\n      revert\n        /* \"--CODEGEN--\":5:7   */\n    tag_157:\n        /* \"contracts/BandOracleReader.sol\":1102:1499  function pullDataAndCache() public returns (RateAtRound memory) {... */\n      pop\n      tag_158\n      tag_159\n      jump\t// in\n    tag_158:\n      mload(0x40)\n      tag_160\n      swap2\n      swap1\n      jump(tag_161)\n    tag_160:\n      mload(0x40)\n      dup1\n      swap2\n      sub\n      swap1\n      return\n        /* \"contracts/BandOracleReader.sol\":4881:5050  function getValidTimePeriod()... */\n    tag_27:\n      callvalue\n        /* \"--CODEGEN--\":8:17   */\n      dup1\n        /* \"--CODEGEN--\":5:7   */\n      iszero\n      tag_162\n      jumpi\n        /* \"--CODEGEN--\":30:31   */\n      0x00\n        /* \"--CODEGEN--\":27:28   */\n      dup1\n        /* \"--CODEGEN--\":20:32   */\n      revert\n        /* \"--CODEGEN--\":5:7   */\n    tag_162:\n        /* \"contracts/BandOracleReader.sol\":4881:5050  function getValidTimePeriod()... */\n      pop\n      tag_163\n      tag_164\n      jump\t// in\n    tag_163:\n      mload(0x40)\n      tag_165\n      swap2\n      swap1\n      jump(tag_77)\n    tag_165:\n      mload(0x40)\n      dup1\n      swap2\n      sub\n      swap1\n      return\n        /* \"contracts/BandOracleReader.sol\":6351:6464  function updatePriceFeeds(... */\n    tag_28:\n      tag_166\n      0x04\n      dup1\n      calldatasize\n      sub\n      tag_167\n      swap2\n      swap1\n      dup2\n      add\n      swap1\n      jump(tag_154)\n    tag_167:\n      tag_168\n      jump\t// in\n    tag_166:\n      stop\n        /* \"contracts/BandOracleReader.sol\":3597:3900  function latestRoundData()... */\n    tag_29:\n      callvalue\n        /* \"--CODEGEN--\":8:17   */\n      dup1\n        /* \"--CODEGEN--\":5:7   */\n      iszero\n      tag_169\n      jumpi\n        /* \"--CODEGEN--\":30:31   */\n      0x00\n        /* \"--CODEGEN--\":27:28   */\n      dup1\n        /* \"--CODEGEN--\":20:32   */\n      revert\n        /* \"--CODEGEN--\":5:7   */\n    tag_169:\n        /* \"contracts/BandOracleReader.sol\":3597:3900  function latestRoundData()... */\n      pop\n      tag_170\n      tag_171\n      jump\t// in\n    tag_170:\n      mload(0x40)\n      tag_172\n      swap6\n      swap5\n      swap4\n      swap3\n      swap2\n      swap1\n      jump(tag_125)\n    tag_172:\n      mload(0x40)\n      dup1\n      swap2\n      sub\n      swap1\n      return\n        /* \"contracts/Owned.sol\":358:496  function nominateNewOwner(address _owner) external onlyOwner {... */\n    tag_41:\n        /* \"contracts/Owned.sol\":803:815  _onlyOwner() */\n      tag_174\n        /* \"contracts/Owned.sol\":803:813  _onlyOwner */\n      tag_175\n        /* \"contracts/Owned.sol\":803:815  _onlyOwner() */\n      jump\t// in\n    tag_174:\n        /* \"contracts/Owned.sol\":446:452  _owner */\n      dup1\n        /* \"contracts/Owned.sol\":429:443  nominatedOwner */\n      0x01\n      0x00\n        /* \"contracts/Owned.sol\":429:452  nominatedOwner = _owner */\n      0x0100\n      exp\n      dup2\n      sload\n      dup2\n      0xffffffffffffffffffffffffffffffffffffffff\n      mul\n      not\n      and\n      swap1\n      dup4\n      0xffffffffffffffffffffffffffffffffffffffff\n      and\n      mul\n      or\n      swap1\n      sstore\n      pop\n        /* \"contracts/Owned.sol\":467:489  OwnerNominated(_owner) */\n      0x906a1c6bd7e3091ea86693dd029a831c19049ce77f1dce2ce0bab1cacbabce22\n        /* \"contracts/Owned.sol\":482:488  _owner */\n      dup2\n        /* \"contracts/Owned.sol\":467:489  OwnerNominated(_owner) */\n      mload(0x40)\n      tag_177\n      swap2\n      swap1\n      jump(tag_72)\n    tag_177:\n      mload(0x40)\n      dup1\n      swap2\n      sub\n      swap1\n      log1\n        /* \"contracts/Owned.sol\":358:496  function nominateNewOwner(address _owner) external onlyOwner {... */\n      pop\n      jump\t// out\n        /* \"contracts/BandOracleReader.sol\":2292:2508  function decimals() external view returns (uint8) {... */\n    tag_44:\n        /* \"contracts/BandOracleReader.sol\":2335:2340  uint8 */\n      0x00\n        /* \"contracts/BandOracleReader.sol\":2499:2501  18 */\n      0x12\n        /* \"contracts/BandOracleReader.sol\":2492:2501  return 18 */\n      swap1\n      pop\n        /* \"contracts/BandOracleReader.sol\":2292:2508  function decimals() external view returns (uint8) {... */\n      swap1\n      jump\t// out\n        /* \"contracts/BandOracleReader.sol\":5056:5248  function getPrice(... */\n    tag_51:\n        /* \"contracts/BandOracleReader.sol\":5164:5188  PythStructs.Price memory */\n      tag_179\n      tag_180\n      jump\t// in\n    tag_179:\n        /* \"contracts/BandOracleReader.sol\":5230:5241  _getPrice() */\n      tag_182\n        /* \"contracts/BandOracleReader.sol\":5230:5239  _getPrice */\n      tag_183\n        /* \"contracts/BandOracleReader.sol\":5230:5241  _getPrice() */\n      jump\t// in\n    tag_182:\n        /* \"contracts/BandOracleReader.sol\":5223:5241  return _getPrice() */\n      swap1\n      pop\n        /* \"contracts/BandOracleReader.sol\":5056:5248  function getPrice(... */\n      swap2\n      swap1\n      pop\n      jump\t// out\n        /* \"contracts/BandOracleReader.sol\":1529:1694  function withdraw() external onlyOwner {... */\n    tag_56:\n        /* \"contracts/Owned.sol\":803:815  _onlyOwner() */\n      tag_185\n        /* \"contracts/Owned.sol\":803:813  _onlyOwner */\n      tag_175\n        /* \"contracts/Owned.sol\":803:815  _onlyOwner() */\n      jump\t// in\n    tag_185:\n        /* \"contracts/BandOracleReader.sol\":1579:1591  bool success */\n      0x00\n        /* \"contracts/BandOracleReader.sol\":1597:1602  owner */\n      dup1\n      0x00\n      swap1\n      sload\n      swap1\n      0x0100\n      exp\n      swap1\n      div\n      0xffffffffffffffffffffffffffffffffffffffff\n      and\n        /* \"contracts/BandOracleReader.sol\":1597:1607  owner.call */\n      0xffffffffffffffffffffffffffffffffffffffff\n      and\n        /* \"contracts/BandOracleReader.sol\":1614:1635  address(this).balance */\n      selfbalance\n        /* \"contracts/BandOracleReader.sol\":1597:1640  owner.call.value(address(this).balance)(\"\") */\n      mload(0x40)\n      tag_187\n      swap1\n      jump(tag_188)\n    tag_187:\n      0x00\n      mload(0x40)\n      dup1\n      dup4\n      sub\n      dup2\n      dup6\n      dup8\n      gas\n      call\n      swap3\n      pop\n      pop\n      pop\n      returndatasize\n        /* \"--CODEGEN--\":14:15   */\n      dup1\n        /* \"--CODEGEN--\":21:22   */\n      0x00\n        /* \"--CODEGEN--\":16:47   */\n      dup2\n      eq\n      tag_190\n      jumpi\n        /* \"--CODEGEN--\":75:79   */\n      0x40\n        /* \"--CODEGEN--\":69:80   */\n      mload\n        /* \"--CODEGEN--\":64:80   */\n      swap2\n      pop\n        /* \"--CODEGEN--\":144:148   */\n      0x1f\n        /* \"--CODEGEN--\":140:149   */\n      not\n        /* \"--CODEGEN--\":133:137   */\n      0x3f\n        /* \"--CODEGEN--\":115:131   */\n      returndatasize\n        /* \"--CODEGEN--\":111:138   */\n      add\n        /* \"--CODEGEN--\":107:150   */\n      and\n        /* \"--CODEGEN--\":104:105   */\n      dup3\n        /* \"--CODEGEN--\":100:151   */\n      add\n        /* \"--CODEGEN--\":94:98   */\n      0x40\n        /* \"--CODEGEN--\":87:152   */\n      mstore\n        /* \"--CODEGEN--\":169:185   */\n      returndatasize\n        /* \"--CODEGEN--\":166:167   */\n      dup3\n        /* \"--CODEGEN--\":159:186   */\n      mstore\n        /* \"--CODEGEN--\":225:241   */\n      returndatasize\n        /* \"--CODEGEN--\":222:223   */\n      0x00\n        /* \"--CODEGEN--\":215:219   */\n      0x20\n        /* \"--CODEGEN--\":212:213   */\n      dup5\n        /* \"--CODEGEN--\":208:220   */\n      add\n        /* \"--CODEGEN--\":193:242   */\n      returndatacopy\n        /* \"--CODEGEN--\":7:249   */\n      jump(tag_189)\n        /* \"--CODEGEN--\":16:47   */\n    tag_190:\n        /* \"--CODEGEN--\":36:40   */\n      0x60\n        /* \"--CODEGEN--\":31:40   */\n      swap2\n      pop\n        /* \"--CODEGEN--\":7:249   */\n    tag_189:\n      pop\n        /* \"contracts/BandOracleReader.sol\":1578:1640  (bool success, ) = owner.call.value(address(this).balance)(\"\") */\n      pop\n      swap1\n      pop\n        /* \"contracts/BandOracleReader.sol\":1658:1665  success */\n      dup1\n        /* \"contracts/BandOracleReader.sol\":1650:1687  require(success, \"withdrawal failed\") */\n      tag_191\n      jumpi\n      mload(0x40)\n      0x08c379a000000000000000000000000000000000000000000000000000000000\n      dup2\n      mstore\n      0x04\n      add\n      tag_192\n      swap1\n      jump(tag_193)\n    tag_192:\n      mload(0x40)\n      dup1\n      swap2\n      sub\n      swap1\n      revert\n    tag_191:\n        /* \"contracts/Owned.sol\":825:826  _ */\n      pop\n        /* \"contracts/BandOracleReader.sol\":1529:1694  function withdraw() external onlyOwner {... */\n      jump\t// out\n        /* \"contracts/BandOracleReader.sol\":6819:7155  function parsePriceFeedUpdates(... */\n    tag_60:\n        /* \"contracts/BandOracleReader.sol\":7055:7085  PythStructs.PriceFeed[] memory */\n      0x60\n        /* \"contracts/BandOracleReader.sol\":7132:7147  NOT_IMPLEMENTED */\n      mload(0x40)\n      dup1\n      0x40\n      add\n      0x40\n      mstore\n      dup1\n      0x0f\n      dup2\n      mstore\n      0x20\n      add\n      0x4e4f545f494d504c454d454e5445440000000000000000000000000000000000\n      dup2\n      mstore\n      pop\n        /* \"contracts/BandOracleReader.sol\":7125:7148  revert(NOT_IMPLEMENTED) */\n      mload(0x40)\n      0x08c379a000000000000000000000000000000000000000000000000000000000\n      dup2\n      mstore\n      0x04\n      add\n      tag_195\n      swap2\n      swap1\n      jump(tag_67)\n    tag_195:\n      mload(0x40)\n      dup1\n      swap2\n      sub\n      swap1\n      revert\n        /* \"contracts/BandOracleReader.sol\":583:601  string public base */\n    tag_65:\n      0x03\n      dup1\n      sload\n      0x01\n      dup2\n      0x01\n      and\n      iszero\n      0x0100\n      mul\n      sub\n      and\n      0x02\n      swap1\n      div\n      dup1\n      0x1f\n      add\n      0x20\n      dup1\n      swap2\n      div\n      mul\n      0x20\n      add\n      mload(0x40)\n      swap1\n      dup2\n      add\n      0x40\n      mstore\n      dup1\n      swap3\n      swap2\n      swap1\n      dup2\n      dup2\n      mstore\n      0x20\n      add\n      dup3\n      dup1\n      sload\n      0x01\n      dup2\n      0x01\n      and\n      iszero\n      0x0100\n      mul\n      sub\n      and\n      0x02\n      swap1\n      div\n      dup1\n      iszero\n      tag_196\n      jumpi\n      dup1\n      0x1f\n      lt\n      tag_197\n      jumpi\n      0x0100\n      dup1\n      dup4\n      sload\n      div\n      mul\n      dup4\n      mstore\n      swap2\n      0x20\n      add\n      swap2\n      jump(tag_196)\n    tag_197:\n      dup3\n      add\n      swap2\n      swap1\n      0x00\n      mstore\n      keccak256(0x00, 0x20)\n      swap1\n    tag_198:\n      dup2\n      sload\n      dup2\n      mstore\n      swap1\n      0x01\n      add\n      swap1\n      0x20\n      add\n      dup1\n      dup4\n      gt\n      tag_198\n      jumpi\n      dup3\n      swap1\n      sub\n      0x1f\n      and\n      dup3\n      add\n      swap2\n    tag_196:\n      pop\n      pop\n      pop\n      pop\n      pop\n      dup2\n      jump\t// out\n        /* \"contracts/Owned.sol\":135:164  address public nominatedOwner */\n    tag_70:\n      0x01\n      0x00\n      swap1\n      sload\n      swap1\n      0x0100\n      exp\n      swap1\n      div\n      0xffffffffffffffffffffffffffffffffffffffff\n      and\n      dup2\n      jump\t// out\n        /* \"contracts/BandOracleReader.sol\":1838:2286  function latestRound() external view returns (uint256) {... */\n    tag_75:\n        /* \"contracts/BandOracleReader.sol\":1884:1891  uint256 */\n      0x00\n        /* \"contracts/BandOracleReader.sol\":2073:2112  IStdReference.ReferenceData memory data */\n      tag_200\n      tag_201\n      jump\t// in\n    tag_200:\n        /* \"contracts/BandOracleReader.sol\":2115:2125  bandOracle */\n      0x02\n      0x00\n      swap1\n      sload\n      swap1\n      0x0100\n      exp\n      swap1\n      div\n      0xffffffffffffffffffffffffffffffffffffffff\n      and\n        /* \"contracts/BandOracleReader.sol\":2115:2142  bandOracle.getReferenceData */\n      0xffffffffffffffffffffffffffffffffffffffff\n      and\n      0x65555bcc\n        /* \"contracts/BandOracleReader.sol\":2143:2147  base */\n      0x03\n        /* \"contracts/BandOracleReader.sol\":2149:2154  quote */\n      0x04\n        /* \"contracts/BandOracleReader.sol\":2115:2155  bandOracle.getReferenceData(base, quote) */\n      mload(0x40)\n      dup4\n      0xffffffff\n      and\n      0xe0\n      shl\n      dup2\n      mstore\n      0x04\n      add\n      tag_202\n      swap3\n      swap2\n      swap1\n      jump(tag_203)\n    tag_202:\n      0x60\n      mload(0x40)\n      dup1\n      dup4\n      sub\n      dup2\n      dup7\n      dup1\n      extcodesize\n      iszero\n        /* \"--CODEGEN--\":8:17   */\n      dup1\n        /* \"--CODEGEN--\":5:7   */\n      iszero\n      tag_204\n      jumpi\n        /* \"--CODEGEN--\":30:31   */\n      0x00\n        /* \"--CODEGEN--\":27:28   */\n      dup1\n        /* \"--CODEGEN--\":20:32   */\n      revert\n        /* \"--CODEGEN--\":5:7   */\n    tag_204:\n        /* \"contracts/BandOracleReader.sol\":2115:2155  bandOracle.getReferenceData(base, quote) */\n      pop\n      gas\n      staticcall\n      iszero\n        /* \"--CODEGEN--\":8:17   */\n      dup1\n        /* \"--CODEGEN--\":5:7   */\n      iszero\n      tag_205\n      jumpi\n        /* \"--CODEGEN--\":45:61   */\n      returndatasize\n        /* \"--CODEGEN--\":42:43   */\n      0x00\n        /* \"--CODEGEN--\":39:40   */\n      dup1\n        /* \"--CODEGEN--\":24:62   */\n      returndatacopy\n        /* \"--CODEGEN--\":77:93   */\n      returndatasize\n        /* \"--CODEGEN--\":74:75   */\n      0x00\n        /* \"--CODEGEN--\":67:94   */\n      revert\n        /* \"--CODEGEN--\":5:7   */\n    tag_205:\n        /* \"contracts/BandOracleReader.sol\":2115:2155  bandOracle.getReferenceData(base, quote) */\n      pop\n      pop\n      pop\n      pop\n      mload(0x40)\n      returndatasize\n        /* \"--CODEGEN--\":101:105   */\n      0x1f\n        /* \"--CODEGEN--\":97:106   */\n      not\n        /* \"--CODEGEN--\":90:94   */\n      0x1f\n        /* \"--CODEGEN--\":84:88   */\n      dup3\n        /* \"--CODEGEN--\":80:95   */\n      add\n        /* \"--CODEGEN--\":76:107   */\n      and\n        /* \"--CODEGEN--\":69:74   */\n      dup3\n        /* \"--CODEGEN--\":65:108   */\n      add\n        /* \"--CODEGEN--\":126:132   */\n      dup1\n        /* \"--CODEGEN--\":120:124   */\n      0x40\n        /* \"--CODEGEN--\":113:133   */\n      mstore\n        /* \"--CODEGEN--\":0:138   */\n      pop\n        /* \"contracts/BandOracleReader.sol\":2115:2155  bandOracle.getReferenceData(base, quote) */\n      tag_206\n      swap2\n      swap1\n      dup2\n      add\n      swap1\n      jump(tag_207)\n    tag_206:\n        /* \"contracts/BandOracleReader.sol\":2073:2155  IStdReference.ReferenceData memory data = bandOracle.getReferenceData(base, quote) */\n      swap1\n      pop\n        /* \"contracts/BandOracleReader.sol\":2193:2194  0 */\n      0x00\n        /* \"contracts/BandOracleReader.sol\":2169:2173  data */\n      dup2\n        /* \"contracts/BandOracleReader.sol\":2169:2189  data.lastUpdatedBase */\n      0x20\n      add\n      mload\n        /* \"contracts/BandOracleReader.sol\":2169:2194  data.lastUpdatedBase != 0 */\n      eq\n        /* \"contracts/BandOracleReader.sol\":2165:2248  if (data.lastUpdatedBase != 0) {... */\n      tag_208\n      jumpi\n        /* \"contracts/BandOracleReader.sol\":2217:2221  data */\n      dup1\n        /* \"contracts/BandOracleReader.sol\":2217:2237  data.lastUpdatedBase */\n      0x20\n      add\n      mload\n        /* \"contracts/BandOracleReader.sol\":2210:2237  return data.lastUpdatedBase */\n      swap2\n      pop\n      pop\n      jump(tag_199)\n        /* \"contracts/BandOracleReader.sol\":2165:2248  if (data.lastUpdatedBase != 0) {... */\n    tag_208:\n        /* \"contracts/BandOracleReader.sol\":2264:2279  block.timestamp */\n      timestamp\n        /* \"contracts/BandOracleReader.sol\":2257:2279  return block.timestamp */\n      swap2\n      pop\n      pop\n        /* \"contracts/BandOracleReader.sol\":1838:2286  function latestRound() external view returns (uint256) {... */\n    tag_199:\n      swap1\n      jump\t// out\n        /* \"contracts/BandOracleReader.sol\":1700:1788  function setUpdateFee(uint256 _fee) external onlyOwner {... */\n    tag_82:\n        /* \"contracts/Owned.sol\":803:815  _onlyOwner() */\n      tag_210\n        /* \"contracts/Owned.sol\":803:813  _onlyOwner */\n      tag_175\n        /* \"contracts/Owned.sol\":803:815  _onlyOwner() */\n      jump\t// in\n    tag_210:\n        /* \"contracts/BandOracleReader.sol\":1777:1781  _fee */\n      dup1\n        /* \"contracts/BandOracleReader.sol\":1765:1774  updateFee */\n      0x06\n        /* \"contracts/BandOracleReader.sol\":1765:1781  updateFee = _fee */\n      dup2\n      swap1\n      sstore\n      pop\n        /* \"contracts/BandOracleReader.sol\":1700:1788  function setUpdateFee(uint256 _fee) external onlyOwner {... */\n      pop\n      jump\t// out\n        /* \"contracts/BandOracleReader.sol\":6112:6345  function getEmaPriceNoOlderThan(... */\n    tag_87:\n        /* \"contracts/BandOracleReader.sol\":6256:6280  PythStructs.Price memory */\n      tag_212\n      tag_180\n      jump\t// in\n    tag_212:\n        /* \"contracts/BandOracleReader.sol\":6322:6337  NOT_IMPLEMENTED */\n      mload(0x40)\n      dup1\n      0x40\n      add\n      0x40\n      mstore\n      dup1\n      0x0f\n      dup2\n      mstore\n      0x20\n      add\n      0x4e4f545f494d504c454d454e5445440000000000000000000000000000000000\n      dup2\n      mstore\n      pop\n        /* \"contracts/BandOracleReader.sol\":6315:6338  revert(NOT_IMPLEMENTED) */\n      mload(0x40)\n      0x08c379a000000000000000000000000000000000000000000000000000000000\n      dup2\n      mstore\n      0x04\n      add\n      tag_214\n      swap2\n      swap1\n      jump(tag_67)\n    tag_214:\n      mload(0x40)\n      dup1\n      swap2\n      sub\n      swap1\n      revert\n        /* \"contracts/BandOracleReader.sol\":685:709  uint256 public updateFee */\n    tag_91:\n      sload(0x06)\n      dup2\n      jump\t// out\n        /* \"contracts/Owned.sol\":502:768  function acceptOwnership() external {... */\n    tag_95:\n        /* \"contracts/Owned.sol\":570:584  nominatedOwner */\n      0x01\n      0x00\n      swap1\n      sload\n      swap1\n      0x0100\n      exp\n      swap1\n      div\n      0xffffffffffffffffffffffffffffffffffffffff\n      and\n        /* \"contracts/Owned.sol\":556:584  msg.sender == nominatedOwner */\n      0xffffffffffffffffffffffffffffffffffffffff\n      and\n        /* \"contracts/Owned.sol\":556:566  msg.sender */\n      caller\n        /* \"contracts/Owned.sol\":556:584  msg.sender == nominatedOwner */\n      0xffffffffffffffffffffffffffffffffffffffff\n      and\n      eq\n        /* \"contracts/Owned.sol\":548:642  require(msg.sender == nominatedOwner, \"You must be nominated before you can accept ownership\") */\n      tag_216\n      jumpi\n      mload(0x40)\n      0x08c379a000000000000000000000000000000000000000000000000000000000\n      dup2\n      mstore\n      0x04\n      add\n      tag_217\n      swap1\n      jump(tag_218)\n    tag_217:\n      mload(0x40)\n      dup1\n      swap2\n      sub\n      swap1\n      revert\n    tag_216:\n        /* \"contracts/Owned.sol\":657:692  OwnerChanged(owner, nominatedOwner) */\n      0xb532073b38c83145e3e5135377a08bf9aab55bc0fd7c1179cd4fb995d2a5159c\n        /* \"contracts/Owned.sol\":670:675  owner */\n      0x00\n      dup1\n      swap1\n      sload\n      swap1\n      0x0100\n      exp\n      swap1\n      div\n      0xffffffffffffffffffffffffffffffffffffffff\n      and\n        /* \"contracts/Owned.sol\":677:691  nominatedOwner */\n      0x01\n      0x00\n      swap1\n      sload\n      swap1\n      0x0100\n      exp\n      swap1\n      div\n      0xffffffffffffffffffffffffffffffffffffffff\n      and\n        /* \"contracts/Owned.sol\":657:692  OwnerChanged(owner, nominatedOwner) */\n      mload(0x40)\n      tag_219\n      swap3\n      swap2\n      swap1\n      jump(tag_220)\n    tag_219:\n      mload(0x40)\n      dup1\n      swap2\n      sub\n      swap1\n      log1\n        /* \"contracts/Owned.sol\":710:724  nominatedOwner */\n      0x01\n      0x00\n      swap1\n      sload\n      swap1\n      0x0100\n      exp\n      swap1\n      div\n      0xffffffffffffffffffffffffffffffffffffffff\n      and\n        /* \"contracts/Owned.sol\":702:707  owner */\n      0x00\n      dup1\n        /* \"contracts/Owned.sol\":702:724  owner = nominatedOwner */\n      0x0100\n      exp\n      dup2\n      sload\n      dup2\n      0xffffffffffffffffffffffffffffffffffffffff\n      mul\n      not\n      and\n      swap1\n      dup4\n      0xffffffffffffffffffffffffffffffffffffffff\n      and\n      mul\n      or\n      swap1\n      sstore\n      pop\n        /* \"contracts/Owned.sol\":759:760  0 */\n      0x00\n        /* \"contracts/Owned.sol\":734:748  nominatedOwner */\n      0x01\n      0x00\n        /* \"contracts/Owned.sol\":734:761  nominatedOwner = address(0) */\n      0x0100\n      exp\n      dup2\n      sload\n      dup2\n      0xffffffffffffffffffffffffffffffffffffffff\n      mul\n      not\n      and\n      swap1\n      dup4\n      0xffffffffffffffffffffffffffffffffffffffff\n      and\n      mul\n      or\n      swap1\n      sstore\n      pop\n        /* \"contracts/Owned.sol\":502:768  function acceptOwnership() external {... */\n      jump\t// out\n        /* \"contracts/Owned.sol\":109:129  address public owner */\n    tag_98:\n      0x00\n      dup1\n      swap1\n      sload\n      swap1\n      0x0100\n      exp\n      swap1\n      div\n      0xffffffffffffffffffffffffffffffffffffffff\n      and\n      dup2\n      jump\t// out\n        /* \"contracts/BandOracleReader.sol\":5900:6106  function getEmaPriceUnsafe(... */\n    tag_103:\n        /* \"contracts/BandOracleReader.sol\":6017:6041  PythStructs.Price memory */\n      tag_221\n      tag_180\n      jump\t// in\n    tag_221:\n        /* \"contracts/BandOracleReader.sol\":6083:6098  NOT_IMPLEMENTED */\n      mload(0x40)\n      dup1\n      0x40\n      add\n      0x40\n      mstore\n      dup1\n      0x0f\n      dup2\n      mstore\n      0x20\n      add\n      0x4e4f545f494d504c454d454e5445440000000000000000000000000000000000\n      dup2\n      mstore\n      pop\n        /* \"contracts/BandOracleReader.sol\":6076:6099  revert(NOT_IMPLEMENTED) */\n      mload(0x40)\n      0x08c379a000000000000000000000000000000000000000000000000000000000\n      dup2\n      mstore\n      0x04\n      add\n      tag_223\n      swap2\n      swap1\n      jump(tag_67)\n    tag_223:\n      mload(0x40)\n      dup1\n      swap2\n      sub\n      swap1\n      revert\n        /* \"contracts/BandOracleReader.sol\":546:577  IStdReference public bandOracle */\n    tag_107:\n      0x02\n      0x00\n      swap1\n      sload\n      swap1\n      0x0100\n      exp\n      swap1\n      div\n      0xffffffffffffffffffffffffffffffffffffffff\n      and\n      dup2\n      jump\t// out\n        /* \"contracts/BandOracleReader.sol\":5460:5658  function getPriceUnsafe(... */\n    tag_113:\n        /* \"contracts/BandOracleReader.sol\":5574:5598  PythStructs.Price memory */\n      tag_224\n      tag_180\n      jump\t// in\n    tag_224:\n        /* \"contracts/BandOracleReader.sol\":5640:5651  _getPrice() */\n      tag_226\n        /* \"contracts/BandOracleReader.sol\":5640:5649  _getPrice */\n      tag_183\n        /* \"contracts/BandOracleReader.sol\":5640:5651  _getPrice() */\n      jump\t// in\n    tag_226:\n        /* \"contracts/BandOracleReader.sol\":5633:5651  return _getPrice() */\n      swap1\n      pop\n        /* \"contracts/BandOracleReader.sol\":5460:5658  function getPriceUnsafe(... */\n      swap2\n      swap1\n      pop\n      jump\t// out\n        /* \"contracts/BandOracleReader.sol\":607:626  string public quote */\n    tag_117:\n      0x04\n      dup1\n      sload\n      0x01\n      dup2\n      0x01\n      and\n      iszero\n      0x0100\n      mul\n      sub\n      and\n      0x02\n      swap1\n      div\n      dup1\n      0x1f\n      add\n      0x20\n      dup1\n      swap2\n      div\n      mul\n      0x20\n      add\n      mload(0x40)\n      swap1\n      dup2\n      add\n      0x40\n      mstore\n      dup1\n      swap3\n      swap2\n      swap1\n      dup2\n      dup2\n      mstore\n      0x20\n      add\n      dup3\n      dup1\n      sload\n      0x01\n      dup2\n      0x01\n      and\n      iszero\n      0x0100\n      mul\n      sub\n      and\n      0x02\n      swap1\n      div\n      dup1\n      iszero\n      tag_227\n      jumpi\n      dup1\n      0x1f\n      lt\n      tag_228\n      jumpi\n      0x0100\n      dup1\n      dup4\n      sload\n      div\n      mul\n      dup4\n      mstore\n      swap2\n      0x20\n      add\n      swap2\n      jump(tag_227)\n    tag_228:\n      dup3\n      add\n      swap2\n      swap1\n      0x00\n      mstore\n      keccak256(0x00, 0x20)\n      swap1\n    tag_229:\n      dup2\n      sload\n      dup2\n      mstore\n      swap1\n      0x01\n      add\n      swap1\n      0x20\n      add\n      dup1\n      dup4\n      gt\n      tag_229\n      jumpi\n      dup3\n      swap1\n      sub\n      0x1f\n      and\n      dup3\n      add\n      swap2\n    tag_227:\n      pop\n      pop\n      pop\n      pop\n      pop\n      dup2\n      jump\t// out\n        /* \"contracts/BandOracleReader.sol\":2780:3591  function getRoundData(uint80 _roundId)... */\n    tag_123:\n        /* \"contracts/BandOracleReader.sol\":2879:2885  uint80 */\n      0x00\n        /* \"contracts/BandOracleReader.sol\":2911:2917  int256 */\n      dup1\n        /* \"contracts/BandOracleReader.sol\":2942:2949  uint256 */\n      0x00\n        /* \"contracts/BandOracleReader.sol\":2977:2984  uint256 */\n      dup1\n        /* \"contracts/BandOracleReader.sol\":3012:3018  uint80 */\n      0x00\n        /* \"contracts/BandOracleReader.sol\":3332:3347  block.timestamp */\n      timestamp\n        /* \"contracts/BandOracleReader.sol\":3319:3327  _roundId */\n      dup7\n        /* \"contracts/BandOracleReader.sol\":3311:3328  uint256(_roundId) */\n      0xffffffffffffffffffff\n      and\n        /* \"contracts/BandOracleReader.sol\":3311:3347  uint256(_roundId) == block.timestamp */\n      eq\n        /* \"contracts/BandOracleReader.sol\":3307:3399  if (uint256(_roundId) == block.timestamp) {... */\n      iszero\n      tag_231\n      jumpi\n        /* \"contracts/BandOracleReader.sol\":3370:3388  _latestRoundData() */\n      tag_232\n        /* \"contracts/BandOracleReader.sol\":3370:3386  _latestRoundData */\n      tag_233\n        /* \"contracts/BandOracleReader.sol\":3370:3388  _latestRoundData() */\n      jump\t// in\n    tag_232:\n        /* \"contracts/BandOracleReader.sol\":3363:3388  return _latestRoundData() */\n      swap5\n      pop\n      swap5\n      pop\n      swap5\n      pop\n      swap5\n      pop\n      swap5\n      pop\n      jump(tag_230)\n        /* \"contracts/BandOracleReader.sol\":3307:3399  if (uint256(_roundId) == block.timestamp) {... */\n    tag_231:\n        /* \"contracts/BandOracleReader.sol\":3408:3419  int256 data */\n      0x00\n        /* \"contracts/BandOracleReader.sol\":3422:3431  roundData */\n      0x05\n        /* \"contracts/BandOracleReader.sol\":3422:3450  roundData[uint256(_roundId)] */\n      0x00\n        /* \"contracts/BandOracleReader.sol\":3440:3448  _roundId */\n      dup9\n        /* \"contracts/BandOracleReader.sol\":3432:3449  uint256(_roundId) */\n      0xffffffffffffffffffff\n      and\n        /* \"contracts/BandOracleReader.sol\":3422:3450  roundData[uint256(_roundId)] */\n      dup2\n      mstore\n      0x20\n      add\n      swap1\n      dup2\n      mstore\n      0x20\n      add\n      0x00\n      keccak256\n      sload\n        /* \"contracts/BandOracleReader.sol\":3408:3450  int256 data = roundData[uint256(_roundId)] */\n      swap1\n      pop\n        /* \"contracts/BandOracleReader.sol\":3472:3473  0 */\n      0x00\n        /* \"contracts/BandOracleReader.sol\":3464:3468  data */\n      dup2\n        /* \"contracts/BandOracleReader.sol\":3464:3473  data != 0 */\n      eq\n        /* \"contracts/BandOracleReader.sol\":3460:3553  if (data != 0) {... */\n      tag_234\n      jumpi\n        /* \"contracts/BandOracleReader.sol\":3497:3505  _roundId */\n      dup7\n        /* \"contracts/BandOracleReader.sol\":3507:3511  data */\n      dup2\n        /* \"contracts/BandOracleReader.sol\":3513:3521  _roundId */\n      dup9\n        /* \"contracts/BandOracleReader.sol\":3523:3531  _roundId */\n      dup10\n        /* \"contracts/BandOracleReader.sol\":3533:3541  _roundId */\n      dup11\n        /* \"contracts/BandOracleReader.sol\":3489:3542  return (_roundId, data, _roundId, _roundId, _roundId) */\n      dup3\n      0xffffffffffffffffffff\n      and\n      swap3\n      pop\n      dup2\n      0xffffffffffffffffffff\n      and\n      swap2\n      pop\n      swap6\n      pop\n      swap6\n      pop\n      swap6\n      pop\n      swap6\n      pop\n      swap6\n      pop\n      pop\n      jump(tag_230)\n        /* \"contracts/BandOracleReader.sol\":3460:3553  if (data != 0) {... */\n    tag_234:\n        /* \"contracts/BandOracleReader.sol\":3570:3571  0 */\n      0x00\n        /* \"contracts/BandOracleReader.sol\":3573:3574  0 */\n      dup1\n        /* \"contracts/BandOracleReader.sol\":3576:3577  0 */\n      0x00\n        /* \"contracts/BandOracleReader.sol\":3579:3580  0 */\n      dup1\n        /* \"contracts/BandOracleReader.sol\":3582:3583  0 */\n      0x00\n        /* \"contracts/BandOracleReader.sol\":3562:3584  return (0, 0, 0, 0, 0) */\n      dup5\n      swap5\n      pop\n      dup4\n      swap4\n      pop\n      dup3\n      swap3\n      pop\n      dup2\n      swap2\n      pop\n      dup1\n      swap1\n      pop\n      swap6\n      pop\n      swap6\n      pop\n      swap6\n      pop\n      swap6\n      pop\n      swap6\n      pop\n      pop\n        /* \"contracts/BandOracleReader.sol\":2780:3591  function getRoundData(uint80 _roundId)... */\n    tag_230:\n      swap2\n      swap4\n      swap6\n      swap1\n      swap3\n      swap5\n      pop\n      jump\t// out\n        /* \"contracts/BandOracleReader.sol\":5664:5894  function getPriceNoOlderThan(... */\n    tag_129:\n        /* \"contracts/BandOracleReader.sol\":5805:5829  PythStructs.Price memory */\n      tag_235\n      tag_180\n      jump\t// in\n    tag_235:\n        /* \"contracts/BandOracleReader.sol\":5871:5886  NOT_IMPLEMENTED */\n      mload(0x40)\n      dup1\n      0x40\n      add\n      0x40\n      mstore\n      dup1\n      0x0f\n      dup2\n      mstore\n      0x20\n      add\n      0x4e4f545f494d504c454d454e5445440000000000000000000000000000000000\n      dup2\n      mstore\n      pop\n        /* \"contracts/BandOracleReader.sol\":5864:5887  revert(NOT_IMPLEMENTED) */\n      mload(0x40)\n      0x08c379a000000000000000000000000000000000000000000000000000000000\n      dup2\n      mstore\n      0x04\n      add\n      tag_237\n      swap2\n      swap1\n      jump(tag_67)\n    tag_237:\n      mload(0x40)\n      dup1\n      swap2\n      sub\n      swap1\n      revert\n        /* \"contracts/BandOracleReader.sol\":2514:2639  function getAnswer(... */\n    tag_134:\n        /* \"contracts/BandOracleReader.sol\":2591:2597  int256 */\n      0x00\n        /* \"contracts/BandOracleReader.sol\":2616:2631  NOT_IMPLEMENTED */\n      mload(0x40)\n      dup1\n      0x40\n      add\n      0x40\n      mstore\n      dup1\n      0x0f\n      dup2\n      mstore\n      0x20\n      add\n      0x4e4f545f494d504c454d454e5445440000000000000000000000000000000000\n      dup2\n      mstore\n      pop\n        /* \"contracts/BandOracleReader.sol\":2609:2632  revert(NOT_IMPLEMENTED) */\n      mload(0x40)\n      0x08c379a000000000000000000000000000000000000000000000000000000000\n      dup2\n      mstore\n      0x04\n      add\n      tag_239\n      swap2\n      swap1\n      jump(tag_67)\n    tag_239:\n      mload(0x40)\n      dup1\n      swap2\n      sub\n      swap1\n      revert\n        /* \"contracts/BandOracleReader.sol\":5254:5454  function getEmaPrice(... */\n    tag_140:\n        /* \"contracts/BandOracleReader.sol\":5365:5389  PythStructs.Price memory */\n      tag_240\n      tag_180\n      jump\t// in\n    tag_240:\n        /* \"contracts/BandOracleReader.sol\":5431:5446  NOT_IMPLEMENTED */\n      mload(0x40)\n      dup1\n      0x40\n      add\n      0x40\n      mstore\n      dup1\n      0x0f\n      dup2\n      mstore\n      0x20\n      add\n      0x4e4f545f494d504c454d454e5445440000000000000000000000000000000000\n      dup2\n      mstore\n      pop\n        /* \"contracts/BandOracleReader.sol\":5424:5447  revert(NOT_IMPLEMENTED) */\n      mload(0x40)\n      0x08c379a000000000000000000000000000000000000000000000000000000000\n      dup2\n      mstore\n      0x04\n      add\n      tag_242\n      swap2\n      swap1\n      jump(tag_67)\n    tag_242:\n      mload(0x40)\n      dup1\n      swap2\n      sub\n      swap1\n      revert\n        /* \"contracts/BandOracleReader.sol\":2645:2774  function getTimestamp(... */\n    tag_145:\n        /* \"contracts/BandOracleReader.sol\":2725:2732  uint256 */\n      0x00\n        /* \"contracts/BandOracleReader.sol\":2751:2766  NOT_IMPLEMENTED */\n      mload(0x40)\n      dup1\n      0x40\n      add\n      0x40\n      mstore\n      dup1\n      0x0f\n      dup2\n      mstore\n      0x20\n      add\n      0x4e4f545f494d504c454d454e5445440000000000000000000000000000000000\n      dup2\n      mstore\n      pop\n        /* \"contracts/BandOracleReader.sol\":2744:2767  revert(NOT_IMPLEMENTED) */\n      mload(0x40)\n      0x08c379a000000000000000000000000000000000000000000000000000000000\n      dup2\n      mstore\n      0x04\n      add\n      tag_244\n      swap2\n      swap1\n      jump(tag_67)\n    tag_244:\n      mload(0x40)\n      dup1\n      swap2\n      sub\n      swap1\n      revert\n        /* \"contracts/BandOracleReader.sol\":6470:6679  function updatePriceFeedsIfNecessary(... */\n    tag_150:\n      pop\n      pop\n      pop\n      pop\n      pop\n      pop\n      jump\t// out\n        /* \"contracts/BandOracleReader.sol\":6685:6813  function getUpdateFee(bytes[] calldata updateData) external view returns (uint feeAmount) {... */\n    tag_155:\n        /* \"contracts/BandOracleReader.sol\":6759:6773  uint feeAmount */\n      0x00\n        /* \"contracts/BandOracleReader.sol\":6797:6806  updateFee */\n      sload(0x06)\n        /* \"contracts/BandOracleReader.sol\":6785:6806  feeAmount = updateFee */\n      swap1\n      pop\n        /* \"contracts/BandOracleReader.sol\":6685:6813  function getUpdateFee(bytes[] calldata updateData) external view returns (uint feeAmount) {... */\n      swap3\n      swap2\n      pop\n      pop\n      jump\t// out\n        /* \"contracts/BandOracleReader.sol\":1102:1499  function pullDataAndCache() public returns (RateAtRound memory) {... */\n    tag_159:\n        /* \"contracts/BandOracleReader.sol\":1146:1164  RateAtRound memory */\n      tag_247\n      tag_248\n      jump\t// in\n    tag_247:\n        /* \"contracts/BandOracleReader.sol\":1176:1215  IStdReference.ReferenceData memory data */\n      tag_250\n      tag_201\n      jump\t// in\n    tag_250:\n        /* \"contracts/BandOracleReader.sol\":1218:1228  bandOracle */\n      0x02\n      0x00\n      swap1\n      sload\n      swap1\n      0x0100\n      exp\n      swap1\n      div\n      0xffffffffffffffffffffffffffffffffffffffff\n      and\n        /* \"contracts/BandOracleReader.sol\":1218:1245  bandOracle.getReferenceData */\n      0xffffffffffffffffffffffffffffffffffffffff\n      and\n      0x65555bcc\n        /* \"contracts/BandOracleReader.sol\":1246:1250  base */\n      0x03\n        /* \"contracts/BandOracleReader.sol\":1252:1257  quote */\n      0x04\n        /* \"contracts/BandOracleReader.sol\":1218:1258  bandOracle.getReferenceData(base, quote) */\n      mload(0x40)\n      dup4\n      0xffffffff\n      and\n      0xe0\n      shl\n      dup2\n      mstore\n      0x04\n      add\n      tag_251\n      swap3\n      swap2\n      swap1\n      jump(tag_203)\n    tag_251:\n      0x60\n      mload(0x40)\n      dup1\n      dup4\n      sub\n      dup2\n      dup7\n      dup1\n      extcodesize\n      iszero\n        /* \"--CODEGEN--\":8:17   */\n      dup1\n        /* \"--CODEGEN--\":5:7   */\n      iszero\n      tag_252\n      jumpi\n        /* \"--CODEGEN--\":30:31   */\n      0x00\n        /* \"--CODEGEN--\":27:28   */\n      dup1\n        /* \"--CODEGEN--\":20:32   */\n      revert\n        /* \"--CODEGEN--\":5:7   */\n    tag_252:\n        /* \"contracts/BandOracleReader.sol\":1218:1258  bandOracle.getReferenceData(base, quote) */\n      pop\n      gas\n      staticcall\n      iszero\n        /* \"--CODEGEN--\":8:17   */\n      dup1\n        /* \"--CODEGEN--\":5:7   */\n      iszero\n      tag_253\n      jumpi\n        /* \"--CODEGEN--\":45:61   */\n      returndatasize\n        /* \"--CODEGEN--\":42:43   */\n      0x00\n        /* \"--CODEGEN--\":39:40   */\n      dup1\n        /* \"--CODEGEN--\":24:62   */\n      returndatacopy\n        /* \"--CODEGEN--\":77:93   */\n      returndatasize\n        /* \"--CODEGEN--\":74:75   */\n      0x00\n        /* \"--CODEGEN--\":67:94   */\n      revert\n        /* \"--CODEGEN--\":5:7   */\n    tag_253:\n        /* \"contracts/BandOracleReader.sol\":1218:1258  bandOracle.getReferenceData(base, quote) */\n      pop\n      pop\n      pop\n      pop\n      mload(0x40)\n      returndatasize\n        /* \"--CODEGEN--\":101:105   */\n      0x1f\n        /* \"--CODEGEN--\":97:106   */\n      not\n        /* \"--CODEGEN--\":90:94   */\n      0x1f\n        /* \"--CODEGEN--\":84:88   */\n      dup3\n        /* \"--CODEGEN--\":80:95   */\n      add\n        /* \"--CODEGEN--\":76:107   */\n      and\n        /* \"--CODEGEN--\":69:74   */\n      dup3\n        /* \"--CODEGEN--\":65:108   */\n      add\n        /* \"--CODEGEN--\":126:132   */\n      dup1\n        /* \"--CODEGEN--\":120:124   */\n      0x40\n        /* \"--CODEGEN--\":113:133   */\n      mstore\n        /* \"--CODEGEN--\":0:138   */\n      pop\n        /* \"contracts/BandOracleReader.sol\":1218:1258  bandOracle.getReferenceData(base, quote) */\n      tag_254\n      swap2\n      swap1\n      dup2\n      add\n      swap1\n      jump(tag_207)\n    tag_254:\n        /* \"contracts/BandOracleReader.sol\":1176:1258  IStdReference.ReferenceData memory data = bandOracle.getReferenceData(base, quote) */\n      swap1\n      pop\n        /* \"contracts/BandOracleReader.sol\":1268:1281  uint256 round */\n      0x00\n        /* \"contracts/BandOracleReader.sol\":1284:1299  block.timestamp */\n      timestamp\n        /* \"contracts/BandOracleReader.sol\":1268:1299  uint256 round = block.timestamp */\n      swap1\n      pop\n        /* \"contracts/BandOracleReader.sol\":1337:1338  0 */\n      0x00\n        /* \"contracts/BandOracleReader.sol\":1313:1317  data */\n      dup3\n        /* \"contracts/BandOracleReader.sol\":1313:1333  data.lastUpdatedBase */\n      0x20\n      add\n      mload\n        /* \"contracts/BandOracleReader.sol\":1313:1338  data.lastUpdatedBase != 0 */\n      eq\n        /* \"contracts/BandOracleReader.sol\":1309:1393  if (data.lastUpdatedBase != 0) {... */\n      tag_255\n      jumpi\n        /* \"contracts/BandOracleReader.sol\":1362:1366  data */\n      dup2\n        /* \"contracts/BandOracleReader.sol\":1362:1382  data.lastUpdatedBase */\n      0x20\n      add\n      mload\n        /* \"contracts/BandOracleReader.sol\":1354:1382  round = data.lastUpdatedBase */\n      swap1\n      pop\n        /* \"contracts/BandOracleReader.sol\":1309:1393  if (data.lastUpdatedBase != 0) {... */\n    tag_255:\n        /* \"contracts/BandOracleReader.sol\":1428:1432  data */\n      dup2\n        /* \"contracts/BandOracleReader.sol\":1428:1437  data.rate */\n      0x00\n      add\n      mload\n        /* \"contracts/BandOracleReader.sol\":1402:1411  roundData */\n      0x05\n        /* \"contracts/BandOracleReader.sol\":1402:1418  roundData[round] */\n      0x00\n        /* \"contracts/BandOracleReader.sol\":1412:1417  round */\n      dup4\n        /* \"contracts/BandOracleReader.sol\":1402:1418  roundData[round] */\n      dup2\n      mstore\n      0x20\n      add\n      swap1\n      dup2\n      mstore\n      0x20\n      add\n      0x00\n      keccak256\n        /* \"contracts/BandOracleReader.sol\":1402:1438  roundData[round] = int256(data.rate) */\n      dup2\n      swap1\n      sstore\n      pop\n        /* \"contracts/BandOracleReader.sol\":1455:1492  RateAtRound(int256(data.rate), round) */\n      mload(0x40)\n      dup1\n      0x40\n      add\n      0x40\n      mstore\n      dup1\n        /* \"contracts/BandOracleReader.sol\":1474:1478  data */\n      dup4\n        /* \"contracts/BandOracleReader.sol\":1474:1483  data.rate */\n      0x00\n      add\n      mload\n        /* \"contracts/BandOracleReader.sol\":1455:1492  RateAtRound(int256(data.rate), round) */\n      dup2\n      mstore\n      0x20\n      add\n        /* \"contracts/BandOracleReader.sol\":1486:1491  round */\n      dup3\n        /* \"contracts/BandOracleReader.sol\":1455:1492  RateAtRound(int256(data.rate), round) */\n      dup2\n      mstore\n      pop\n        /* \"contracts/BandOracleReader.sol\":1448:1492  return RateAtRound(int256(data.rate), round) */\n      swap3\n      pop\n      pop\n      pop\n        /* \"contracts/BandOracleReader.sol\":1102:1499  function pullDataAndCache() public returns (RateAtRound memory) {... */\n      swap1\n      jump\t// out\n        /* \"contracts/BandOracleReader.sol\":4881:5050  function getValidTimePeriod()... */\n    tag_164:\n        /* \"contracts/BandOracleReader.sol\":4971:4975  uint */\n      0x00\n        /* \"contracts/BandOracleReader.sol\":5027:5042  NOT_IMPLEMENTED */\n      mload(0x40)\n      dup1\n      0x40\n      add\n      0x40\n      mstore\n      dup1\n      0x0f\n      dup2\n      mstore\n      0x20\n      add\n      0x4e4f545f494d504c454d454e5445440000000000000000000000000000000000\n      dup2\n      mstore\n      pop\n        /* \"contracts/BandOracleReader.sol\":5020:5043  revert(NOT_IMPLEMENTED) */\n      mload(0x40)\n      0x08c379a000000000000000000000000000000000000000000000000000000000\n      dup2\n      mstore\n      0x04\n      add\n      tag_257\n      swap2\n      swap1\n      jump(tag_67)\n    tag_257:\n      mload(0x40)\n      dup1\n      swap2\n      sub\n      swap1\n      revert\n        /* \"contracts/BandOracleReader.sol\":6351:6464  function updatePriceFeeds(... */\n    tag_168:\n      pop\n      pop\n      jump\t// out\n        /* \"contracts/BandOracleReader.sol\":3597:3900  function latestRoundData()... */\n    tag_171:\n        /* \"contracts/BandOracleReader.sol\":3684:3690  uint80 */\n      0x00\n        /* \"contracts/BandOracleReader.sol\":3716:3722  int256 */\n      dup1\n        /* \"contracts/BandOracleReader.sol\":3747:3754  uint256 */\n      0x00\n        /* \"contracts/BandOracleReader.sol\":3782:3789  uint256 */\n      dup1\n        /* \"contracts/BandOracleReader.sol\":3817:3823  uint80 */\n      0x00\n        /* \"contracts/BandOracleReader.sol\":3875:3893  _latestRoundData() */\n      tag_260\n        /* \"contracts/BandOracleReader.sol\":3875:3891  _latestRoundData */\n      tag_233\n        /* \"contracts/BandOracleReader.sol\":3875:3893  _latestRoundData() */\n      jump\t// in\n    tag_260:\n        /* \"contracts/BandOracleReader.sol\":3868:3893  return _latestRoundData() */\n      swap5\n      pop\n      swap5\n      pop\n      swap5\n      pop\n      swap5\n      pop\n      swap5\n      pop\n        /* \"contracts/BandOracleReader.sol\":3597:3900  function latestRoundData()... */\n      swap1\n      swap2\n      swap3\n      swap4\n      swap5\n      jump\t// out\n        /* \"contracts/Owned.sol\":839:970  function _onlyOwner() private view {... */\n    tag_175:\n        /* \"contracts/Owned.sol\":906:911  owner */\n      0x00\n      dup1\n      swap1\n      sload\n      swap1\n      0x0100\n      exp\n      swap1\n      div\n      0xffffffffffffffffffffffffffffffffffffffff\n      and\n        /* \"contracts/Owned.sol\":892:911  msg.sender == owner */\n      0xffffffffffffffffffffffffffffffffffffffff\n      and\n        /* \"contracts/Owned.sol\":892:902  msg.sender */\n      caller\n        /* \"contracts/Owned.sol\":892:911  msg.sender == owner */\n      0xffffffffffffffffffffffffffffffffffffffff\n      and\n      eq\n        /* \"contracts/Owned.sol\":884:963  require(msg.sender == owner, \"Only the contract owner may perform this action\") */\n      tag_262\n      jumpi\n      mload(0x40)\n      0x08c379a000000000000000000000000000000000000000000000000000000000\n      dup2\n      mstore\n      0x04\n      add\n      tag_263\n      swap1\n      jump(tag_264)\n    tag_263:\n      mload(0x40)\n      dup1\n      swap2\n      sub\n      swap1\n      revert\n    tag_262:\n        /* \"contracts/Owned.sol\":839:970  function _onlyOwner() private view {... */\n      jump\t// out\n        /* \"contracts/BandOracleReader.sol\":4583:4875  function _getPrice() internal view returns (PythStructs.Price memory price) {... */\n    tag_183:\n        /* \"contracts/BandOracleReader.sol\":4627:4657  PythStructs.Price memory price */\n      tag_265\n      tag_180\n      jump\t// in\n    tag_265:\n        /* \"contracts/BandOracleReader.sol\":4672:4683  int256 rate */\n      0x00\n        /* \"contracts/BandOracleReader.sol\":4685:4697  uint256 time */\n      dup1\n        /* \"contracts/BandOracleReader.sol\":4705:4723  _latestRoundData() */\n      tag_267\n        /* \"contracts/BandOracleReader.sol\":4705:4721  _latestRoundData */\n      tag_233\n        /* \"contracts/BandOracleReader.sol\":4705:4723  _latestRoundData() */\n      jump\t// in\n    tag_267:\n        /* \"contracts/BandOracleReader.sol\":4669:4723  (, int256 rate, uint256 time, , ) = _latestRoundData() */\n      pop\n      pop\n      swap3\n      pop\n      swap3\n      pop\n      pop\n        /* \"contracts/BandOracleReader.sol\":4753:4757  time */\n      dup1\n        /* \"contracts/BandOracleReader.sol\":4733:4738  price */\n      dup4\n        /* \"contracts/BandOracleReader.sol\":4733:4750  price.publishTime */\n      0x60\n      add\n        /* \"contracts/BandOracleReader.sol\":4733:4757  price.publishTime = time */\n      dup2\n      dup2\n      mstore\n      pop\n      pop\n        /* \"contracts/BandOracleReader.sol\":4780:4781  0 */\n      0x00\n        /* \"contracts/BandOracleReader.sol\":4767:4772  price */\n      dup4\n        /* \"contracts/BandOracleReader.sol\":4767:4777  price.conf */\n      0x20\n      add\n        /* \"contracts/BandOracleReader.sol\":4767:4781  price.conf = 0 */\n      swap1\n      0xffffffffffffffff\n      and\n      swap1\n      dup2\n      0xffffffffffffffff\n      and\n      dup2\n      mstore\n      pop\n      pop\n        /* \"contracts/BandOracleReader.sol\":4804:4805  9 */\n      0x09\n        /* \"contracts/BandOracleReader.sol\":4791:4796  price */\n      dup4\n        /* \"contracts/BandOracleReader.sol\":4791:4801  price.expo */\n      0x40\n      add\n        /* \"contracts/BandOracleReader.sol\":4791:4805  price.expo = 9 */\n      swap1\n      0x03\n      signextend\n      swap1\n      dup2\n      0x03\n      signextend\n      dup2\n      mstore\n      pop\n      pop\n        /* \"contracts/BandOracleReader.sol\":4842:4845  1e9 */\n      0x3b9aca00\n        /* \"contracts/BandOracleReader.sol\":4835:4839  rate */\n      dup3\n        /* \"contracts/BandOracleReader.sol\":4835:4845  rate / 1e9 */\n      dup2\n      tag_268\n      jumpi\n      invalid\n    tag_268:\n      sdiv\n        /* \"contracts/BandOracleReader.sol\":4815:4820  price */\n      dup4\n        /* \"contracts/BandOracleReader.sol\":4815:4826  price.price */\n      0x00\n      add\n        /* \"contracts/BandOracleReader.sol\":4815:4846  price.price = int64(rate / 1e9) */\n      swap1\n      0x07\n      signextend\n      swap1\n      dup2\n      0x07\n      signextend\n      dup2\n      mstore\n      pop\n      pop\n        /* \"contracts/BandOracleReader.sol\":4863:4868  price */\n      dup3\n        /* \"contracts/BandOracleReader.sol\":4856:4868  return price */\n      swap3\n      pop\n      pop\n      pop\n        /* \"contracts/BandOracleReader.sol\":4583:4875  function _getPrice() internal view returns (PythStructs.Price memory price) {... */\n      swap1\n      jump\t// out\n        /* \"contracts/BandOracleReader.sol\":3906:4481  function _latestRoundData()... */\n    tag_233:\n        /* \"contracts/BandOracleReader.sol\":3994:4000  uint80 */\n      0x00\n        /* \"contracts/BandOracleReader.sol\":4026:4032  int256 */\n      dup1\n        /* \"contracts/BandOracleReader.sol\":4057:4064  uint256 */\n      0x00\n        /* \"contracts/BandOracleReader.sol\":4092:4099  uint256 */\n      dup1\n        /* \"contracts/BandOracleReader.sol\":4127:4133  uint80 */\n      0x00\n        /* \"contracts/BandOracleReader.sol\":4178:4217  IStdReference.ReferenceData memory data */\n      tag_270\n      tag_201\n      jump\t// in\n    tag_270:\n        /* \"contracts/BandOracleReader.sol\":4220:4230  bandOracle */\n      0x02\n      0x00\n      swap1\n      sload\n      swap1\n      0x0100\n      exp\n      swap1\n      div\n      0xffffffffffffffffffffffffffffffffffffffff\n      and\n        /* \"contracts/BandOracleReader.sol\":4220:4247  bandOracle.getReferenceData */\n      0xffffffffffffffffffffffffffffffffffffffff\n      and\n      0x65555bcc\n        /* \"contracts/BandOracleReader.sol\":4248:4252  base */\n      0x03\n        /* \"contracts/BandOracleReader.sol\":4254:4259  quote */\n      0x04\n        /* \"contracts/BandOracleReader.sol\":4220:4260  bandOracle.getReferenceData(base, quote) */\n      mload(0x40)\n      dup4\n      0xffffffff\n      and\n      0xe0\n      shl\n      dup2\n      mstore\n      0x04\n      add\n      tag_271\n      swap3\n      swap2\n      swap1\n      jump(tag_203)\n    tag_271:\n      0x60\n      mload(0x40)\n      dup1\n      dup4\n      sub\n      dup2\n      dup7\n      dup1\n      extcodesize\n      iszero\n        /* \"--CODEGEN--\":8:17   */\n      dup1\n        /* \"--CODEGEN--\":5:7   */\n      iszero\n      tag_272\n      jumpi\n        /* \"--CODEGEN--\":30:31   */\n      0x00\n        /* \"--CODEGEN--\":27:28   */\n      dup1\n        /* \"--CODEGEN--\":20:32   */\n      revert\n        /* \"--CODEGEN--\":5:7   */\n    tag_272:\n        /* \"contracts/BandOracleReader.sol\":4220:4260  bandOracle.getReferenceData(base, quote) */\n      pop\n      gas\n      staticcall\n      iszero\n        /* \"--CODEGEN--\":8:17   */\n      dup1\n        /* \"--CODEGEN--\":5:7   */\n      iszero\n      tag_273\n      jumpi\n        /* \"--CODEGEN--\":45:61   */\n      returndatasize\n        /* \"--CODEGEN--\":42:43   */\n      0x00\n        /* \"--CODEGEN--\":39:40   */\n      dup1\n        /* \"--CODEGEN--\":24:62   */\n      returndatacopy\n        /* \"--CODEGEN--\":77:93   */\n      returndatasize\n        /* \"--CODEGEN--\":74:75   */\n      0x00\n        /* \"--CODEGEN--\":67:94   */\n      revert\n        /* \"--CODEGEN--\":5:7   */\n    tag_273:\n        /* \"contracts/BandOracleReader.sol\":4220:4260  bandOracle.getReferenceData(base, quote) */\n      pop\n      pop\n      pop\n      pop\n      mload(0x40)\n      returndatasize\n        /* \"--CODEGEN--\":101:105   */\n      0x1f\n        /* \"--CODEGEN--\":97:106   */\n      not\n        /* \"--CODEGEN--\":90:94   */\n      0x1f\n        /* \"--CODEGEN--\":84:88   */\n      dup3\n        /* \"--CODEGEN--\":80:95   */\n      add\n        /* \"--CODEGEN--\":76:107   */\n      and\n        /* \"--CODEGEN--\":69:74   */\n      dup3\n        /* \"--CODEGEN--\":65:108   */\n      add\n        /* \"--CODEGEN--\":126:132   */\n      dup1\n        /* \"--CODEGEN--\":120:124   */\n      0x40\n        /* \"--CODEGEN--\":113:133   */\n      mstore\n        /* \"--CODEGEN--\":0:138   */\n      pop\n        /* \"contracts/BandOracleReader.sol\":4220:4260  bandOracle.getReferenceData(base, quote) */\n      tag_274\n      swap2\n      swap1\n      dup2\n      add\n      swap1\n      jump(tag_207)\n    tag_274:\n        /* \"contracts/BandOracleReader.sol\":4178:4260  IStdReference.ReferenceData memory data = bandOracle.getReferenceData(base, quote) */\n      swap1\n      pop\n        /* \"contracts/BandOracleReader.sol\":4270:4283  uint256 round */\n      0x00\n        /* \"contracts/BandOracleReader.sol\":4286:4301  block.timestamp */\n      timestamp\n        /* \"contracts/BandOracleReader.sol\":4270:4301  uint256 round = block.timestamp */\n      swap1\n      pop\n        /* \"contracts/BandOracleReader.sol\":4339:4340  0 */\n      0x00\n        /* \"contracts/BandOracleReader.sol\":4315:4319  data */\n      dup3\n        /* \"contracts/BandOracleReader.sol\":4315:4335  data.lastUpdatedBase */\n      0x20\n      add\n      mload\n        /* \"contracts/BandOracleReader.sol\":4315:4340  data.lastUpdatedBase != 0 */\n      eq\n        /* \"contracts/BandOracleReader.sol\":4311:4395  if (data.lastUpdatedBase != 0) {... */\n      tag_275\n      jumpi\n        /* \"contracts/BandOracleReader.sol\":4364:4368  data */\n      dup2\n        /* \"contracts/BandOracleReader.sol\":4364:4384  data.lastUpdatedBase */\n      0x20\n      add\n      mload\n        /* \"contracts/BandOracleReader.sol\":4356:4384  round = data.lastUpdatedBase */\n      swap1\n      pop\n        /* \"contracts/BandOracleReader.sol\":4311:4395  if (data.lastUpdatedBase != 0) {... */\n    tag_275:\n        /* \"contracts/BandOracleReader.sol\":4419:4424  round */\n      dup1\n        /* \"contracts/BandOracleReader.sol\":4434:4438  data */\n      dup3\n        /* \"contracts/BandOracleReader.sol\":4434:4443  data.rate */\n      0x00\n      add\n      mload\n        /* \"contracts/BandOracleReader.sol\":4446:4451  round */\n      dup3\n        /* \"contracts/BandOracleReader.sol\":4453:4458  round */\n      dup4\n        /* \"contracts/BandOracleReader.sol\":4467:4472  round */\n      dup5\n        /* \"contracts/BandOracleReader.sol\":4404:4474  return (uint80(round), int256(data.rate), round, round, uint80(round)) */\n      swap7\n      pop\n      swap7\n      pop\n      swap7\n      pop\n      swap7\n      pop\n      swap7\n      pop\n      pop\n      pop\n        /* \"contracts/BandOracleReader.sol\":3906:4481  function _latestRoundData()... */\n      swap1\n      swap2\n      swap3\n      swap4\n      swap5\n      jump\t// out\n        /* \"contracts/BandOracleReader.sol\":340:7210  contract BandOracleReader is AggregatorV2V3Interface, IPyth, Owned {... */\n    tag_180:\n      mload(0x40)\n      dup1\n      0x80\n      add\n      0x40\n      mstore\n      dup1\n      signextend(0x07, 0x00)\n      dup2\n      mstore\n      0x20\n      add\n      and(0xffffffffffffffff, 0x00)\n      dup2\n      mstore\n      0x20\n      add\n      signextend(0x03, 0x00)\n      dup2\n      mstore\n      0x20\n      add\n      0x00\n      dup2\n      mstore\n      pop\n      swap1\n      jump\t// out\n    tag_201:\n      mload(0x40)\n      dup1\n      0x60\n      add\n      0x40\n      mstore\n      dup1\n      0x00\n      dup2\n      mstore\n      0x20\n      add\n      0x00\n      dup2\n      mstore\n      0x20\n      add\n      0x00\n      dup2\n      mstore\n      pop\n      swap1\n      jump\t// out\n    tag_248:\n      mload(0x40)\n      dup1\n      0x40\n      add\n      0x40\n      mstore\n      dup1\n      0x00\n      dup2\n      mstore\n      0x20\n      add\n      0x00\n      dup2\n      mstore\n      pop\n      swap1\n      jump\t// out\n        /* \"--CODEGEN--\":5:135   */\n    tag_277:\n      0x00\n        /* \"--CODEGEN--\":85:91   */\n      dup2\n        /* \"--CODEGEN--\":72:92   */\n      calldataload\n        /* \"--CODEGEN--\":63:92   */\n      swap1\n      pop\n        /* \"--CODEGEN--\":97:130   */\n      tag_278\n        /* \"--CODEGEN--\":124:129   */\n      dup2\n        /* \"--CODEGEN--\":97:130   */\n      jump(tag_279)\n    tag_278:\n        /* \"--CODEGEN--\":57:135   */\n      swap3\n      swap2\n      pop\n      pop\n      jump\n        /* \"--CODEGEN--\":160:512   */\n    tag_280:\n      0x00\n      dup1\n        /* \"--CODEGEN--\":290:293   */\n      dup4\n        /* \"--CODEGEN--\":283:287   */\n      0x1f\n        /* \"--CODEGEN--\":275:281   */\n      dup5\n        /* \"--CODEGEN--\":271:288   */\n      add\n        /* \"--CODEGEN--\":267:294   */\n      slt\n        /* \"--CODEGEN--\":257:259   */\n      tag_281\n      jumpi\n        /* \"--CODEGEN--\":308:309   */\n      0x00\n        /* \"--CODEGEN--\":305:306   */\n      dup1\n        /* \"--CODEGEN--\":298:310   */\n      revert\n        /* \"--CODEGEN--\":257:259   */\n    tag_281:\n        /* \"--CODEGEN--\":341:347   */\n      dup3\n        /* \"--CODEGEN--\":328:348   */\n      calldataload\n        /* \"--CODEGEN--\":318:348   */\n      swap1\n      pop\n        /* \"--CODEGEN--\":368:386   */\n      0xffffffffffffffff\n        /* \"--CODEGEN--\":360:366   */\n      dup2\n        /* \"--CODEGEN--\":357:387   */\n      gt\n        /* \"--CODEGEN--\":354:356   */\n      iszero\n      tag_282\n      jumpi\n        /* \"--CODEGEN--\":400:401   */\n      0x00\n        /* \"--CODEGEN--\":397:398   */\n      dup1\n        /* \"--CODEGEN--\":390:402   */\n      revert\n        /* \"--CODEGEN--\":354:356   */\n    tag_282:\n        /* \"--CODEGEN--\":434:438   */\n      0x20\n        /* \"--CODEGEN--\":426:432   */\n      dup4\n        /* \"--CODEGEN--\":422:439   */\n      add\n        /* \"--CODEGEN--\":410:439   */\n      swap2\n      pop\n        /* \"--CODEGEN--\":485:488   */\n      dup4\n        /* \"--CODEGEN--\":477:481   */\n      0x20\n        /* \"--CODEGEN--\":469:475   */\n      dup3\n        /* \"--CODEGEN--\":465:482   */\n      mul\n        /* \"--CODEGEN--\":455:463   */\n      dup4\n        /* \"--CODEGEN--\":451:483   */\n      add\n        /* \"--CODEGEN--\":448:489   */\n      gt\n        /* \"--CODEGEN--\":445:447   */\n      iszero\n      tag_283\n      jumpi\n        /* \"--CODEGEN--\":502:503   */\n      0x00\n        /* \"--CODEGEN--\":499:500   */\n      dup1\n        /* \"--CODEGEN--\":492:504   */\n      revert\n        /* \"--CODEGEN--\":445:447   */\n    tag_283:\n        /* \"--CODEGEN--\":250:512   */\n      swap3\n      pop\n      swap3\n      swap1\n      pop\n      jump\n        /* \"--CODEGEN--\":536:895   */\n    tag_284:\n      0x00\n      dup1\n        /* \"--CODEGEN--\":673:676   */\n      dup4\n        /* \"--CODEGEN--\":666:670   */\n      0x1f\n        /* \"--CODEGEN--\":658:664   */\n      dup5\n        /* \"--CODEGEN--\":654:671   */\n      add\n        /* \"--CODEGEN--\":650:677   */\n      slt\n        /* \"--CODEGEN--\":640:642   */\n      tag_285\n      jumpi\n        /* \"--CODEGEN--\":691:692   */\n      0x00\n        /* \"--CODEGEN--\":688:689   */\n      dup1\n        /* \"--CODEGEN--\":681:693   */\n      revert\n        /* \"--CODEGEN--\":640:642   */\n    tag_285:\n        /* \"--CODEGEN--\":724:730   */\n      dup3\n        /* \"--CODEGEN--\":711:731   */\n      calldataload\n        /* \"--CODEGEN--\":701:731   */\n      swap1\n      pop\n        /* \"--CODEGEN--\":751:769   */\n      0xffffffffffffffff\n        /* \"--CODEGEN--\":743:749   */\n      dup2\n        /* \"--CODEGEN--\":740:770   */\n      gt\n        /* \"--CODEGEN--\":737:739   */\n      iszero\n      tag_286\n      jumpi\n        /* \"--CODEGEN--\":783:784   */\n      0x00\n        /* \"--CODEGEN--\":780:781   */\n      dup1\n        /* \"--CODEGEN--\":773:785   */\n      revert\n        /* \"--CODEGEN--\":737:739   */\n    tag_286:\n        /* \"--CODEGEN--\":817:821   */\n      0x20\n        /* \"--CODEGEN--\":809:815   */\n      dup4\n        /* \"--CODEGEN--\":805:822   */\n      add\n        /* \"--CODEGEN--\":793:822   */\n      swap2\n      pop\n        /* \"--CODEGEN--\":868:871   */\n      dup4\n        /* \"--CODEGEN--\":860:864   */\n      0x20\n        /* \"--CODEGEN--\":852:858   */\n      dup3\n        /* \"--CODEGEN--\":848:865   */\n      mul\n        /* \"--CODEGEN--\":838:846   */\n      dup4\n        /* \"--CODEGEN--\":834:866   */\n      add\n        /* \"--CODEGEN--\":831:872   */\n      gt\n        /* \"--CODEGEN--\":828:830   */\n      iszero\n      tag_287\n      jumpi\n        /* \"--CODEGEN--\":885:886   */\n      0x00\n        /* \"--CODEGEN--\":882:883   */\n      dup1\n        /* \"--CODEGEN--\":875:887   */\n      revert\n        /* \"--CODEGEN--\":828:830   */\n    tag_287:\n        /* \"--CODEGEN--\":633:895   */\n      swap3\n      pop\n      swap3\n      swap1\n      pop\n      jump\n        /* \"--CODEGEN--\":920:1271   */\n    tag_288:\n      0x00\n      dup1\n        /* \"--CODEGEN--\":1049:1052   */\n      dup4\n        /* \"--CODEGEN--\":1042:1046   */\n      0x1f\n        /* \"--CODEGEN--\":1034:1040   */\n      dup5\n        /* \"--CODEGEN--\":1030:1047   */\n      add\n        /* \"--CODEGEN--\":1026:1053   */\n      slt\n        /* \"--CODEGEN--\":1016:1018   */\n      tag_289\n      jumpi\n        /* \"--CODEGEN--\":1067:1068   */\n      0x00\n        /* \"--CODEGEN--\":1064:1065   */\n      dup1\n        /* \"--CODEGEN--\":1057:1069   */\n      revert\n        /* \"--CODEGEN--\":1016:1018   */\n    tag_289:\n        /* \"--CODEGEN--\":1100:1106   */\n      dup3\n        /* \"--CODEGEN--\":1087:1107   */\n      calldataload\n        /* \"--CODEGEN--\":1077:1107   */\n      swap1\n      pop\n        /* \"--CODEGEN--\":1127:1145   */\n      0xffffffffffffffff\n        /* \"--CODEGEN--\":1119:1125   */\n      dup2\n        /* \"--CODEGEN--\":1116:1146   */\n      gt\n        /* \"--CODEGEN--\":1113:1115   */\n      iszero\n      tag_290\n      jumpi\n        /* \"--CODEGEN--\":1159:1160   */\n      0x00\n        /* \"--CODEGEN--\":1156:1157   */\n      dup1\n        /* \"--CODEGEN--\":1149:1161   */\n      revert\n        /* \"--CODEGEN--\":1113:1115   */\n    tag_290:\n        /* \"--CODEGEN--\":1193:1197   */\n      0x20\n        /* \"--CODEGEN--\":1185:1191   */\n      dup4\n        /* \"--CODEGEN--\":1181:1198   */\n      add\n        /* \"--CODEGEN--\":1169:1198   */\n      swap2\n      pop\n        /* \"--CODEGEN--\":1244:1247   */\n      dup4\n        /* \"--CODEGEN--\":1236:1240   */\n      0x20\n        /* \"--CODEGEN--\":1228:1234   */\n      dup3\n        /* \"--CODEGEN--\":1224:1241   */\n      mul\n        /* \"--CODEGEN--\":1214:1222   */\n      dup4\n        /* \"--CODEGEN--\":1210:1242   */\n      add\n        /* \"--CODEGEN--\":1207:1248   */\n      gt\n        /* \"--CODEGEN--\":1204:1206   */\n      iszero\n      tag_291\n      jumpi\n        /* \"--CODEGEN--\":1261:1262   */\n      0x00\n        /* \"--CODEGEN--\":1258:1259   */\n      dup1\n        /* \"--CODEGEN--\":1251:1263   */\n      revert\n        /* \"--CODEGEN--\":1204:1206   */\n    tag_291:\n        /* \"--CODEGEN--\":1009:1271   */\n      swap3\n      pop\n      swap3\n      swap1\n      pop\n      jump\n        /* \"--CODEGEN--\":1279:1409   */\n    tag_292:\n      0x00\n        /* \"--CODEGEN--\":1359:1365   */\n      dup2\n        /* \"--CODEGEN--\":1346:1366   */\n      calldataload\n        /* \"--CODEGEN--\":1337:1366   */\n      swap1\n      pop\n        /* \"--CODEGEN--\":1371:1404   */\n      tag_293\n        /* \"--CODEGEN--\":1398:1403   */\n      dup2\n        /* \"--CODEGEN--\":1371:1404   */\n      jump(tag_294)\n    tag_293:\n        /* \"--CODEGEN--\":1331:1409   */\n      swap3\n      swap2\n      pop\n      pop\n      jump\n        /* \"--CODEGEN--\":1457:2138   */\n    tag_295:\n      0x00\n        /* \"--CODEGEN--\":1585:1589   */\n      0x60\n        /* \"--CODEGEN--\":1573:1582   */\n      dup3\n        /* \"--CODEGEN--\":1568:1571   */\n      dup5\n        /* \"--CODEGEN--\":1564:1583   */\n      sub\n        /* \"--CODEGEN--\":1560:1590   */\n      slt\n        /* \"--CODEGEN--\":1557:1559   */\n      iszero\n      tag_296\n      jumpi\n        /* \"--CODEGEN--\":1603:1604   */\n      0x00\n        /* \"--CODEGEN--\":1600:1601   */\n      dup1\n        /* \"--CODEGEN--\":1593:1605   */\n      revert\n        /* \"--CODEGEN--\":1557:1559   */\n    tag_296:\n        /* \"--CODEGEN--\":1621:1641   */\n      tag_297\n        /* \"--CODEGEN--\":1636:1640   */\n      0x60\n        /* \"--CODEGEN--\":1621:1641   */\n      jump(tag_298)\n    tag_297:\n        /* \"--CODEGEN--\":1612:1641   */\n      swap1\n      pop\n        /* \"--CODEGEN--\":1691:1692   */\n      0x00\n        /* \"--CODEGEN--\":1723:1783   */\n      tag_299\n        /* \"--CODEGEN--\":1779:1782   */\n      dup5\n        /* \"--CODEGEN--\":1770:1776   */\n      dup3\n        /* \"--CODEGEN--\":1759:1768   */\n      dup6\n        /* \"--CODEGEN--\":1755:1777   */\n      add\n        /* \"--CODEGEN--\":1723:1783   */\n      jump(tag_300)\n    tag_299:\n        /* \"--CODEGEN--\":1716:1720   */\n      0x00\n        /* \"--CODEGEN--\":1709:1714   */\n      dup4\n        /* \"--CODEGEN--\":1705:1721   */\n      add\n        /* \"--CODEGEN--\":1698:1784   */\n      mstore\n        /* \"--CODEGEN--\":1651:1795   */\n      pop\n        /* \"--CODEGEN--\":1856:1858   */\n      0x20\n        /* \"--CODEGEN--\":1889:1949   */\n      tag_301\n        /* \"--CODEGEN--\":1945:1948   */\n      dup5\n        /* \"--CODEGEN--\":1936:1942   */\n      dup3\n        /* \"--CODEGEN--\":1925:1934   */\n      dup6\n        /* \"--CODEGEN--\":1921:1943   */\n      add\n        /* \"--CODEGEN--\":1889:1949   */\n      jump(tag_300)\n    tag_301:\n        /* \"--CODEGEN--\":1882:1886   */\n      0x20\n        /* \"--CODEGEN--\":1875:1880   */\n      dup4\n        /* \"--CODEGEN--\":1871:1887   */\n      add\n        /* \"--CODEGEN--\":1864:1950   */\n      mstore\n        /* \"--CODEGEN--\":1805:1961   */\n      pop\n        /* \"--CODEGEN--\":2023:2025   */\n      0x40\n        /* \"--CODEGEN--\":2056:2116   */\n      tag_302\n        /* \"--CODEGEN--\":2112:2115   */\n      dup5\n        /* \"--CODEGEN--\":2103:2109   */\n      dup3\n        /* \"--CODEGEN--\":2092:2101   */\n      dup6\n        /* \"--CODEGEN--\":2088:2110   */\n      add\n        /* \"--CODEGEN--\":2056:2116   */\n      jump(tag_300)\n    tag_302:\n        /* \"--CODEGEN--\":2049:2053   */\n      0x40\n        /* \"--CODEGEN--\":2042:2047   */\n      dup4\n        /* \"--CODEGEN--\":2038:2054   */\n      add\n        /* \"--CODEGEN--\":2031:2117   */\n      mstore\n        /* \"--CODEGEN--\":1971:2128   */\n      pop\n        /* \"--CODEGEN--\":1551:2138   */\n      swap3\n      swap2\n      pop\n      pop\n      jump\n        /* \"--CODEGEN--\":2145:2275   */\n    tag_303:\n      0x00\n        /* \"--CODEGEN--\":2225:2231   */\n      dup2\n        /* \"--CODEGEN--\":2212:2232   */\n      calldataload\n        /* \"--CODEGEN--\":2203:2232   */\n      swap1\n      pop\n        /* \"--CODEGEN--\":2237:2270   */\n      tag_304\n        /* \"--CODEGEN--\":2264:2269   */\n      dup2\n        /* \"--CODEGEN--\":2237:2270   */\n      jump(tag_305)\n    tag_304:\n        /* \"--CODEGEN--\":2197:2275   */\n      swap3\n      swap2\n      pop\n      pop\n      jump\n        /* \"--CODEGEN--\":2282:2416   */\n    tag_300:\n      0x00\n        /* \"--CODEGEN--\":2366:2372   */\n      dup2\n        /* \"--CODEGEN--\":2360:2373   */\n      mload\n        /* \"--CODEGEN--\":2351:2373   */\n      swap1\n      pop\n        /* \"--CODEGEN--\":2378:2411   */\n      tag_306\n        /* \"--CODEGEN--\":2405:2410   */\n      dup2\n        /* \"--CODEGEN--\":2378:2411   */\n      jump(tag_305)\n    tag_306:\n        /* \"--CODEGEN--\":2345:2416   */\n      swap3\n      swap2\n      pop\n      pop\n      jump\n        /* \"--CODEGEN--\":2423:2551   */\n    tag_307:\n      0x00\n        /* \"--CODEGEN--\":2502:2508   */\n      dup2\n        /* \"--CODEGEN--\":2489:2509   */\n      calldataload\n        /* \"--CODEGEN--\":2480:2509   */\n      swap1\n      pop\n        /* \"--CODEGEN--\":2514:2546   */\n      tag_308\n        /* \"--CODEGEN--\":2540:2545   */\n      dup2\n        /* \"--CODEGEN--\":2514:2546   */\n      jump(tag_309)\n    tag_308:\n        /* \"--CODEGEN--\":2474:2551   */\n      swap3\n      swap2\n      pop\n      pop\n      jump\n        /* \"--CODEGEN--\":2558:2686   */\n    tag_310:\n      0x00\n        /* \"--CODEGEN--\":2637:2643   */\n      dup2\n        /* \"--CODEGEN--\":2624:2644   */\n      calldataload\n        /* \"--CODEGEN--\":2615:2644   */\n      swap1\n      pop\n        /* \"--CODEGEN--\":2649:2681   */\n      tag_311\n        /* \"--CODEGEN--\":2675:2680   */\n      dup2\n        /* \"--CODEGEN--\":2649:2681   */\n      jump(tag_312)\n    tag_311:\n        /* \"--CODEGEN--\":2609:2686   */\n      swap3\n      swap2\n      pop\n      pop\n      jump\n        /* \"--CODEGEN--\":2693:2934   */\n    tag_40:\n      0x00\n        /* \"--CODEGEN--\":2797:2799   */\n      0x20\n        /* \"--CODEGEN--\":2785:2794   */\n      dup3\n        /* \"--CODEGEN--\":2776:2783   */\n      dup5\n        /* \"--CODEGEN--\":2772:2795   */\n      sub\n        /* \"--CODEGEN--\":2768:2800   */\n      slt\n        /* \"--CODEGEN--\":2765:2767   */\n      iszero\n      tag_313\n      jumpi\n        /* \"--CODEGEN--\":2813:2814   */\n      0x00\n        /* \"--CODEGEN--\":2810:2811   */\n      dup1\n        /* \"--CODEGEN--\":2803:2815   */\n      revert\n        /* \"--CODEGEN--\":2765:2767   */\n    tag_313:\n        /* \"--CODEGEN--\":2848:2849   */\n      0x00\n        /* \"--CODEGEN--\":2865:2918   */\n      tag_314\n        /* \"--CODEGEN--\":2910:2917   */\n      dup5\n        /* \"--CODEGEN--\":2901:2907   */\n      dup3\n        /* \"--CODEGEN--\":2890:2899   */\n      dup6\n        /* \"--CODEGEN--\":2886:2908   */\n      add\n        /* \"--CODEGEN--\":2865:2918   */\n      jump(tag_277)\n    tag_314:\n        /* \"--CODEGEN--\":2855:2918   */\n      swap2\n      pop\n        /* \"--CODEGEN--\":2827:2924   */\n      pop\n        /* \"--CODEGEN--\":2759:2934   */\n      swap3\n      swap2\n      pop\n      pop\n      jump\n        /* \"--CODEGEN--\":2941:3352   */\n    tag_154:\n      0x00\n      dup1\n        /* \"--CODEGEN--\":3087:3089   */\n      0x20\n        /* \"--CODEGEN--\":3075:3084   */\n      dup4\n        /* \"--CODEGEN--\":3066:3073   */\n      dup6\n        /* \"--CODEGEN--\":3062:3085   */\n      sub\n        /* \"--CODEGEN--\":3058:3090   */\n      slt\n        /* \"--CODEGEN--\":3055:3057   */\n      iszero\n      tag_315\n      jumpi\n        /* \"--CODEGEN--\":3103:3104   */\n      0x00\n        /* \"--CODEGEN--\":3100:3101   */\n      dup1\n        /* \"--CODEGEN--\":3093:3105   */\n      revert\n        /* \"--CODEGEN--\":3055:3057   */\n    tag_315:\n        /* \"--CODEGEN--\":3166:3167   */\n      0x00\n        /* \"--CODEGEN--\":3155:3164   */\n      dup4\n        /* \"--CODEGEN--\":3151:3168   */\n      add\n        /* \"--CODEGEN--\":3138:3169   */\n      calldataload\n        /* \"--CODEGEN--\":3189:3207   */\n      0xffffffffffffffff\n        /* \"--CODEGEN--\":3181:3187   */\n      dup2\n        /* \"--CODEGEN--\":3178:3208   */\n      gt\n        /* \"--CODEGEN--\":3175:3177   */\n      iszero\n      tag_316\n      jumpi\n        /* \"--CODEGEN--\":3221:3222   */\n      0x00\n        /* \"--CODEGEN--\":3218:3219   */\n      dup1\n        /* \"--CODEGEN--\":3211:3223   */\n      revert\n        /* \"--CODEGEN--\":3175:3177   */\n    tag_316:\n        /* \"--CODEGEN--\":3249:3336   */\n      tag_317\n        /* \"--CODEGEN--\":3328:3335   */\n      dup6\n        /* \"--CODEGEN--\":3319:3325   */\n      dup3\n        /* \"--CODEGEN--\":3308:3317   */\n      dup7\n        /* \"--CODEGEN--\":3304:3326   */\n      add\n        /* \"--CODEGEN--\":3249:3336   */\n      jump(tag_284)\n    tag_317:\n        /* \"--CODEGEN--\":3239:3336   */\n      swap3\n      pop\n      swap3\n      pop\n        /* \"--CODEGEN--\":3117:3342   */\n      pop\n        /* \"--CODEGEN--\":3049:3352   */\n      swap3\n      pop\n      swap3\n      swap1\n      pop\n      jump\n        /* \"--CODEGEN--\":3359:4330   */\n    tag_149:\n      0x00\n      dup1\n      0x00\n      dup1\n      0x00\n      dup1\n        /* \"--CODEGEN--\":3608:3610   */\n      0x60\n        /* \"--CODEGEN--\":3596:3605   */\n      dup8\n        /* \"--CODEGEN--\":3587:3594   */\n      dup10\n        /* \"--CODEGEN--\":3583:3606   */\n      sub\n        /* \"--CODEGEN--\":3579:3611   */\n      slt\n        /* \"--CODEGEN--\":3576:3578   */\n      iszero\n      tag_318\n      jumpi\n        /* \"--CODEGEN--\":3624:3625   */\n      0x00\n        /* \"--CODEGEN--\":3621:3622   */\n      dup1\n        /* \"--CODEGEN--\":3614:3626   */\n      revert\n        /* \"--CODEGEN--\":3576:3578   */\n    tag_318:\n        /* \"--CODEGEN--\":3687:3688   */\n      0x00\n        /* \"--CODEGEN--\":3676:3685   */\n      dup8\n        /* \"--CODEGEN--\":3672:3689   */\n      add\n        /* \"--CODEGEN--\":3659:3690   */\n      calldataload\n        /* \"--CODEGEN--\":3710:3728   */\n      0xffffffffffffffff\n        /* \"--CODEGEN--\":3702:3708   */\n      dup2\n        /* \"--CODEGEN--\":3699:3729   */\n      gt\n        /* \"--CODEGEN--\":3696:3698   */\n      iszero\n      tag_319\n      jumpi\n        /* \"--CODEGEN--\":3742:3743   */\n      0x00\n        /* \"--CODEGEN--\":3739:3740   */\n      dup1\n        /* \"--CODEGEN--\":3732:3744   */\n      revert\n        /* \"--CODEGEN--\":3696:3698   */\n    tag_319:\n        /* \"--CODEGEN--\":3770:3857   */\n      tag_320\n        /* \"--CODEGEN--\":3849:3856   */\n      dup10\n        /* \"--CODEGEN--\":3840:3846   */\n      dup3\n        /* \"--CODEGEN--\":3829:3838   */\n      dup11\n        /* \"--CODEGEN--\":3825:3847   */\n      add\n        /* \"--CODEGEN--\":3770:3857   */\n      jump(tag_284)\n    tag_320:\n        /* \"--CODEGEN--\":3760:3857   */\n      swap7\n      pop\n      swap7\n      pop\n        /* \"--CODEGEN--\":3638:3863   */\n      pop\n        /* \"--CODEGEN--\":3922:3924   */\n      0x20\n        /* \"--CODEGEN--\":3911:3920   */\n      dup8\n        /* \"--CODEGEN--\":3907:3925   */\n      add\n        /* \"--CODEGEN--\":3894:3926   */\n      calldataload\n        /* \"--CODEGEN--\":3946:3964   */\n      0xffffffffffffffff\n        /* \"--CODEGEN--\":3938:3944   */\n      dup2\n        /* \"--CODEGEN--\":3935:3965   */\n      gt\n        /* \"--CODEGEN--\":3932:3934   */\n      iszero\n      tag_321\n      jumpi\n        /* \"--CODEGEN--\":3978:3979   */\n      0x00\n        /* \"--CODEGEN--\":3975:3976   */\n      dup1\n        /* \"--CODEGEN--\":3968:3980   */\n      revert\n        /* \"--CODEGEN--\":3932:3934   */\n    tag_321:\n        /* \"--CODEGEN--\":4006:4086   */\n      tag_322\n        /* \"--CODEGEN--\":4078:4085   */\n      dup10\n        /* \"--CODEGEN--\":4069:4075   */\n      dup3\n        /* \"--CODEGEN--\":4058:4067   */\n      dup11\n        /* \"--CODEGEN--\":4054:4076   */\n      add\n        /* \"--CODEGEN--\":4006:4086   */\n      jump(tag_280)\n    tag_322:\n        /* \"--CODEGEN--\":3996:4086   */\n      swap5\n      pop\n      swap5\n      pop\n        /* \"--CODEGEN--\":3873:4092   */\n      pop\n        /* \"--CODEGEN--\":4151:4153   */\n      0x40\n        /* \"--CODEGEN--\":4140:4149   */\n      dup8\n        /* \"--CODEGEN--\":4136:4154   */\n      add\n        /* \"--CODEGEN--\":4123:4155   */\n      calldataload\n        /* \"--CODEGEN--\":4175:4193   */\n      0xffffffffffffffff\n        /* \"--CODEGEN--\":4167:4173   */\n      dup2\n        /* \"--CODEGEN--\":4164:4194   */\n      gt\n        /* \"--CODEGEN--\":4161:4163   */\n      iszero\n      tag_323\n      jumpi\n        /* \"--CODEGEN--\":4207:4208   */\n      0x00\n        /* \"--CODEGEN--\":4204:4205   */\n      dup1\n        /* \"--CODEGEN--\":4197:4209   */\n      revert\n        /* \"--CODEGEN--\":4161:4163   */\n    tag_323:\n        /* \"--CODEGEN--\":4235:4314   */\n      tag_324\n        /* \"--CODEGEN--\":4306:4313   */\n      dup10\n        /* \"--CODEGEN--\":4297:4303   */\n      dup3\n        /* \"--CODEGEN--\":4286:4295   */\n      dup11\n        /* \"--CODEGEN--\":4282:4304   */\n      add\n        /* \"--CODEGEN--\":4235:4314   */\n      jump(tag_288)\n    tag_324:\n        /* \"--CODEGEN--\":4225:4314   */\n      swap3\n      pop\n      swap3\n      pop\n        /* \"--CODEGEN--\":4102:4320   */\n      pop\n        /* \"--CODEGEN--\":3570:4330   */\n      swap3\n      swap6\n      pop\n      swap3\n      swap6\n      pop\n      swap3\n      swap6\n      jump\n        /* \"--CODEGEN--\":4337:5276   */\n    tag_59:\n      0x00\n      dup1\n      0x00\n      dup1\n      0x00\n      dup1\n        /* \"--CODEGEN--\":4567:4570   */\n      0x80\n        /* \"--CODEGEN--\":4555:4564   */\n      dup8\n        /* \"--CODEGEN--\":4546:4553   */\n      dup10\n        /* \"--CODEGEN--\":4542:4565   */\n      sub\n        /* \"--CODEGEN--\":4538:4571   */\n      slt\n        /* \"--CODEGEN--\":4535:4537   */\n      iszero\n      tag_325\n      jumpi\n        /* \"--CODEGEN--\":4584:4585   */\n      0x00\n        /* \"--CODEGEN--\":4581:4582   */\n      dup1\n        /* \"--CODEGEN--\":4574:4586   */\n      revert\n        /* \"--CODEGEN--\":4535:4537   */\n    tag_325:\n        /* \"--CODEGEN--\":4647:4648   */\n      0x00\n        /* \"--CODEGEN--\":4636:4645   */\n      dup8\n        /* \"--CODEGEN--\":4632:4649   */\n      add\n        /* \"--CODEGEN--\":4619:4650   */\n      calldataload\n        /* \"--CODEGEN--\":4670:4688   */\n      0xffffffffffffffff\n        /* \"--CODEGEN--\":4662:4668   */\n      dup2\n        /* \"--CODEGEN--\":4659:4689   */\n      gt\n        /* \"--CODEGEN--\":4656:4658   */\n      iszero\n      tag_326\n      jumpi\n        /* \"--CODEGEN--\":4702:4703   */\n      0x00\n        /* \"--CODEGEN--\":4699:4700   */\n      dup1\n        /* \"--CODEGEN--\":4692:4704   */\n      revert\n        /* \"--CODEGEN--\":4656:4658   */\n    tag_326:\n        /* \"--CODEGEN--\":4730:4817   */\n      tag_327\n        /* \"--CODEGEN--\":4809:4816   */\n      dup10\n        /* \"--CODEGEN--\":4800:4806   */\n      dup3\n        /* \"--CODEGEN--\":4789:4798   */\n      dup11\n        /* \"--CODEGEN--\":4785:4807   */\n      add\n        /* \"--CODEGEN--\":4730:4817   */\n      jump(tag_284)\n    tag_327:\n        /* \"--CODEGEN--\":4720:4817   */\n      swap7\n      pop\n      swap7\n      pop\n        /* \"--CODEGEN--\":4598:4823   */\n      pop\n        /* \"--CODEGEN--\":4882:4884   */\n      0x20\n        /* \"--CODEGEN--\":4871:4880   */\n      dup8\n        /* \"--CODEGEN--\":4867:4885   */\n      add\n        /* \"--CODEGEN--\":4854:4886   */\n      calldataload\n        /* \"--CODEGEN--\":4906:4924   */\n      0xffffffffffffffff\n        /* \"--CODEGEN--\":4898:4904   */\n      dup2\n        /* \"--CODEGEN--\":4895:4925   */\n      gt\n        /* \"--CODEGEN--\":4892:4894   */\n      iszero\n      tag_328\n      jumpi\n        /* \"--CODEGEN--\":4938:4939   */\n      0x00\n        /* \"--CODEGEN--\":4935:4936   */\n      dup1\n        /* \"--CODEGEN--\":4928:4940   */\n      revert\n        /* \"--CODEGEN--\":4892:4894   */\n    tag_328:\n        /* \"--CODEGEN--\":4966:5046   */\n      tag_329\n        /* \"--CODEGEN--\":5038:5045   */\n      dup10\n        /* \"--CODEGEN--\":5029:5035   */\n      dup3\n        /* \"--CODEGEN--\":5018:5027   */\n      dup11\n        /* \"--CODEGEN--\":5014:5036   */\n      add\n        /* \"--CODEGEN--\":4966:5046   */\n      jump(tag_280)\n    tag_329:\n        /* \"--CODEGEN--\":4956:5046   */\n      swap5\n      pop\n      swap5\n      pop\n        /* \"--CODEGEN--\":4833:5052   */\n      pop\n        /* \"--CODEGEN--\":5083:5085   */\n      0x40\n        /* \"--CODEGEN--\":5101:5153   */\n      tag_330\n        /* \"--CODEGEN--\":5145:5152   */\n      dup10\n        /* \"--CODEGEN--\":5136:5142   */\n      dup3\n        /* \"--CODEGEN--\":5125:5134   */\n      dup11\n        /* \"--CODEGEN--\":5121:5143   */\n      add\n        /* \"--CODEGEN--\":5101:5153   */\n      jump(tag_307)\n    tag_330:\n        /* \"--CODEGEN--\":5091:5153   */\n      swap3\n      pop\n        /* \"--CODEGEN--\":5062:5159   */\n      pop\n        /* \"--CODEGEN--\":5190:5192   */\n      0x60\n        /* \"--CODEGEN--\":5208:5260   */\n      tag_331\n        /* \"--CODEGEN--\":5252:5259   */\n      dup10\n        /* \"--CODEGEN--\":5243:5249   */\n      dup3\n        /* \"--CODEGEN--\":5232:5241   */\n      dup11\n        /* \"--CODEGEN--\":5228:5250   */\n      add\n        /* \"--CODEGEN--\":5208:5260   */\n      jump(tag_307)\n    tag_331:\n        /* \"--CODEGEN--\":5198:5260   */\n      swap2\n      pop\n        /* \"--CODEGEN--\":5169:5266   */\n      pop\n        /* \"--CODEGEN--\":4529:5276   */\n      swap3\n      swap6\n      pop\n      swap3\n      swap6\n      pop\n      swap3\n      swap6\n      jump\n        /* \"--CODEGEN--\":5283:5524   */\n    tag_50:\n      0x00\n        /* \"--CODEGEN--\":5387:5389   */\n      0x20\n        /* \"--CODEGEN--\":5375:5384   */\n      dup3\n        /* \"--CODEGEN--\":5366:5373   */\n      dup5\n        /* \"--CODEGEN--\":5362:5385   */\n      sub\n        /* \"--CODEGEN--\":5358:5390   */\n      slt\n        /* \"--CODEGEN--\":5355:5357   */\n      iszero\n      tag_332\n      jumpi\n        /* \"--CODEGEN--\":5403:5404   */\n      0x00\n        /* \"--CODEGEN--\":5400:5401   */\n      dup1\n        /* \"--CODEGEN--\":5393:5405   */\n      revert\n        /* \"--CODEGEN--\":5355:5357   */\n    tag_332:\n        /* \"--CODEGEN--\":5438:5439   */\n      0x00\n        /* \"--CODEGEN--\":5455:5508   */\n      tag_333\n        /* \"--CODEGEN--\":5500:5507   */\n      dup5\n        /* \"--CODEGEN--\":5491:5497   */\n      dup3\n        /* \"--CODEGEN--\":5480:5489   */\n      dup6\n        /* \"--CODEGEN--\":5476:5498   */\n      add\n        /* \"--CODEGEN--\":5455:5508   */\n      jump(tag_292)\n    tag_333:\n        /* \"--CODEGEN--\":5445:5508   */\n      swap2\n      pop\n        /* \"--CODEGEN--\":5417:5514   */\n      pop\n        /* \"--CODEGEN--\":5349:5524   */\n      swap3\n      swap2\n      pop\n      pop\n      jump\n        /* \"--CODEGEN--\":5531:5897   */\n    tag_86:\n      0x00\n      dup1\n        /* \"--CODEGEN--\":5652:5654   */\n      0x40\n        /* \"--CODEGEN--\":5640:5649   */\n      dup4\n        /* \"--CODEGEN--\":5631:5638   */\n      dup6\n        /* \"--CODEGEN--\":5627:5650   */\n      sub\n        /* \"--CODEGEN--\":5623:5655   */\n      slt\n        /* \"--CODEGEN--\":5620:5622   */\n      iszero\n      tag_334\n      jumpi\n        /* \"--CODEGEN--\":5668:5669   */\n      0x00\n        /* \"--CODEGEN--\":5665:5666   */\n      dup1\n        /* \"--CODEGEN--\":5658:5670   */\n      revert\n        /* \"--CODEGEN--\":5620:5622   */\n    tag_334:\n        /* \"--CODEGEN--\":5703:5704   */\n      0x00\n        /* \"--CODEGEN--\":5720:5773   */\n      tag_335\n        /* \"--CODEGEN--\":5765:5772   */\n      dup6\n        /* \"--CODEGEN--\":5756:5762   */\n      dup3\n        /* \"--CODEGEN--\":5745:5754   */\n      dup7\n        /* \"--CODEGEN--\":5741:5763   */\n      add\n        /* \"--CODEGEN--\":5720:5773   */\n      jump(tag_292)\n    tag_335:\n        /* \"--CODEGEN--\":5710:5773   */\n      swap3\n      pop\n        /* \"--CODEGEN--\":5682:5779   */\n      pop\n        /* \"--CODEGEN--\":5810:5812   */\n      0x20\n        /* \"--CODEGEN--\":5828:5881   */\n      tag_336\n        /* \"--CODEGEN--\":5873:5880   */\n      dup6\n        /* \"--CODEGEN--\":5864:5870   */\n      dup3\n        /* \"--CODEGEN--\":5853:5862   */\n      dup7\n        /* \"--CODEGEN--\":5849:5871   */\n      add\n        /* \"--CODEGEN--\":5828:5881   */\n      jump(tag_303)\n    tag_336:\n        /* \"--CODEGEN--\":5818:5881   */\n      swap2\n      pop\n        /* \"--CODEGEN--\":5789:5887   */\n      pop\n        /* \"--CODEGEN--\":5614:5897   */\n      swap3\n      pop\n      swap3\n      swap1\n      pop\n      jump\n        /* \"--CODEGEN--\":5904:6223   */\n    tag_207:\n      0x00\n        /* \"--CODEGEN--\":6047:6049   */\n      0x60\n        /* \"--CODEGEN--\":6035:6044   */\n      dup3\n        /* \"--CODEGEN--\":6026:6033   */\n      dup5\n        /* \"--CODEGEN--\":6022:6045   */\n      sub\n        /* \"--CODEGEN--\":6018:6050   */\n      slt\n        /* \"--CODEGEN--\":6015:6017   */\n      iszero\n      tag_337\n      jumpi\n        /* \"--CODEGEN--\":6063:6064   */\n      0x00\n        /* \"--CODEGEN--\":6060:6061   */\n      dup1\n        /* \"--CODEGEN--\":6053:6065   */\n      revert\n        /* \"--CODEGEN--\":6015:6017   */\n    tag_337:\n        /* \"--CODEGEN--\":6098:6099   */\n      0x00\n        /* \"--CODEGEN--\":6115:6207   */\n      tag_338\n        /* \"--CODEGEN--\":6199:6206   */\n      dup5\n        /* \"--CODEGEN--\":6190:6196   */\n      dup3\n        /* \"--CODEGEN--\":6179:6188   */\n      dup6\n        /* \"--CODEGEN--\":6175:6197   */\n      add\n        /* \"--CODEGEN--\":6115:6207   */\n      jump(tag_295)\n    tag_338:\n        /* \"--CODEGEN--\":6105:6207   */\n      swap2\n      pop\n        /* \"--CODEGEN--\":6077:6213   */\n      pop\n        /* \"--CODEGEN--\":6009:6223   */\n      swap3\n      swap2\n      pop\n      pop\n      jump\n        /* \"--CODEGEN--\":6230:6471   */\n    tag_81:\n      0x00\n        /* \"--CODEGEN--\":6334:6336   */\n      0x20\n        /* \"--CODEGEN--\":6322:6331   */\n      dup3\n        /* \"--CODEGEN--\":6313:6320   */\n      dup5\n        /* \"--CODEGEN--\":6309:6332   */\n      sub\n        /* \"--CODEGEN--\":6305:6337   */\n      slt\n        /* \"--CODEGEN--\":6302:6304   */\n      iszero\n      tag_339\n      jumpi\n        /* \"--CODEGEN--\":6350:6351   */\n      0x00\n        /* \"--CODEGEN--\":6347:6348   */\n      dup1\n        /* \"--CODEGEN--\":6340:6352   */\n      revert\n        /* \"--CODEGEN--\":6302:6304   */\n    tag_339:\n        /* \"--CODEGEN--\":6385:6386   */\n      0x00\n        /* \"--CODEGEN--\":6402:6455   */\n      tag_340\n        /* \"--CODEGEN--\":6447:6454   */\n      dup5\n        /* \"--CODEGEN--\":6438:6444   */\n      dup3\n        /* \"--CODEGEN--\":6427:6436   */\n      dup6\n        /* \"--CODEGEN--\":6423:6445   */\n      add\n        /* \"--CODEGEN--\":6402:6455   */\n      jump(tag_303)\n    tag_340:\n        /* \"--CODEGEN--\":6392:6455   */\n      swap2\n      pop\n        /* \"--CODEGEN--\":6364:6461   */\n      pop\n        /* \"--CODEGEN--\":6296:6471   */\n      swap3\n      swap2\n      pop\n      pop\n      jump\n        /* \"--CODEGEN--\":6478:6717   */\n    tag_122:\n      0x00\n        /* \"--CODEGEN--\":6581:6583   */\n      0x20\n        /* \"--CODEGEN--\":6569:6578   */\n      dup3\n        /* \"--CODEGEN--\":6560:6567   */\n      dup5\n        /* \"--CODEGEN--\":6556:6579   */\n      sub\n        /* \"--CODEGEN--\":6552:6584   */\n      slt\n        /* \"--CODEGEN--\":6549:6551   */\n      iszero\n      tag_341\n      jumpi\n        /* \"--CODEGEN--\":6597:6598   */\n      0x00\n        /* \"--CODEGEN--\":6594:6595   */\n      dup1\n        /* \"--CODEGEN--\":6587:6599   */\n      revert\n        /* \"--CODEGEN--\":6549:6551   */\n    tag_341:\n        /* \"--CODEGEN--\":6632:6633   */\n      0x00\n        /* \"--CODEGEN--\":6649:6701   */\n      tag_342\n        /* \"--CODEGEN--\":6693:6700   */\n      dup5\n        /* \"--CODEGEN--\":6684:6690   */\n      dup3\n        /* \"--CODEGEN--\":6673:6682   */\n      dup6\n        /* \"--CODEGEN--\":6669:6691   */\n      add\n        /* \"--CODEGEN--\":6649:6701   */\n      jump(tag_310)\n    tag_342:\n        /* \"--CODEGEN--\":6639:6701   */\n      swap2\n      pop\n        /* \"--CODEGEN--\":6611:6707   */\n      pop\n        /* \"--CODEGEN--\":6543:6717   */\n      swap3\n      swap2\n      pop\n      pop\n      jump\n        /* \"--CODEGEN--\":6725:6992   */\n    tag_343:\n      0x00\n        /* \"--CODEGEN--\":6856:6950   */\n      tag_344\n        /* \"--CODEGEN--\":6946:6949   */\n      dup4\n        /* \"--CODEGEN--\":6938:6944   */\n      dup4\n        /* \"--CODEGEN--\":6856:6950   */\n      jump(tag_345)\n    tag_344:\n        /* \"--CODEGEN--\":6979:6985   */\n      0x0120\n        /* \"--CODEGEN--\":6974:6977   */\n      dup4\n        /* \"--CODEGEN--\":6970:6986   */\n      add\n        /* \"--CODEGEN--\":6956:6986   */\n      swap1\n      pop\n        /* \"--CODEGEN--\":6849:6992   */\n      swap3\n      swap2\n      pop\n      pop\n      jump\n        /* \"--CODEGEN--\":7000:7113   */\n    tag_346:\n        /* \"--CODEGEN--\":7083:7107   */\n      tag_347\n        /* \"--CODEGEN--\":7101:7106   */\n      dup2\n        /* \"--CODEGEN--\":7083:7107   */\n      jump(tag_348)\n    tag_347:\n        /* \"--CODEGEN--\":7078:7081   */\n      dup3\n        /* \"--CODEGEN--\":7071:7108   */\n      mstore\n        /* \"--CODEGEN--\":7065:7113   */\n      pop\n      pop\n      jump\n        /* \"--CODEGEN--\":7193:8059   */\n    tag_349:\n      0x00\n        /* \"--CODEGEN--\":7382:7458   */\n      tag_350\n        /* \"--CODEGEN--\":7452:7457   */\n      dup3\n        /* \"--CODEGEN--\":7382:7458   */\n      jump(tag_351)\n    tag_350:\n        /* \"--CODEGEN--\":7471:7579   */\n      tag_352\n        /* \"--CODEGEN--\":7572:7578   */\n      dup2\n        /* \"--CODEGEN--\":7567:7570   */\n      dup6\n        /* \"--CODEGEN--\":7471:7579   */\n      jump(tag_353)\n    tag_352:\n        /* \"--CODEGEN--\":7464:7579   */\n      swap4\n      pop\n        /* \"--CODEGEN--\":7600:7678   */\n      tag_354\n        /* \"--CODEGEN--\":7672:7677   */\n      dup4\n        /* \"--CODEGEN--\":7600:7678   */\n      jump(tag_355)\n    tag_354:\n        /* \"--CODEGEN--\":7698:7705   */\n      dup1\n        /* \"--CODEGEN--\":7726:7727   */\n      0x00\n        /* \"--CODEGEN--\":7711:8037   */\n    tag_356:\n        /* \"--CODEGEN--\":7736:7742   */\n      dup4\n        /* \"--CODEGEN--\":7733:7734   */\n      dup2\n        /* \"--CODEGEN--\":7730:7743   */\n      lt\n        /* \"--CODEGEN--\":7711:8037   */\n      iszero\n      tag_358\n      jumpi\n        /* \"--CODEGEN--\":7803:7809   */\n      dup2\n        /* \"--CODEGEN--\":7797:7810   */\n      mload\n        /* \"--CODEGEN--\":7824:7931   */\n      tag_359\n        /* \"--CODEGEN--\":7927:7930   */\n      dup9\n        /* \"--CODEGEN--\":7912:7925   */\n      dup3\n        /* \"--CODEGEN--\":7824:7931   */\n      jump(tag_343)\n    tag_359:\n        /* \"--CODEGEN--\":7817:7931   */\n      swap8\n      pop\n        /* \"--CODEGEN--\":7948:8030   */\n      tag_360\n        /* \"--CODEGEN--\":8023:8029   */\n      dup4\n        /* \"--CODEGEN--\":7948:8030   */\n      jump(tag_361)\n    tag_360:\n        /* \"--CODEGEN--\":7938:8030   */\n      swap3\n      pop\n        /* \"--CODEGEN--\":7768:8037   */\n      pop\n        /* \"--CODEGEN--\":7758:7759   */\n      0x01\n        /* \"--CODEGEN--\":7755:7756   */\n      dup2\n        /* \"--CODEGEN--\":7751:7760   */\n      add\n        /* \"--CODEGEN--\":7746:7760   */\n      swap1\n      pop\n        /* \"--CODEGEN--\":7711:8037   */\n      jump(tag_356)\n    tag_358:\n        /* \"--CODEGEN--\":7715:7729   */\n      pop\n        /* \"--CODEGEN--\":8050:8053   */\n      dup6\n        /* \"--CODEGEN--\":8043:8053   */\n      swap4\n      pop\n        /* \"--CODEGEN--\":7361:8059   */\n      pop\n      pop\n      pop\n      swap3\n      swap2\n      pop\n      pop\n      jump\n        /* \"--CODEGEN--\":8067:8170   */\n    tag_362:\n        /* \"--CODEGEN--\":8140:8164   */\n      tag_363\n        /* \"--CODEGEN--\":8158:8163   */\n      dup2\n        /* \"--CODEGEN--\":8140:8164   */\n      jump(tag_364)\n    tag_363:\n        /* \"--CODEGEN--\":8135:8138   */\n      dup3\n        /* \"--CODEGEN--\":8128:8165   */\n      mstore\n        /* \"--CODEGEN--\":8122:8170   */\n      pop\n      pop\n      jump\n        /* \"--CODEGEN--\":8177:8343   */\n    tag_365:\n        /* \"--CODEGEN--\":8280:8337   */\n      tag_366\n        /* \"--CODEGEN--\":8331:8336   */\n      dup2\n        /* \"--CODEGEN--\":8280:8337   */\n      jump(tag_367)\n    tag_366:\n        /* \"--CODEGEN--\":8275:8278   */\n      dup3\n        /* \"--CODEGEN--\":8268:8338   */\n      mstore\n        /* \"--CODEGEN--\":8262:8343   */\n      pop\n      pop\n      jump\n        /* \"--CODEGEN--\":8350:8450   */\n    tag_368:\n        /* \"--CODEGEN--\":8421:8444   */\n      tag_369\n        /* \"--CODEGEN--\":8438:8443   */\n      dup2\n        /* \"--CODEGEN--\":8421:8444   */\n      jump(tag_370)\n    tag_369:\n        /* \"--CODEGEN--\":8416:8419   */\n      dup3\n        /* \"--CODEGEN--\":8409:8445   */\n      mstore\n        /* \"--CODEGEN--\":8403:8450   */\n      pop\n      pop\n      jump\n        /* \"--CODEGEN--\":8457:8567   */\n    tag_371:\n        /* \"--CODEGEN--\":8538:8561   */\n      tag_372\n        /* \"--CODEGEN--\":8555:8560   */\n      dup2\n        /* \"--CODEGEN--\":8538:8561   */\n      jump(tag_370)\n    tag_372:\n        /* \"--CODEGEN--\":8533:8536   */\n      dup3\n        /* \"--CODEGEN--\":8526:8562   */\n      mstore\n        /* \"--CODEGEN--\":8520:8567   */\n      pop\n      pop\n      jump\n        /* \"--CODEGEN--\":8574:8671   */\n    tag_373:\n        /* \"--CODEGEN--\":8643:8665   */\n      tag_374\n        /* \"--CODEGEN--\":8659:8664   */\n      dup2\n        /* \"--CODEGEN--\":8643:8665   */\n      jump(tag_375)\n    tag_374:\n        /* \"--CODEGEN--\":8638:8641   */\n      dup3\n        /* \"--CODEGEN--\":8631:8666   */\n      mstore\n        /* \"--CODEGEN--\":8625:8671   */\n      pop\n      pop\n      jump\n        /* \"--CODEGEN--\":8678:8775   */\n    tag_376:\n        /* \"--CODEGEN--\":8747:8769   */\n      tag_377\n        /* \"--CODEGEN--\":8763:8768   */\n      dup2\n        /* \"--CODEGEN--\":8747:8769   */\n      jump(tag_378)\n    tag_377:\n        /* \"--CODEGEN--\":8742:8745   */\n      dup3\n        /* \"--CODEGEN--\":8735:8770   */\n      mstore\n        /* \"--CODEGEN--\":8729:8775   */\n      pop\n      pop\n      jump\n        /* \"--CODEGEN--\":8782:9121   */\n    tag_379:\n      0x00\n        /* \"--CODEGEN--\":8890:8925   */\n      tag_380\n        /* \"--CODEGEN--\":8919:8924   */\n      dup3\n        /* \"--CODEGEN--\":8890:8925   */\n      jump(tag_381)\n    tag_380:\n        /* \"--CODEGEN--\":8937:9008   */\n      tag_382\n        /* \"--CODEGEN--\":9001:9007   */\n      dup2\n        /* \"--CODEGEN--\":8996:8999   */\n      dup6\n        /* \"--CODEGEN--\":8937:9008   */\n      jump(tag_383)\n    tag_382:\n        /* \"--CODEGEN--\":8930:9008   */\n      swap4\n      pop\n        /* \"--CODEGEN--\":9013:9065   */\n      tag_384\n        /* \"--CODEGEN--\":9058:9064   */\n      dup2\n        /* \"--CODEGEN--\":9053:9056   */\n      dup6\n        /* \"--CODEGEN--\":9046:9050   */\n      0x20\n        /* \"--CODEGEN--\":9039:9044   */\n      dup7\n        /* \"--CODEGEN--\":9035:9051   */\n      add\n        /* \"--CODEGEN--\":9013:9065   */\n      jump(tag_385)\n    tag_384:\n        /* \"--CODEGEN--\":9086:9115   */\n      tag_386\n        /* \"--CODEGEN--\":9108:9114   */\n      dup2\n        /* \"--CODEGEN--\":9086:9115   */\n      jump(tag_387)\n    tag_386:\n        /* \"--CODEGEN--\":9081:9084   */\n      dup5\n        /* \"--CODEGEN--\":9077:9116   */\n      add\n        /* \"--CODEGEN--\":9070:9116   */\n      swap2\n      pop\n        /* \"--CODEGEN--\":8870:9121   */\n      pop\n      swap3\n      swap2\n      pop\n      pop\n      jump\n        /* \"--CODEGEN--\":9153:9976   */\n    tag_388:\n      0x00\n        /* \"--CODEGEN--\":9272:9277   */\n      dup2\n        /* \"--CODEGEN--\":9266:9278   */\n      sload\n        /* \"--CODEGEN--\":9306:9307   */\n      0x01\n        /* \"--CODEGEN--\":9295:9304   */\n      dup2\n        /* \"--CODEGEN--\":9291:9308   */\n      and\n        /* \"--CODEGEN--\":9319:9320   */\n      0x00\n        /* \"--CODEGEN--\":9314:9562   */\n      dup2\n      eq\n      tag_390\n      jumpi\n        /* \"--CODEGEN--\":9573:9574   */\n      0x01\n        /* \"--CODEGEN--\":9568:9970   */\n      dup2\n      eq\n      tag_391\n      jumpi\n        /* \"--CODEGEN--\":9284:9970   */\n      jump(tag_389)\n        /* \"--CODEGEN--\":9314:9562   */\n    tag_390:\n        /* \"--CODEGEN--\":9392:9396   */\n      0x7f\n        /* \"--CODEGEN--\":9388:9389   */\n      0x02\n        /* \"--CODEGEN--\":9377:9386   */\n      dup4\n        /* \"--CODEGEN--\":9373:9390   */\n      div\n        /* \"--CODEGEN--\":9369:9397   */\n      and\n        /* \"--CODEGEN--\":9411:9482   */\n      tag_392\n        /* \"--CODEGEN--\":9475:9481   */\n      dup2\n        /* \"--CODEGEN--\":9470:9473   */\n      dup8\n        /* \"--CODEGEN--\":9411:9482   */\n      jump(tag_383)\n    tag_392:\n        /* \"--CODEGEN--\":9404:9482   */\n      swap6\n      pop\n        /* \"--CODEGEN--\":9520:9524   */\n      0xff\n        /* \"--CODEGEN--\":9516:9525   */\n      not\n        /* \"--CODEGEN--\":9505:9514   */\n      dup4\n        /* \"--CODEGEN--\":9501:9526   */\n      and\n        /* \"--CODEGEN--\":9496:9499   */\n      dup7\n        /* \"--CODEGEN--\":9489:9527   */\n      mstore\n        /* \"--CODEGEN--\":9550:9554   */\n      0x20\n        /* \"--CODEGEN--\":9545:9548   */\n      dup7\n        /* \"--CODEGEN--\":9541:9555   */\n      add\n        /* \"--CODEGEN--\":9534:9555   */\n      swap4\n      pop\n        /* \"--CODEGEN--\":9321:9562   */\n      pop\n        /* \"--CODEGEN--\":9314:9562   */\n      jump(tag_389)\n        /* \"--CODEGEN--\":9568:9970   */\n    tag_391:\n        /* \"--CODEGEN--\":9637:9638   */\n      0x02\n        /* \"--CODEGEN--\":9626:9635   */\n      dup3\n        /* \"--CODEGEN--\":9622:9639   */\n      div\n        /* \"--CODEGEN--\":9653:9724   */\n      tag_393\n        /* \"--CODEGEN--\":9717:9723   */\n      dup2\n        /* \"--CODEGEN--\":9712:9715   */\n      dup8\n        /* \"--CODEGEN--\":9653:9724   */\n      jump(tag_383)\n    tag_393:\n        /* \"--CODEGEN--\":9646:9724   */\n      swap6\n      pop\n        /* \"--CODEGEN--\":9746:9784   */\n      tag_394\n        /* \"--CODEGEN--\":9778:9783   */\n      dup6\n        /* \"--CODEGEN--\":9746:9784   */\n      jump(tag_395)\n    tag_394:\n        /* \"--CODEGEN--\":9800:9801   */\n      0x00\n        /* \"--CODEGEN--\":9808:9938   */\n    tag_396:\n        /* \"--CODEGEN--\":9822:9828   */\n      dup3\n        /* \"--CODEGEN--\":9819:9820   */\n      dup2\n        /* \"--CODEGEN--\":9816:9829   */\n      lt\n        /* \"--CODEGEN--\":9808:9938   */\n      iszero\n      tag_398\n      jumpi\n        /* \"--CODEGEN--\":9887:9894   */\n      dup2\n        /* \"--CODEGEN--\":9881:9895   */\n      sload\n        /* \"--CODEGEN--\":9877:9878   */\n      dup2\n        /* \"--CODEGEN--\":9872:9875   */\n      dup10\n        /* \"--CODEGEN--\":9868:9879   */\n      add\n        /* \"--CODEGEN--\":9861:9896   */\n      mstore\n        /* \"--CODEGEN--\":9928:9929   */\n      0x01\n        /* \"--CODEGEN--\":9919:9926   */\n      dup3\n        /* \"--CODEGEN--\":9915:9930   */\n      add\n        /* \"--CODEGEN--\":9904:9930   */\n      swap2\n      pop\n        /* \"--CODEGEN--\":9844:9848   */\n      0x20\n        /* \"--CODEGEN--\":9841:9842   */\n      dup2\n        /* \"--CODEGEN--\":9837:9849   */\n      add\n        /* \"--CODEGEN--\":9832:9849   */\n      swap1\n      pop\n        /* \"--CODEGEN--\":9808:9938   */\n      jump(tag_396)\n    tag_398:\n        /* \"--CODEGEN--\":9961:9962   */\n      dup1\n        /* \"--CODEGEN--\":9956:9959   */\n      dup9\n        /* \"--CODEGEN--\":9952:9963   */\n      add\n        /* \"--CODEGEN--\":9945:9963   */\n      swap6\n      pop\n        /* \"--CODEGEN--\":9575:9970   */\n      pop\n      pop\n      pop\n        /* \"--CODEGEN--\":9284:9970   */\n    tag_389:\n      pop\n        /* \"--CODEGEN--\":9242:9976   */\n      pop\n      swap3\n      swap2\n      pop\n      pop\n      jump\n        /* \"--CODEGEN--\":9985:10375   */\n    tag_399:\n      0x00\n        /* \"--CODEGEN--\":10145:10212   */\n      tag_400\n        /* \"--CODEGEN--\":10209:10211   */\n      0x35\n        /* \"--CODEGEN--\":10204:10207   */\n      dup4\n        /* \"--CODEGEN--\":10145:10212   */\n      jump(tag_383)\n    tag_400:\n        /* \"--CODEGEN--\":10138:10212   */\n      swap2\n      pop\n        /* \"--CODEGEN--\":10245:10279   */\n      0x596f75206d757374206265206e6f6d696e61746564206265666f726520796f75\n        /* \"--CODEGEN--\":10241:10242   */\n      0x00\n        /* \"--CODEGEN--\":10236:10239   */\n      dup4\n        /* \"--CODEGEN--\":10232:10243   */\n      add\n        /* \"--CODEGEN--\":10225:10280   */\n      mstore\n        /* \"--CODEGEN--\":10314:10337   */\n      0x2063616e20616363657074206f776e6572736869700000000000000000000000\n        /* \"--CODEGEN--\":10309:10311   */\n      0x20\n        /* \"--CODEGEN--\":10304:10307   */\n      dup4\n        /* \"--CODEGEN--\":10300:10312   */\n      add\n        /* \"--CODEGEN--\":10293:10338   */\n      mstore\n        /* \"--CODEGEN--\":10366:10368   */\n      0x40\n        /* \"--CODEGEN--\":10361:10364   */\n      dup3\n        /* \"--CODEGEN--\":10357:10369   */\n      add\n        /* \"--CODEGEN--\":10350:10369   */\n      swap1\n      pop\n        /* \"--CODEGEN--\":10131:10375   */\n      swap2\n      swap1\n      pop\n      jump\n        /* \"--CODEGEN--\":10384:10768   */\n    tag_401:\n      0x00\n        /* \"--CODEGEN--\":10544:10611   */\n      tag_402\n        /* \"--CODEGEN--\":10608:10610   */\n      0x2f\n        /* \"--CODEGEN--\":10603:10606   */\n      dup4\n        /* \"--CODEGEN--\":10544:10611   */\n      jump(tag_383)\n    tag_402:\n        /* \"--CODEGEN--\":10537:10611   */\n      swap2\n      pop\n        /* \"--CODEGEN--\":10644:10678   */\n      0x4f6e6c792074686520636f6e7472616374206f776e6572206d61792070657266\n        /* \"--CODEGEN--\":10640:10641   */\n      0x00\n        /* \"--CODEGEN--\":10635:10638   */\n      dup4\n        /* \"--CODEGEN--\":10631:10642   */\n      add\n        /* \"--CODEGEN--\":10624:10679   */\n      mstore\n        /* \"--CODEGEN--\":10713:10730   */\n      0x6f726d207468697320616374696f6e0000000000000000000000000000000000\n        /* \"--CODEGEN--\":10708:10710   */\n      0x20\n        /* \"--CODEGEN--\":10703:10706   */\n      dup4\n        /* \"--CODEGEN--\":10699:10711   */\n      add\n        /* \"--CODEGEN--\":10692:10731   */\n      mstore\n        /* \"--CODEGEN--\":10759:10761   */\n      0x40\n        /* \"--CODEGEN--\":10754:10757   */\n      dup3\n        /* \"--CODEGEN--\":10750:10762   */\n      add\n        /* \"--CODEGEN--\":10743:10762   */\n      swap1\n      pop\n        /* \"--CODEGEN--\":10530:10768   */\n      swap2\n      swap1\n      pop\n      jump\n        /* \"--CODEGEN--\":10777:11094   */\n    tag_403:\n      0x00\n        /* \"--CODEGEN--\":10937:11004   */\n      tag_404\n        /* \"--CODEGEN--\":11001:11003   */\n      0x11\n        /* \"--CODEGEN--\":10996:10999   */\n      dup4\n        /* \"--CODEGEN--\":10937:11004   */\n      jump(tag_383)\n    tag_404:\n        /* \"--CODEGEN--\":10930:11004   */\n      swap2\n      pop\n        /* \"--CODEGEN--\":11037:11056   */\n      0x7769746864726177616c206661696c6564000000000000000000000000000000\n        /* \"--CODEGEN--\":11033:11034   */\n      0x00\n        /* \"--CODEGEN--\":11028:11031   */\n      dup4\n        /* \"--CODEGEN--\":11024:11035   */\n      add\n        /* \"--CODEGEN--\":11017:11057   */\n      mstore\n        /* \"--CODEGEN--\":11085:11087   */\n      0x20\n        /* \"--CODEGEN--\":11080:11083   */\n      dup3\n        /* \"--CODEGEN--\":11076:11088   */\n      add\n        /* \"--CODEGEN--\":11069:11088   */\n      swap1\n      pop\n        /* \"--CODEGEN--\":10923:11094   */\n      swap2\n      swap1\n      pop\n      jump\n        /* \"--CODEGEN--\":11103:11399   */\n    tag_405:\n      0x00\n        /* \"--CODEGEN--\":11280:11363   */\n      tag_406\n        /* \"--CODEGEN--\":11361:11362   */\n      0x00\n        /* \"--CODEGEN--\":11356:11359   */\n      dup4\n        /* \"--CODEGEN--\":11280:11363   */\n      jump(tag_407)\n    tag_406:\n        /* \"--CODEGEN--\":11273:11363   */\n      swap2\n      pop\n        /* \"--CODEGEN--\":11391:11392   */\n      0x00\n        /* \"--CODEGEN--\":11386:11389   */\n      dup3\n        /* \"--CODEGEN--\":11382:11393   */\n      add\n        /* \"--CODEGEN--\":11375:11393   */\n      swap1\n      pop\n        /* \"--CODEGEN--\":11266:11399   */\n      swap2\n      swap1\n      pop\n      jump\n        /* \"--CODEGEN--\":11474:12177   */\n    tag_345:\n        /* \"--CODEGEN--\":11605:11611   */\n      0x0120\n        /* \"--CODEGEN--\":11600:11603   */\n      dup3\n        /* \"--CODEGEN--\":11596:11612   */\n      add\n        /* \"--CODEGEN--\":11688:11692   */\n      0x00\n        /* \"--CODEGEN--\":11681:11686   */\n      dup3\n        /* \"--CODEGEN--\":11677:11693   */\n      add\n        /* \"--CODEGEN--\":11671:11694   */\n      mload\n        /* \"--CODEGEN--\":11700:11763   */\n      tag_408\n        /* \"--CODEGEN--\":11757:11761   */\n      0x00\n        /* \"--CODEGEN--\":11752:11755   */\n      dup6\n        /* \"--CODEGEN--\":11748:11762   */\n      add\n        /* \"--CODEGEN--\":11734:11746   */\n      dup3\n        /* \"--CODEGEN--\":11700:11763   */\n      jump(tag_362)\n    tag_408:\n        /* \"--CODEGEN--\":11627:11769   */\n      pop\n        /* \"--CODEGEN--\":11843:11847   */\n      0x20\n        /* \"--CODEGEN--\":11836:11841   */\n      dup3\n        /* \"--CODEGEN--\":11832:11848   */\n      add\n        /* \"--CODEGEN--\":11826:11849   */\n      mload\n        /* \"--CODEGEN--\":11855:11958   */\n      tag_409\n        /* \"--CODEGEN--\":11952:11956   */\n      0x20\n        /* \"--CODEGEN--\":11947:11950   */\n      dup6\n        /* \"--CODEGEN--\":11943:11957   */\n      add\n        /* \"--CODEGEN--\":11929:11941   */\n      dup3\n        /* \"--CODEGEN--\":11855:11958   */\n      jump(tag_410)\n    tag_409:\n        /* \"--CODEGEN--\":11779:11964   */\n      pop\n        /* \"--CODEGEN--\":12041:12045   */\n      0x40\n        /* \"--CODEGEN--\":12034:12039   */\n      dup3\n        /* \"--CODEGEN--\":12030:12046   */\n      add\n        /* \"--CODEGEN--\":12024:12047   */\n      mload\n        /* \"--CODEGEN--\":12053:12156   */\n      tag_411\n        /* \"--CODEGEN--\":12150:12154   */\n      0xa0\n        /* \"--CODEGEN--\":12145:12148   */\n      dup6\n        /* \"--CODEGEN--\":12141:12155   */\n      add\n        /* \"--CODEGEN--\":12127:12139   */\n      dup3\n        /* \"--CODEGEN--\":12053:12156   */\n      jump(tag_410)\n    tag_411:\n        /* \"--CODEGEN--\":11974:12162   */\n      pop\n        /* \"--CODEGEN--\":11578:12177   */\n      pop\n      pop\n      pop\n      jump\n        /* \"--CODEGEN--\":12243:13019   */\n    tag_412:\n        /* \"--CODEGEN--\":12380:12384   */\n      0x80\n        /* \"--CODEGEN--\":12375:12378   */\n      dup3\n        /* \"--CODEGEN--\":12371:12385   */\n      add\n        /* \"--CODEGEN--\":12464:12468   */\n      0x00\n        /* \"--CODEGEN--\":12457:12462   */\n      dup3\n        /* \"--CODEGEN--\":12453:12469   */\n      add\n        /* \"--CODEGEN--\":12447:12470   */\n      mload\n        /* \"--CODEGEN--\":12476:12535   */\n      tag_413\n        /* \"--CODEGEN--\":12529:12533   */\n      0x00\n        /* \"--CODEGEN--\":12524:12527   */\n      dup6\n        /* \"--CODEGEN--\":12520:12534   */\n      add\n        /* \"--CODEGEN--\":12506:12518   */\n      dup3\n        /* \"--CODEGEN--\":12476:12535   */\n      jump(tag_376)\n    tag_413:\n        /* \"--CODEGEN--\":12400:12541   */\n      pop\n        /* \"--CODEGEN--\":12614:12618   */\n      0x20\n        /* \"--CODEGEN--\":12607:12612   */\n      dup3\n        /* \"--CODEGEN--\":12603:12619   */\n      add\n        /* \"--CODEGEN--\":12597:12620   */\n      mload\n        /* \"--CODEGEN--\":12626:12687   */\n      tag_414\n        /* \"--CODEGEN--\":12681:12685   */\n      0x20\n        /* \"--CODEGEN--\":12676:12679   */\n      dup6\n        /* \"--CODEGEN--\":12672:12686   */\n      add\n        /* \"--CODEGEN--\":12658:12670   */\n      dup3\n        /* \"--CODEGEN--\":12626:12687   */\n      jump(tag_415)\n    tag_414:\n        /* \"--CODEGEN--\":12551:12693   */\n      pop\n        /* \"--CODEGEN--\":12766:12770   */\n      0x40\n        /* \"--CODEGEN--\":12759:12764   */\n      dup3\n        /* \"--CODEGEN--\":12755:12771   */\n      add\n        /* \"--CODEGEN--\":12749:12772   */\n      mload\n        /* \"--CODEGEN--\":12778:12837   */\n      tag_416\n        /* \"--CODEGEN--\":12831:12835   */\n      0x40\n        /* \"--CODEGEN--\":12826:12829   */\n      dup6\n        /* \"--CODEGEN--\":12822:12836   */\n      add\n        /* \"--CODEGEN--\":12808:12820   */\n      dup3\n        /* \"--CODEGEN--\":12778:12837   */\n      jump(tag_373)\n    tag_416:\n        /* \"--CODEGEN--\":12703:12843   */\n      pop\n        /* \"--CODEGEN--\":12923:12927   */\n      0x60\n        /* \"--CODEGEN--\":12916:12921   */\n      dup3\n        /* \"--CODEGEN--\":12912:12928   */\n      add\n        /* \"--CODEGEN--\":12906:12929   */\n      mload\n        /* \"--CODEGEN--\":12935:12998   */\n      tag_417\n        /* \"--CODEGEN--\":12992:12996   */\n      0x60\n        /* \"--CODEGEN--\":12987:12990   */\n      dup6\n        /* \"--CODEGEN--\":12983:12997   */\n      add\n        /* \"--CODEGEN--\":12969:12981   */\n      dup3\n        /* \"--CODEGEN--\":12935:12998   */\n      jump(tag_418)\n    tag_417:\n        /* \"--CODEGEN--\":12853:13004   */\n      pop\n        /* \"--CODEGEN--\":12353:13019   */\n      pop\n      pop\n      pop\n      jump\n        /* \"--CODEGEN--\":13085:13847   */\n    tag_410:\n        /* \"--CODEGEN--\":13208:13212   */\n      0x80\n        /* \"--CODEGEN--\":13203:13206   */\n      dup3\n        /* \"--CODEGEN--\":13199:13213   */\n      add\n        /* \"--CODEGEN--\":13292:13296   */\n      0x00\n        /* \"--CODEGEN--\":13285:13290   */\n      dup3\n        /* \"--CODEGEN--\":13281:13297   */\n      add\n        /* \"--CODEGEN--\":13275:13298   */\n      mload\n        /* \"--CODEGEN--\":13304:13363   */\n      tag_419\n        /* \"--CODEGEN--\":13357:13361   */\n      0x00\n        /* \"--CODEGEN--\":13352:13355   */\n      dup6\n        /* \"--CODEGEN--\":13348:13362   */\n      add\n        /* \"--CODEGEN--\":13334:13346   */\n      dup3\n        /* \"--CODEGEN--\":13304:13363   */\n      jump(tag_376)\n    tag_419:\n        /* \"--CODEGEN--\":13228:13369   */\n      pop\n        /* \"--CODEGEN--\":13442:13446   */\n      0x20\n        /* \"--CODEGEN--\":13435:13440   */\n      dup3\n        /* \"--CODEGEN--\":13431:13447   */\n      add\n        /* \"--CODEGEN--\":13425:13448   */\n      mload\n        /* \"--CODEGEN--\":13454:13515   */\n      tag_420\n        /* \"--CODEGEN--\":13509:13513   */\n      0x20\n        /* \"--CODEGEN--\":13504:13507   */\n      dup6\n        /* \"--CODEGEN--\":13500:13514   */\n      add\n        /* \"--CODEGEN--\":13486:13498   */\n      dup3\n        /* \"--CODEGEN--\":13454:13515   */\n      jump(tag_415)\n    tag_420:\n        /* \"--CODEGEN--\":13379:13521   */\n      pop\n        /* \"--CODEGEN--\":13594:13598   */\n      0x40\n        /* \"--CODEGEN--\":13587:13592   */\n      dup3\n        /* \"--CODEGEN--\":13583:13599   */\n      add\n        /* \"--CODEGEN--\":13577:13600   */\n      mload\n        /* \"--CODEGEN--\":13606:13665   */\n      tag_421\n        /* \"--CODEGEN--\":13659:13663   */\n      0x40\n        /* \"--CODEGEN--\":13654:13657   */\n      dup6\n        /* \"--CODEGEN--\":13650:13664   */\n      add\n        /* \"--CODEGEN--\":13636:13648   */\n      dup3\n        /* \"--CODEGEN--\":13606:13665   */\n      jump(tag_373)\n    tag_421:\n        /* \"--CODEGEN--\":13531:13671   */\n      pop\n        /* \"--CODEGEN--\":13751:13755   */\n      0x60\n        /* \"--CODEGEN--\":13744:13749   */\n      dup3\n        /* \"--CODEGEN--\":13740:13756   */\n      add\n        /* \"--CODEGEN--\":13734:13757   */\n      mload\n        /* \"--CODEGEN--\":13763:13826   */\n      tag_422\n        /* \"--CODEGEN--\":13820:13824   */\n      0x60\n        /* \"--CODEGEN--\":13815:13818   */\n      dup6\n        /* \"--CODEGEN--\":13811:13825   */\n      add\n        /* \"--CODEGEN--\":13797:13809   */\n      dup3\n        /* \"--CODEGEN--\":13763:13826   */\n      jump(tag_418)\n    tag_422:\n        /* \"--CODEGEN--\":13681:13832   */\n      pop\n        /* \"--CODEGEN--\":13181:13847   */\n      pop\n      pop\n      pop\n      jump\n        /* \"--CODEGEN--\":13935:14414   */\n    tag_423:\n        /* \"--CODEGEN--\":14082:14086   */\n      0x40\n        /* \"--CODEGEN--\":14077:14080   */\n      dup3\n        /* \"--CODEGEN--\":14073:14087   */\n      add\n        /* \"--CODEGEN--\":14165:14169   */\n      0x00\n        /* \"--CODEGEN--\":14158:14163   */\n      dup3\n        /* \"--CODEGEN--\":14154:14170   */\n      add\n        /* \"--CODEGEN--\":14148:14171   */\n      mload\n        /* \"--CODEGEN--\":14177:14238   */\n      tag_424\n        /* \"--CODEGEN--\":14232:14236   */\n      0x00\n        /* \"--CODEGEN--\":14227:14230   */\n      dup6\n        /* \"--CODEGEN--\":14223:14237   */\n      add\n        /* \"--CODEGEN--\":14209:14221   */\n      dup3\n        /* \"--CODEGEN--\":14177:14238   */\n      jump(tag_368)\n    tag_424:\n        /* \"--CODEGEN--\":14102:14244   */\n      pop\n        /* \"--CODEGEN--\":14318:14322   */\n      0x20\n        /* \"--CODEGEN--\":14311:14316   */\n      dup3\n        /* \"--CODEGEN--\":14307:14323   */\n      add\n        /* \"--CODEGEN--\":14301:14324   */\n      mload\n        /* \"--CODEGEN--\":14330:14393   */\n      tag_425\n        /* \"--CODEGEN--\":14387:14391   */\n      0x20\n        /* \"--CODEGEN--\":14382:14385   */\n      dup6\n        /* \"--CODEGEN--\":14378:14392   */\n      add\n        /* \"--CODEGEN--\":14364:14376   */\n      dup3\n        /* \"--CODEGEN--\":14330:14393   */\n      jump(tag_418)\n    tag_425:\n        /* \"--CODEGEN--\":14254:14399   */\n      pop\n        /* \"--CODEGEN--\":14055:14414   */\n      pop\n      pop\n      pop\n      jump\n        /* \"--CODEGEN--\":14421:14524   */\n    tag_418:\n        /* \"--CODEGEN--\":14494:14518   */\n      tag_426\n        /* \"--CODEGEN--\":14512:14517   */\n      dup2\n        /* \"--CODEGEN--\":14494:14518   */\n      jump(tag_427)\n    tag_426:\n        /* \"--CODEGEN--\":14489:14492   */\n      dup3\n        /* \"--CODEGEN--\":14482:14519   */\n      mstore\n        /* \"--CODEGEN--\":14476:14524   */\n      pop\n      pop\n      jump\n        /* \"--CODEGEN--\":14531:14644   */\n    tag_428:\n        /* \"--CODEGEN--\":14614:14638   */\n      tag_429\n        /* \"--CODEGEN--\":14632:14637   */\n      dup2\n        /* \"--CODEGEN--\":14614:14638   */\n      jump(tag_427)\n    tag_429:\n        /* \"--CODEGEN--\":14609:14612   */\n      dup3\n        /* \"--CODEGEN--\":14602:14639   */\n      mstore\n        /* \"--CODEGEN--\":14596:14644   */\n      pop\n      pop\n      jump\n        /* \"--CODEGEN--\":14651:14751   */\n    tag_415:\n        /* \"--CODEGEN--\":14722:14745   */\n      tag_430\n        /* \"--CODEGEN--\":14739:14744   */\n      dup2\n        /* \"--CODEGEN--\":14722:14745   */\n      jump(tag_431)\n    tag_430:\n        /* \"--CODEGEN--\":14717:14720   */\n      dup3\n        /* \"--CODEGEN--\":14710:14746   */\n      mstore\n        /* \"--CODEGEN--\":14704:14751   */\n      pop\n      pop\n      jump\n        /* \"--CODEGEN--\":14758:14868   */\n    tag_432:\n        /* \"--CODEGEN--\":14839:14862   */\n      tag_433\n        /* \"--CODEGEN--\":14856:14861   */\n      dup2\n        /* \"--CODEGEN--\":14839:14862   */\n      jump(tag_434)\n    tag_433:\n        /* \"--CODEGEN--\":14834:14837   */\n      dup3\n        /* \"--CODEGEN--\":14827:14863   */\n      mstore\n        /* \"--CODEGEN--\":14821:14868   */\n      pop\n      pop\n      jump\n        /* \"--CODEGEN--\":14875:14982   */\n    tag_435:\n        /* \"--CODEGEN--\":14954:14976   */\n      tag_436\n        /* \"--CODEGEN--\":14970:14975   */\n      dup2\n        /* \"--CODEGEN--\":14954:14976   */\n      jump(tag_437)\n    tag_436:\n        /* \"--CODEGEN--\":14949:14952   */\n      dup3\n        /* \"--CODEGEN--\":14942:14977   */\n      mstore\n        /* \"--CODEGEN--\":14936:14982   */\n      pop\n      pop\n      jump\n        /* \"--CODEGEN--\":14989:15359   */\n    tag_188:\n      0x00\n        /* \"--CODEGEN--\":15187:15334   */\n      tag_438\n        /* \"--CODEGEN--\":15330:15333   */\n      dup3\n        /* \"--CODEGEN--\":15187:15334   */\n      jump(tag_405)\n    tag_438:\n        /* \"--CODEGEN--\":15180:15334   */\n      swap2\n      pop\n        /* \"--CODEGEN--\":15351:15354   */\n      dup2\n        /* \"--CODEGEN--\":15344:15354   */\n      swap1\n      pop\n        /* \"--CODEGEN--\":15168:15359   */\n      swap2\n      swap1\n      pop\n      jump\n        /* \"--CODEGEN--\":15366:15579   */\n    tag_72:\n      0x00\n        /* \"--CODEGEN--\":15484:15486   */\n      0x20\n        /* \"--CODEGEN--\":15473:15482   */\n      dup3\n        /* \"--CODEGEN--\":15469:15487   */\n      add\n        /* \"--CODEGEN--\":15461:15487   */\n      swap1\n      pop\n        /* \"--CODEGEN--\":15498:15569   */\n      tag_439\n        /* \"--CODEGEN--\":15566:15567   */\n      0x00\n        /* \"--CODEGEN--\":15555:15564   */\n      dup4\n        /* \"--CODEGEN--\":15551:15568   */\n      add\n        /* \"--CODEGEN--\":15542:15548   */\n      dup5\n        /* \"--CODEGEN--\":15498:15569   */\n      jump(tag_346)\n    tag_439:\n        /* \"--CODEGEN--\":15455:15579   */\n      swap3\n      swap2\n      pop\n      pop\n      jump\n        /* \"--CODEGEN--\":15586:15910   */\n    tag_220:\n      0x00\n        /* \"--CODEGEN--\":15732:15734   */\n      0x40\n        /* \"--CODEGEN--\":15721:15730   */\n      dup3\n        /* \"--CODEGEN--\":15717:15735   */\n      add\n        /* \"--CODEGEN--\":15709:15735   */\n      swap1\n      pop\n        /* \"--CODEGEN--\":15746:15817   */\n      tag_440\n        /* \"--CODEGEN--\":15814:15815   */\n      0x00\n        /* \"--CODEGEN--\":15803:15812   */\n      dup4\n        /* \"--CODEGEN--\":15799:15816   */\n      add\n        /* \"--CODEGEN--\":15790:15796   */\n      dup6\n        /* \"--CODEGEN--\":15746:15817   */\n      jump(tag_346)\n    tag_440:\n        /* \"--CODEGEN--\":15828:15900   */\n      tag_441\n        /* \"--CODEGEN--\":15896:15898   */\n      0x20\n        /* \"--CODEGEN--\":15885:15894   */\n      dup4\n        /* \"--CODEGEN--\":15881:15899   */\n      add\n        /* \"--CODEGEN--\":15872:15878   */\n      dup5\n        /* \"--CODEGEN--\":15828:15900   */\n      jump(tag_346)\n    tag_441:\n        /* \"--CODEGEN--\":15703:15910   */\n      swap4\n      swap3\n      pop\n      pop\n      pop\n      jump\n        /* \"--CODEGEN--\":15917:16366   */\n    tag_62:\n      0x00\n        /* \"--CODEGEN--\":16129:16131   */\n      0x20\n        /* \"--CODEGEN--\":16118:16127   */\n      dup3\n        /* \"--CODEGEN--\":16114:16132   */\n      add\n        /* \"--CODEGEN--\":16106:16132   */\n      swap1\n      pop\n        /* \"--CODEGEN--\":16179:16188   */\n      dup2\n        /* \"--CODEGEN--\":16173:16177   */\n      dup2\n        /* \"--CODEGEN--\":16169:16189   */\n      sub\n        /* \"--CODEGEN--\":16165:16166   */\n      0x00\n        /* \"--CODEGEN--\":16154:16163   */\n      dup4\n        /* \"--CODEGEN--\":16150:16167   */\n      add\n        /* \"--CODEGEN--\":16143:16190   */\n      mstore\n        /* \"--CODEGEN--\":16204:16356   */\n      tag_442\n        /* \"--CODEGEN--\":16351:16355   */\n      dup2\n        /* \"--CODEGEN--\":16342:16348   */\n      dup5\n        /* \"--CODEGEN--\":16204:16356   */\n      jump(tag_349)\n    tag_442:\n        /* \"--CODEGEN--\":16196:16356   */\n      swap1\n      pop\n        /* \"--CODEGEN--\":16100:16366   */\n      swap3\n      swap2\n      pop\n      pop\n      jump\n        /* \"--CODEGEN--\":16373:16626   */\n    tag_109:\n      0x00\n        /* \"--CODEGEN--\":16511:16513   */\n      0x20\n        /* \"--CODEGEN--\":16500:16509   */\n      dup3\n        /* \"--CODEGEN--\":16496:16514   */\n      add\n        /* \"--CODEGEN--\":16488:16514   */\n      swap1\n      pop\n        /* \"--CODEGEN--\":16525:16616   */\n      tag_443\n        /* \"--CODEGEN--\":16613:16614   */\n      0x00\n        /* \"--CODEGEN--\":16602:16611   */\n      dup4\n        /* \"--CODEGEN--\":16598:16615   */\n      add\n        /* \"--CODEGEN--\":16589:16595   */\n      dup5\n        /* \"--CODEGEN--\":16525:16616   */\n      jump(tag_365)\n    tag_443:\n        /* \"--CODEGEN--\":16482:16626   */\n      swap3\n      swap2\n      pop\n      pop\n      jump\n        /* \"--CODEGEN--\":16633:16842   */\n    tag_136:\n      0x00\n        /* \"--CODEGEN--\":16749:16751   */\n      0x20\n        /* \"--CODEGEN--\":16738:16747   */\n      dup3\n        /* \"--CODEGEN--\":16734:16752   */\n      add\n        /* \"--CODEGEN--\":16726:16752   */\n      swap1\n      pop\n        /* \"--CODEGEN--\":16763:16832   */\n      tag_444\n        /* \"--CODEGEN--\":16829:16830   */\n      0x00\n        /* \"--CODEGEN--\":16818:16827   */\n      dup4\n        /* \"--CODEGEN--\":16814:16831   */\n      add\n        /* \"--CODEGEN--\":16805:16811   */\n      dup5\n        /* \"--CODEGEN--\":16763:16832   */\n      jump(tag_371)\n    tag_444:\n        /* \"--CODEGEN--\":16720:16842   */\n      swap3\n      swap2\n      pop\n      pop\n      jump\n        /* \"--CODEGEN--\":16849:17142   */\n    tag_67:\n      0x00\n        /* \"--CODEGEN--\":16983:16985   */\n      0x20\n        /* \"--CODEGEN--\":16972:16981   */\n      dup3\n        /* \"--CODEGEN--\":16968:16986   */\n      add\n        /* \"--CODEGEN--\":16960:16986   */\n      swap1\n      pop\n        /* \"--CODEGEN--\":17033:17042   */\n      dup2\n        /* \"--CODEGEN--\":17027:17031   */\n      dup2\n        /* \"--CODEGEN--\":17023:17043   */\n      sub\n        /* \"--CODEGEN--\":17019:17020   */\n      0x00\n        /* \"--CODEGEN--\":17008:17017   */\n      dup4\n        /* \"--CODEGEN--\":17004:17021   */\n      add\n        /* \"--CODEGEN--\":16997:17044   */\n      mstore\n        /* \"--CODEGEN--\":17058:17132   */\n      tag_445\n        /* \"--CODEGEN--\":17127:17131   */\n      dup2\n        /* \"--CODEGEN--\":17118:17124   */\n      dup5\n        /* \"--CODEGEN--\":17058:17132   */\n      jump(tag_379)\n    tag_445:\n        /* \"--CODEGEN--\":17050:17132   */\n      swap1\n      pop\n        /* \"--CODEGEN--\":16954:17142   */\n      swap3\n      swap2\n      pop\n      pop\n      jump\n        /* \"--CODEGEN--\":17149:17637   */\n    tag_203:\n      0x00\n        /* \"--CODEGEN--\":17329:17331   */\n      0x40\n        /* \"--CODEGEN--\":17318:17327   */\n      dup3\n        /* \"--CODEGEN--\":17314:17332   */\n      add\n        /* \"--CODEGEN--\":17306:17332   */\n      swap1\n      pop\n        /* \"--CODEGEN--\":17379:17388   */\n      dup2\n        /* \"--CODEGEN--\":17373:17377   */\n      dup2\n        /* \"--CODEGEN--\":17369:17389   */\n      sub\n        /* \"--CODEGEN--\":17365:17366   */\n      0x00\n        /* \"--CODEGEN--\":17354:17363   */\n      dup4\n        /* \"--CODEGEN--\":17350:17367   */\n      add\n        /* \"--CODEGEN--\":17343:17390   */\n      mstore\n        /* \"--CODEGEN--\":17404:17479   */\n      tag_446\n        /* \"--CODEGEN--\":17474:17478   */\n      dup2\n        /* \"--CODEGEN--\":17465:17471   */\n      dup6\n        /* \"--CODEGEN--\":17404:17479   */\n      jump(tag_388)\n    tag_446:\n        /* \"--CODEGEN--\":17396:17479   */\n      swap1\n      pop\n        /* \"--CODEGEN--\":17527:17536   */\n      dup2\n        /* \"--CODEGEN--\":17521:17525   */\n      dup2\n        /* \"--CODEGEN--\":17517:17537   */\n      sub\n        /* \"--CODEGEN--\":17512:17514   */\n      0x20\n        /* \"--CODEGEN--\":17501:17510   */\n      dup4\n        /* \"--CODEGEN--\":17497:17515   */\n      add\n        /* \"--CODEGEN--\":17490:17538   */\n      mstore\n        /* \"--CODEGEN--\":17552:17627   */\n      tag_447\n        /* \"--CODEGEN--\":17622:17626   */\n      dup2\n        /* \"--CODEGEN--\":17613:17619   */\n      dup5\n        /* \"--CODEGEN--\":17552:17627   */\n      jump(tag_388)\n    tag_447:\n        /* \"--CODEGEN--\":17544:17627   */\n      swap1\n      pop\n        /* \"--CODEGEN--\":17300:17637   */\n      swap4\n      swap3\n      pop\n      pop\n      pop\n      jump\n        /* \"--CODEGEN--\":17644:18051   */\n    tag_218:\n      0x00\n        /* \"--CODEGEN--\":17835:17837   */\n      0x20\n        /* \"--CODEGEN--\":17824:17833   */\n      dup3\n        /* \"--CODEGEN--\":17820:17838   */\n      add\n        /* \"--CODEGEN--\":17812:17838   */\n      swap1\n      pop\n        /* \"--CODEGEN--\":17885:17894   */\n      dup2\n        /* \"--CODEGEN--\":17879:17883   */\n      dup2\n        /* \"--CODEGEN--\":17875:17895   */\n      sub\n        /* \"--CODEGEN--\":17871:17872   */\n      0x00\n        /* \"--CODEGEN--\":17860:17869   */\n      dup4\n        /* \"--CODEGEN--\":17856:17873   */\n      add\n        /* \"--CODEGEN--\":17849:17896   */\n      mstore\n        /* \"--CODEGEN--\":17910:18041   */\n      tag_448\n        /* \"--CODEGEN--\":18036:18040   */\n      dup2\n        /* \"--CODEGEN--\":17910:18041   */\n      jump(tag_399)\n    tag_448:\n        /* \"--CODEGEN--\":17902:18041   */\n      swap1\n      pop\n        /* \"--CODEGEN--\":17806:18051   */\n      swap2\n      swap1\n      pop\n      jump\n        /* \"--CODEGEN--\":18058:18465   */\n    tag_264:\n      0x00\n        /* \"--CODEGEN--\":18249:18251   */\n      0x20\n        /* \"--CODEGEN--\":18238:18247   */\n      dup3\n        /* \"--CODEGEN--\":18234:18252   */\n      add\n        /* \"--CODEGEN--\":18226:18252   */\n      swap1\n      pop\n        /* \"--CODEGEN--\":18299:18308   */\n      dup2\n        /* \"--CODEGEN--\":18293:18297   */\n      dup2\n        /* \"--CODEGEN--\":18289:18309   */\n      sub\n        /* \"--CODEGEN--\":18285:18286   */\n      0x00\n        /* \"--CODEGEN--\":18274:18283   */\n      dup4\n        /* \"--CODEGEN--\":18270:18287   */\n      add\n        /* \"--CODEGEN--\":18263:18310   */\n      mstore\n        /* \"--CODEGEN--\":18324:18455   */\n      tag_449\n        /* \"--CODEGEN--\":18450:18454   */\n      dup2\n        /* \"--CODEGEN--\":18324:18455   */\n      jump(tag_401)\n    tag_449:\n        /* \"--CODEGEN--\":18316:18455   */\n      swap1\n      pop\n        /* \"--CODEGEN--\":18220:18465   */\n      swap2\n      swap1\n      pop\n      jump\n        /* \"--CODEGEN--\":18472:18879   */\n    tag_193:\n      0x00\n        /* \"--CODEGEN--\":18663:18665   */\n      0x20\n        /* \"--CODEGEN--\":18652:18661   */\n      dup3\n        /* \"--CODEGEN--\":18648:18666   */\n      add\n        /* \"--CODEGEN--\":18640:18666   */\n      swap1\n      pop\n        /* \"--CODEGEN--\":18713:18722   */\n      dup2\n        /* \"--CODEGEN--\":18707:18711   */\n      dup2\n        /* \"--CODEGEN--\":18703:18723   */\n      sub\n        /* \"--CODEGEN--\":18699:18700   */\n      0x00\n        /* \"--CODEGEN--\":18688:18697   */\n      dup4\n        /* \"--CODEGEN--\":18684:18701   */\n      add\n        /* \"--CODEGEN--\":18677:18724   */\n      mstore\n        /* \"--CODEGEN--\":18738:18869   */\n      tag_450\n        /* \"--CODEGEN--\":18864:18868   */\n      dup2\n        /* \"--CODEGEN--\":18738:18869   */\n      jump(tag_403)\n    tag_450:\n        /* \"--CODEGEN--\":18730:18869   */\n      swap1\n      pop\n        /* \"--CODEGEN--\":18634:18879   */\n      swap2\n      swap1\n      pop\n      jump\n        /* \"--CODEGEN--\":18886:19188   */\n    tag_53:\n      0x00\n        /* \"--CODEGEN--\":19048:19051   */\n      0x80\n        /* \"--CODEGEN--\":19037:19046   */\n      dup3\n        /* \"--CODEGEN--\":19033:19052   */\n      add\n        /* \"--CODEGEN--\":19025:19052   */\n      swap1\n      pop\n        /* \"--CODEGEN--\":19063:19178   */\n      tag_451\n        /* \"--CODEGEN--\":19175:19176   */\n      0x00\n        /* \"--CODEGEN--\":19164:19173   */\n      dup4\n        /* \"--CODEGEN--\":19160:19177   */\n      add\n        /* \"--CODEGEN--\":19151:19157   */\n      dup5\n        /* \"--CODEGEN--\":19063:19178   */\n      jump(tag_412)\n    tag_451:\n        /* \"--CODEGEN--\":19019:19188   */\n      swap3\n      swap2\n      pop\n      pop\n      jump\n        /* \"--CODEGEN--\":19195:19516   */\n    tag_161:\n      0x00\n        /* \"--CODEGEN--\":19367:19369   */\n      0x40\n        /* \"--CODEGEN--\":19356:19365   */\n      dup3\n        /* \"--CODEGEN--\":19352:19370   */\n      add\n        /* \"--CODEGEN--\":19344:19370   */\n      swap1\n      pop\n        /* \"--CODEGEN--\":19381:19506   */\n      tag_452\n        /* \"--CODEGEN--\":19503:19504   */\n      0x00\n        /* \"--CODEGEN--\":19492:19501   */\n      dup4\n        /* \"--CODEGEN--\":19488:19505   */\n      add\n        /* \"--CODEGEN--\":19479:19485   */\n      dup5\n        /* \"--CODEGEN--\":19381:19506   */\n      jump(tag_423)\n    tag_452:\n        /* \"--CODEGEN--\":19338:19516   */\n      swap3\n      swap2\n      pop\n      pop\n      jump\n        /* \"--CODEGEN--\":19523:19736   */\n    tag_77:\n      0x00\n        /* \"--CODEGEN--\":19641:19643   */\n      0x20\n        /* \"--CODEGEN--\":19630:19639   */\n      dup3\n        /* \"--CODEGEN--\":19626:19644   */\n      add\n        /* \"--CODEGEN--\":19618:19644   */\n      swap1\n      pop\n        /* \"--CODEGEN--\":19655:19726   */\n      tag_453\n        /* \"--CODEGEN--\":19723:19724   */\n      0x00\n        /* \"--CODEGEN--\":19712:19721   */\n      dup4\n        /* \"--CODEGEN--\":19708:19725   */\n      add\n        /* \"--CODEGEN--\":19699:19705   */\n      dup5\n        /* \"--CODEGEN--\":19655:19726   */\n      jump(tag_428)\n    tag_453:\n        /* \"--CODEGEN--\":19612:19736   */\n      swap3\n      swap2\n      pop\n      pop\n      jump\n        /* \"--CODEGEN--\":19743:20390   */\n    tag_125:\n      0x00\n        /* \"--CODEGEN--\":19967:19970   */\n      0xa0\n        /* \"--CODEGEN--\":19956:19965   */\n      dup3\n        /* \"--CODEGEN--\":19952:19971   */\n      add\n        /* \"--CODEGEN--\":19944:19971   */\n      swap1\n      pop\n        /* \"--CODEGEN--\":19982:20051   */\n      tag_454\n        /* \"--CODEGEN--\":20048:20049   */\n      0x00\n        /* \"--CODEGEN--\":20037:20046   */\n      dup4\n        /* \"--CODEGEN--\":20033:20050   */\n      add\n        /* \"--CODEGEN--\":20024:20030   */\n      dup9\n        /* \"--CODEGEN--\":19982:20051   */\n      jump(tag_432)\n    tag_454:\n        /* \"--CODEGEN--\":20062:20132   */\n      tag_455\n        /* \"--CODEGEN--\":20128:20130   */\n      0x20\n        /* \"--CODEGEN--\":20117:20126   */\n      dup4\n        /* \"--CODEGEN--\":20113:20131   */\n      add\n        /* \"--CODEGEN--\":20104:20110   */\n      dup8\n        /* \"--CODEGEN--\":20062:20132   */\n      jump(tag_371)\n    tag_455:\n        /* \"--CODEGEN--\":20143:20215   */\n      tag_456\n        /* \"--CODEGEN--\":20211:20213   */\n      0x40\n        /* \"--CODEGEN--\":20200:20209   */\n      dup4\n        /* \"--CODEGEN--\":20196:20214   */\n      add\n        /* \"--CODEGEN--\":20187:20193   */\n      dup7\n        /* \"--CODEGEN--\":20143:20215   */\n      jump(tag_428)\n    tag_456:\n        /* \"--CODEGEN--\":20226:20298   */\n      tag_457\n        /* \"--CODEGEN--\":20294:20296   */\n      0x60\n        /* \"--CODEGEN--\":20283:20292   */\n      dup4\n        /* \"--CODEGEN--\":20279:20297   */\n      add\n        /* \"--CODEGEN--\":20270:20276   */\n      dup6\n        /* \"--CODEGEN--\":20226:20298   */\n      jump(tag_428)\n    tag_457:\n        /* \"--CODEGEN--\":20309:20380   */\n      tag_458\n        /* \"--CODEGEN--\":20375:20378   */\n      0x80\n        /* \"--CODEGEN--\":20364:20373   */\n      dup4\n        /* \"--CODEGEN--\":20360:20379   */\n      add\n        /* \"--CODEGEN--\":20351:20357   */\n      dup5\n        /* \"--CODEGEN--\":20309:20380   */\n      jump(tag_432)\n    tag_458:\n        /* \"--CODEGEN--\":19938:20390   */\n      swap7\n      swap6\n      pop\n      pop\n      pop\n      pop\n      pop\n      pop\n      jump\n        /* \"--CODEGEN--\":20397:20602   */\n    tag_46:\n      0x00\n        /* \"--CODEGEN--\":20511:20513   */\n      0x20\n        /* \"--CODEGEN--\":20500:20509   */\n      dup3\n        /* \"--CODEGEN--\":20496:20514   */\n      add\n        /* \"--CODEGEN--\":20488:20514   */\n      swap1\n      pop\n        /* \"--CODEGEN--\":20525:20592   */\n      tag_459\n        /* \"--CODEGEN--\":20589:20590   */\n      0x00\n        /* \"--CODEGEN--\":20578:20587   */\n      dup4\n        /* \"--CODEGEN--\":20574:20591   */\n      add\n        /* \"--CODEGEN--\":20565:20571   */\n      dup5\n        /* \"--CODEGEN--\":20525:20592   */\n      jump(tag_435)\n    tag_459:\n        /* \"--CODEGEN--\":20482:20602   */\n      swap3\n      swap2\n      pop\n      pop\n      jump\n        /* \"--CODEGEN--\":20609:20865   */\n    tag_298:\n      0x00\n        /* \"--CODEGEN--\":20671:20673   */\n      0x40\n        /* \"--CODEGEN--\":20665:20674   */\n      mload\n        /* \"--CODEGEN--\":20655:20674   */\n      swap1\n      pop\n        /* \"--CODEGEN--\":20709:20713   */\n      dup2\n        /* \"--CODEGEN--\":20701:20707   */\n      dup2\n        /* \"--CODEGEN--\":20697:20714   */\n      add\n        /* \"--CODEGEN--\":20808:20814   */\n      dup2\n        /* \"--CODEGEN--\":20796:20806   */\n      dup2\n        /* \"--CODEGEN--\":20793:20815   */\n      lt\n        /* \"--CODEGEN--\":20772:20790   */\n      0xffffffffffffffff\n        /* \"--CODEGEN--\":20760:20770   */\n      dup3\n        /* \"--CODEGEN--\":20757:20791   */\n      gt\n        /* \"--CODEGEN--\":20754:20816   */\n      or\n        /* \"--CODEGEN--\":20751:20753   */\n      iszero\n      tag_460\n      jumpi\n        /* \"--CODEGEN--\":20829:20830   */\n      0x00\n        /* \"--CODEGEN--\":20826:20827   */\n      dup1\n        /* \"--CODEGEN--\":20819:20831   */\n      revert\n        /* \"--CODEGEN--\":20751:20753   */\n    tag_460:\n        /* \"--CODEGEN--\":20849:20859   */\n      dup1\n        /* \"--CODEGEN--\":20845:20847   */\n      0x40\n        /* \"--CODEGEN--\":20838:20860   */\n      mstore\n        /* \"--CODEGEN--\":20649:20865   */\n      pop\n      swap2\n      swap1\n      pop\n      jump\n        /* \"--CODEGEN--\":20872:21045   */\n    tag_355:\n      0x00\n        /* \"--CODEGEN--\":20980:20983   */\n      dup2\n        /* \"--CODEGEN--\":20972:20983   */\n      swap1\n      pop\n        /* \"--CODEGEN--\":21018:21022   */\n      0x20\n        /* \"--CODEGEN--\":21013:21016   */\n      dup3\n        /* \"--CODEGEN--\":21009:21023   */\n      add\n        /* \"--CODEGEN--\":21001:21023   */\n      swap1\n      pop\n        /* \"--CODEGEN--\":20966:21045   */\n      swap2\n      swap1\n      pop\n      jump\n        /* \"--CODEGEN--\":21052:21210   */\n    tag_395:\n      0x00\n        /* \"--CODEGEN--\":21120:21123   */\n      dup2\n        /* \"--CODEGEN--\":21112:21123   */\n      swap1\n      pop\n        /* \"--CODEGEN--\":21157:21160   */\n      dup2\n        /* \"--CODEGEN--\":21154:21155   */\n      0x00\n        /* \"--CODEGEN--\":21147:21161   */\n      mstore\n        /* \"--CODEGEN--\":21189:21193   */\n      0x20\n        /* \"--CODEGEN--\":21186:21187   */\n      0x00\n        /* \"--CODEGEN--\":21176:21194   */\n      keccak256\n        /* \"--CODEGEN--\":21168:21194   */\n      swap1\n      pop\n        /* \"--CODEGEN--\":21106:21210   */\n      swap2\n      swap1\n      pop\n      jump\n        /* \"--CODEGEN--\":21217:21376   */\n    tag_351:\n      0x00\n        /* \"--CODEGEN--\":21348:21353   */\n      dup2\n        /* \"--CODEGEN--\":21342:21354   */\n      mload\n        /* \"--CODEGEN--\":21332:21354   */\n      swap1\n      pop\n        /* \"--CODEGEN--\":21313:21376   */\n      swap2\n      swap1\n      pop\n      jump\n        /* \"--CODEGEN--\":21383:21501   */\n    tag_381:\n      0x00\n        /* \"--CODEGEN--\":21473:21478   */\n      dup2\n        /* \"--CODEGEN--\":21467:21479   */\n      mload\n        /* \"--CODEGEN--\":21457:21479   */\n      swap1\n      pop\n        /* \"--CODEGEN--\":21438:21501   */\n      swap2\n      swap1\n      pop\n      jump\n        /* \"--CODEGEN--\":21508:21638   */\n    tag_361:\n      0x00\n        /* \"--CODEGEN--\":21628:21632   */\n      0x20\n        /* \"--CODEGEN--\":21623:21626   */\n      dup3\n        /* \"--CODEGEN--\":21619:21633   */\n      add\n        /* \"--CODEGEN--\":21611:21633   */\n      swap1\n      pop\n        /* \"--CODEGEN--\":21605:21638   */\n      swap2\n      swap1\n      pop\n      jump\n        /* \"--CODEGEN--\":21646:21846   */\n    tag_353:\n      0x00\n        /* \"--CODEGEN--\":21798:21804   */\n      dup3\n        /* \"--CODEGEN--\":21793:21796   */\n      dup3\n        /* \"--CODEGEN--\":21786:21805   */\n      mstore\n        /* \"--CODEGEN--\":21835:21839   */\n      0x20\n        /* \"--CODEGEN--\":21830:21833   */\n      dup3\n        /* \"--CODEGEN--\":21826:21840   */\n      add\n        /* \"--CODEGEN--\":21811:21840   */\n      swap1\n      pop\n        /* \"--CODEGEN--\":21779:21846   */\n      swap3\n      swap2\n      pop\n      pop\n      jump\n        /* \"--CODEGEN--\":21855:21999   */\n    tag_407:\n      0x00\n        /* \"--CODEGEN--\":21990:21993   */\n      dup2\n        /* \"--CODEGEN--\":21975:21993   */\n      swap1\n      pop\n        /* \"--CODEGEN--\":21968:21999   */\n      swap3\n      swap2\n      pop\n      pop\n      jump\n        /* \"--CODEGEN--\":22008:22171   */\n    tag_383:\n      0x00\n        /* \"--CODEGEN--\":22123:22129   */\n      dup3\n        /* \"--CODEGEN--\":22118:22121   */\n      dup3\n        /* \"--CODEGEN--\":22111:22130   */\n      mstore\n        /* \"--CODEGEN--\":22160:22164   */\n      0x20\n        /* \"--CODEGEN--\":22155:22158   */\n      dup3\n        /* \"--CODEGEN--\":22151:22165   */\n      add\n        /* \"--CODEGEN--\":22136:22165   */\n      swap1\n      pop\n        /* \"--CODEGEN--\":22104:22171   */\n      swap3\n      swap2\n      pop\n      pop\n      jump\n        /* \"--CODEGEN--\":22179:22270   */\n    tag_348:\n      0x00\n        /* \"--CODEGEN--\":22241:22265   */\n      tag_461\n        /* \"--CODEGEN--\":22259:22264   */\n      dup3\n        /* \"--CODEGEN--\":22241:22265   */\n      jump(tag_462)\n    tag_461:\n        /* \"--CODEGEN--\":22230:22265   */\n      swap1\n      pop\n        /* \"--CODEGEN--\":22224:22270   */\n      swap2\n      swap1\n      pop\n      jump\n        /* \"--CODEGEN--\":22277:22349   */\n    tag_364:\n      0x00\n        /* \"--CODEGEN--\":22339:22344   */\n      dup2\n        /* \"--CODEGEN--\":22328:22344   */\n      swap1\n      pop\n        /* \"--CODEGEN--\":22322:22349   */\n      swap2\n      swap1\n      pop\n      jump\n        /* \"--CODEGEN--\":22356:22427   */\n    tag_370:\n      0x00\n        /* \"--CODEGEN--\":22417:22422   */\n      dup2\n        /* \"--CODEGEN--\":22406:22422   */\n      swap1\n      pop\n        /* \"--CODEGEN--\":22400:22427   */\n      swap2\n      swap1\n      pop\n      jump\n        /* \"--CODEGEN--\":22434:22519   */\n    tag_375:\n      0x00\n        /* \"--CODEGEN--\":22508:22513   */\n      dup2\n        /* \"--CODEGEN--\":22505:22506   */\n      0x03\n        /* \"--CODEGEN--\":22494:22514   */\n      signextend\n        /* \"--CODEGEN--\":22483:22514   */\n      swap1\n      pop\n        /* \"--CODEGEN--\":22477:22519   */\n      swap2\n      swap1\n      pop\n      jump\n        /* \"--CODEGEN--\":22526:22611   */\n    tag_378:\n      0x00\n        /* \"--CODEGEN--\":22600:22605   */\n      dup2\n        /* \"--CODEGEN--\":22597:22598   */\n      0x07\n        /* \"--CODEGEN--\":22586:22606   */\n      signextend\n        /* \"--CODEGEN--\":22575:22606   */\n      swap1\n      pop\n        /* \"--CODEGEN--\":22569:22611   */\n      swap2\n      swap1\n      pop\n      jump\n        /* \"--CODEGEN--\":22618:22739   */\n    tag_462:\n      0x00\n        /* \"--CODEGEN--\":22691:22733   */\n      0xffffffffffffffffffffffffffffffffffffffff\n        /* \"--CODEGEN--\":22684:22689   */\n      dup3\n        /* \"--CODEGEN--\":22680:22734   */\n      and\n        /* \"--CODEGEN--\":22669:22734   */\n      swap1\n      pop\n        /* \"--CODEGEN--\":22663:22739   */\n      swap2\n      swap1\n      pop\n      jump\n        /* \"--CODEGEN--\":22746:22818   */\n    tag_427:\n      0x00\n        /* \"--CODEGEN--\":22808:22813   */\n      dup2\n        /* \"--CODEGEN--\":22797:22813   */\n      swap1\n      pop\n        /* \"--CODEGEN--\":22791:22818   */\n      swap2\n      swap1\n      pop\n      jump\n        /* \"--CODEGEN--\":22825:22921   */\n    tag_431:\n      0x00\n        /* \"--CODEGEN--\":22897:22915   */\n      0xffffffffffffffff\n        /* \"--CODEGEN--\":22890:22895   */\n      dup3\n        /* \"--CODEGEN--\":22886:22916   */\n      and\n        /* \"--CODEGEN--\":22875:22916   */\n      swap1\n      pop\n        /* \"--CODEGEN--\":22869:22921   */\n      swap2\n      swap1\n      pop\n      jump\n        /* \"--CODEGEN--\":22928:23009   */\n    tag_437:\n      0x00\n        /* \"--CODEGEN--\":22999:23003   */\n      0xff\n        /* \"--CODEGEN--\":22992:22997   */\n      dup3\n        /* \"--CODEGEN--\":22988:23004   */\n      and\n        /* \"--CODEGEN--\":22977:23004   */\n      swap1\n      pop\n        /* \"--CODEGEN--\":22971:23009   */\n      swap2\n      swap1\n      pop\n      jump\n        /* \"--CODEGEN--\":23016:23116   */\n    tag_434:\n      0x00\n        /* \"--CODEGEN--\":23088:23110   */\n      0xffffffffffffffffffff\n        /* \"--CODEGEN--\":23081:23086   */\n      dup3\n        /* \"--CODEGEN--\":23077:23111   */\n      and\n        /* \"--CODEGEN--\":23066:23111   */\n      swap1\n      pop\n        /* \"--CODEGEN--\":23060:23116   */\n      swap2\n      swap1\n      pop\n      jump\n        /* \"--CODEGEN--\":23123:23284   */\n    tag_367:\n      0x00\n        /* \"--CODEGEN--\":23222:23279   */\n      tag_463\n        /* \"--CODEGEN--\":23273:23278   */\n      dup3\n        /* \"--CODEGEN--\":23222:23279   */\n      jump(tag_464)\n    tag_463:\n        /* \"--CODEGEN--\":23209:23279   */\n      swap1\n      pop\n        /* \"--CODEGEN--\":23203:23284   */\n      swap2\n      swap1\n      pop\n      jump\n        /* \"--CODEGEN--\":23291:23419   */\n    tag_464:\n      0x00\n        /* \"--CODEGEN--\":23390:23414   */\n      tag_465\n        /* \"--CODEGEN--\":23408:23413   */\n      dup3\n        /* \"--CODEGEN--\":23390:23414   */\n      jump(tag_462)\n    tag_465:\n        /* \"--CODEGEN--\":23377:23414   */\n      swap1\n      pop\n        /* \"--CODEGEN--\":23371:23419   */\n      swap2\n      swap1\n      pop\n      jump\n        /* \"--CODEGEN--\":23427:23695   */\n    tag_385:\n        /* \"--CODEGEN--\":23492:23493   */\n      0x00\n        /* \"--CODEGEN--\":23499:23600   */\n    tag_466:\n        /* \"--CODEGEN--\":23513:23519   */\n      dup4\n        /* \"--CODEGEN--\":23510:23511   */\n      dup2\n        /* \"--CODEGEN--\":23507:23520   */\n      lt\n        /* \"--CODEGEN--\":23499:23600   */\n      iszero\n      tag_468\n      jumpi\n        /* \"--CODEGEN--\":23589:23590   */\n      dup1\n        /* \"--CODEGEN--\":23584:23587   */\n      dup3\n        /* \"--CODEGEN--\":23580:23591   */\n      add\n        /* \"--CODEGEN--\":23574:23592   */\n      mload\n        /* \"--CODEGEN--\":23570:23571   */\n      dup2\n        /* \"--CODEGEN--\":23565:23568   */\n      dup5\n        /* \"--CODEGEN--\":23561:23572   */\n      add\n        /* \"--CODEGEN--\":23554:23593   */\n      mstore\n        /* \"--CODEGEN--\":23535:23537   */\n      0x20\n        /* \"--CODEGEN--\":23532:23533   */\n      dup2\n        /* \"--CODEGEN--\":23528:23538   */\n      add\n        /* \"--CODEGEN--\":23523:23538   */\n      swap1\n      pop\n        /* \"--CODEGEN--\":23499:23600   */\n      jump(tag_466)\n    tag_468:\n        /* \"--CODEGEN--\":23615:23621   */\n      dup4\n        /* \"--CODEGEN--\":23612:23613   */\n      dup2\n        /* \"--CODEGEN--\":23609:23622   */\n      gt\n        /* \"--CODEGEN--\":23606:23608   */\n      iszero\n      tag_469\n      jumpi\n        /* \"--CODEGEN--\":23680:23681   */\n      0x00\n        /* \"--CODEGEN--\":23671:23677   */\n      dup5\n        /* \"--CODEGEN--\":23666:23669   */\n      dup5\n        /* \"--CODEGEN--\":23662:23678   */\n      add\n        /* \"--CODEGEN--\":23655:23682   */\n      mstore\n        /* \"--CODEGEN--\":23606:23608   */\n    tag_469:\n        /* \"--CODEGEN--\":23476:23695   */\n      pop\n      pop\n      pop\n      pop\n      jump\n        /* \"--CODEGEN--\":23703:23800   */\n    tag_387:\n      0x00\n        /* \"--CODEGEN--\":23791:23793   */\n      0x1f\n        /* \"--CODEGEN--\":23787:23794   */\n      not\n        /* \"--CODEGEN--\":23782:23784   */\n      0x1f\n        /* \"--CODEGEN--\":23775:23780   */\n      dup4\n        /* \"--CODEGEN--\":23771:23785   */\n      add\n        /* \"--CODEGEN--\":23767:23795   */\n      and\n        /* \"--CODEGEN--\":23757:23795   */\n      swap1\n      pop\n        /* \"--CODEGEN--\":23751:23800   */\n      swap2\n      swap1\n      pop\n      jump\n        /* \"--CODEGEN--\":23808:23925   */\n    tag_279:\n        /* \"--CODEGEN--\":23877:23901   */\n      tag_470\n        /* \"--CODEGEN--\":23895:23900   */\n      dup2\n        /* \"--CODEGEN--\":23877:23901   */\n      jump(tag_348)\n    tag_470:\n        /* \"--CODEGEN--\":23870:23875   */\n      dup2\n        /* \"--CODEGEN--\":23867:23902   */\n      eq\n        /* \"--CODEGEN--\":23857:23859   */\n      tag_471\n      jumpi\n        /* \"--CODEGEN--\":23916:23917   */\n      0x00\n        /* \"--CODEGEN--\":23913:23914   */\n      dup1\n        /* \"--CODEGEN--\":23906:23918   */\n      revert\n        /* \"--CODEGEN--\":23857:23859   */\n    tag_471:\n        /* \"--CODEGEN--\":23851:23925   */\n      pop\n      jump\n        /* \"--CODEGEN--\":23932:24049   */\n    tag_294:\n        /* \"--CODEGEN--\":24001:24025   */\n      tag_472\n        /* \"--CODEGEN--\":24019:24024   */\n      dup2\n        /* \"--CODEGEN--\":24001:24025   */\n      jump(tag_364)\n    tag_472:\n        /* \"--CODEGEN--\":23994:23999   */\n      dup2\n        /* \"--CODEGEN--\":23991:24026   */\n      eq\n        /* \"--CODEGEN--\":23981:23983   */\n      tag_473\n      jumpi\n        /* \"--CODEGEN--\":24040:24041   */\n      0x00\n        /* \"--CODEGEN--\":24037:24038   */\n      dup1\n        /* \"--CODEGEN--\":24030:24042   */\n      revert\n        /* \"--CODEGEN--\":23981:23983   */\n    tag_473:\n        /* \"--CODEGEN--\":23975:24049   */\n      pop\n      jump\n        /* \"--CODEGEN--\":24056:24173   */\n    tag_305:\n        /* \"--CODEGEN--\":24125:24149   */\n      tag_474\n        /* \"--CODEGEN--\":24143:24148   */\n      dup2\n        /* \"--CODEGEN--\":24125:24149   */\n      jump(tag_427)\n    tag_474:\n        /* \"--CODEGEN--\":24118:24123   */\n      dup2\n        /* \"--CODEGEN--\":24115:24150   */\n      eq\n        /* \"--CODEGEN--\":24105:24107   */\n      tag_475\n      jumpi\n        /* \"--CODEGEN--\":24164:24165   */\n      0x00\n        /* \"--CODEGEN--\":24161:24162   */\n      dup1\n        /* \"--CODEGEN--\":24154:24166   */\n      revert\n        /* \"--CODEGEN--\":24105:24107   */\n    tag_475:\n        /* \"--CODEGEN--\":24099:24173   */\n      pop\n      jump\n        /* \"--CODEGEN--\":24180:24295   */\n    tag_309:\n        /* \"--CODEGEN--\":24248:24271   */\n      tag_476\n        /* \"--CODEGEN--\":24265:24270   */\n      dup2\n        /* \"--CODEGEN--\":24248:24271   */\n      jump(tag_431)\n    tag_476:\n        /* \"--CODEGEN--\":24241:24246   */\n      dup2\n        /* \"--CODEGEN--\":24238:24272   */\n      eq\n        /* \"--CODEGEN--\":24228:24230   */\n      tag_477\n      jumpi\n        /* \"--CODEGEN--\":24286:24287   */\n      0x00\n        /* \"--CODEGEN--\":24283:24284   */\n      dup1\n        /* \"--CODEGEN--\":24276:24288   */\n      revert\n        /* \"--CODEGEN--\":24228:24230   */\n    tag_477:\n        /* \"--CODEGEN--\":24222:24295   */\n      pop\n      jump\n        /* \"--CODEGEN--\":24302:24417   */\n    tag_312:\n        /* \"--CODEGEN--\":24370:24393   */\n      tag_478\n        /* \"--CODEGEN--\":24387:24392   */\n      dup2\n        /* \"--CODEGEN--\":24370:24393   */\n      jump(tag_434)\n    tag_478:\n        /* \"--CODEGEN--\":24363:24368   */\n      dup2\n        /* \"--CODEGEN--\":24360:24394   */\n      eq\n        /* \"--CODEGEN--\":24350:24352   */\n      tag_479\n      jumpi\n        /* \"--CODEGEN--\":24408:24409   */\n      0x00\n        /* \"--CODEGEN--\":24405:24406   */\n      dup1\n        /* \"--CODEGEN--\":24398:24410   */\n      revert\n        /* \"--CODEGEN--\":24350:24352   */\n    tag_479:\n        /* \"--CODEGEN--\":24344:24417   */\n      pop\n      jump\n\n    auxdata: 0xa365627a7a723158203da29bb17236ace3b8ed2bb5151260b8aa3d53d654c3fd440837ea69d58aa77c6c6578706572696d656e74616cf564736f6c63430005110040\n}\n",
				"bytecode": {
					"linkReferences": {},
					"object": "60806040523480156200001157600080fd5b5060405162002805380380620028058339818101604052620000379190810190620002fd565b80600073ffffffffffffffffffffffffffffffffffffffff168173ffffffffffffffffffffffffffffffffffffffff161415620000ab576040517f08c379a0000000000000000000000000000000000000000000000000000000008152600401620000a29062000442565b60405180910390fd5b806000806101000a81548173ffffffffffffffffffffffffffffffffffffffff021916908373ffffffffffffffffffffffffffffffffffffffff1602179055507fb532073b38c83145e3e5135377a08bf9aab55bc0fd7c1179cd4fb995d2a5159c6000826040516200011f92919062000415565b60405180910390a15084600260006101000a81548173ffffffffffffffffffffffffffffffffffffffff021916908373ffffffffffffffffffffffffffffffffffffffff160217905550836003908051906020019062000181929190620001ad565b5082600490805190602001906200019a929190620001ad565b50816006819055505050505050620005e2565b828054600181600116156101000203166002900490600052602060002090601f016020900481019282601f10620001f057805160ff191683800117855562000221565b8280016001018555821562000221579182015b828111156200022057825182559160200191906001019062000203565b5b50905062000230919062000234565b5090565b6200025991905b80821115620002555760008160009055506001016200023b565b5090565b90565b6000815190506200026d8162000594565b92915050565b6000815190506200028481620005ae565b92915050565b600082601f8301126200029c57600080fd5b8151620002b3620002ad8262000492565b62000464565b91508082526020830160208301858383011115620002d057600080fd5b620002dd8382846200055e565b50505092915050565b600081519050620002f781620005c8565b92915050565b600080600080600060a086880312156200031657600080fd5b6000620003268882890162000273565b955050602086015167ffffffffffffffff8111156200034457600080fd5b62000352888289016200028a565b945050604086015167ffffffffffffffff8111156200037057600080fd5b6200037e888289016200028a565b93505060606200039188828901620002e6565b9250506080620003a4888289016200025c565b9150509295509295909350565b620003bc8162000522565b82525050565b620003cd81620004d0565b82525050565b6000620003e2601983620004bf565b91507f4f776e657220616464726573732063616e6e6f742062652030000000000000006000830152602082019050919050565b60006040820190506200042c6000830185620003b1565b6200043b6020830184620003c2565b9392505050565b600060208201905081810360008301526200045d81620003d3565b9050919050565b6000604051905081810181811067ffffffffffffffff821117156200048857600080fd5b8060405250919050565b600067ffffffffffffffff821115620004aa57600080fd5b601f19601f8301169050602081019050919050565b600082825260208201905092915050565b6000620004dd82620004f8565b9050919050565b6000620004f182620004d0565b9050919050565b600073ffffffffffffffffffffffffffffffffffffffff82169050919050565b6000819050919050565b60006200052f8262000536565b9050919050565b600062000543826200054a565b9050919050565b60006200055782620004f8565b9050919050565b60005b838110156200057e57808201518184015260208101905062000561565b838111156200058e576000848401525b50505050565b6200059f81620004d0565b8114620005ab57600080fd5b50565b620005b981620004e4565b8114620005c557600080fd5b50565b620005d38162000518565b8114620005df57600080fd5b50565b61221380620005f26000396000f3fe6080604052600436106101b75760003560e01c8063956dcd1f116100ec578063b633620c1161008a578063d606a8b711610064578063d606a8b714610646578063e18910a314610671578063ef9e5e281461069c578063feaf968c146106b8576101b7565b8063b633620c146105b0578063b9256d28146105ed578063d47eed4514610609576101b7565b80639a6fc8f5116100c65780639a6fc8f5146104b8578063a4ae35e0146104f9578063b5ab58dc14610536578063b5dcc91114610573576101b7565b8063956dcd1f1461042557806396834ad314610450578063999b93af1461048d576101b7565b8063668a0f0211610159578063758cdcf011610133578063758cdcf01461037b57806379ba5097146103a65780638da5cb5b146103bd5780639474f45b146103e8576101b7565b8063668a0f02146102ea5780636a2e770f14610315578063711a2e281461033e576101b7565b80633ccfd60b116101955780633ccfd60b1461024d5780634716e9c5146102645780635001f3b51461029457806353a47bb7146102bf576101b7565b80631627540c146101bc578063313ce567146101e557806331d98b3f14610210575b600080fd5b3480156101c857600080fd5b506101e360048036036101de91908101906116c7565b6106e7565b005b3480156101f157600080fd5b506101fa61076a565b6040516102079190611f97565b60405180910390f35b34801561021c57600080fd5b5061023760048036036102329190810190611874565b610773565b6040516102449190611ef3565b60405180910390f35b34801561025957600080fd5b5061026261078a565b005b61027e600480360361027991908101906117d9565b610862565b60405161028b9190611de2565b60405180910390f35b3480156102a057600080fd5b506102a96108d6565b6040516102b69190611e3a565b60405180910390f35b3480156102cb57600080fd5b506102d4610974565b6040516102e19190611d9e565b60405180910390f35b3480156102f657600080fd5b506102ff61099a565b60405161030c9190611f29565b60405180910390f35b34801561032157600080fd5b5061033c60048036036103379190810190611902565b610a76565b005b34801561034a57600080fd5b506103656004803603610360919081019061189d565b610a88565b6040516103729190611ef3565b60405180910390f35b34801561038757600080fd5b50610390610b02565b60405161039d9190611f29565b60405180910390f35b3480156103b257600080fd5b506103bb610b08565b005b3480156103c957600080fd5b506103d2610cba565b6040516103df9190611d9e565b60405180910390f35b3480156103f457600080fd5b5061040f600480360361040a9190810190611874565b610cdf565b60405161041c9190611ef3565b60405180910390f35b34801561043157600080fd5b5061043a610d59565b6040516104479190611e04565b60405180910390f35b34801561045c57600080fd5b5061047760048036036104729190810190611874565b610d7f565b6040516104849190611ef3565b60405180910390f35b34801561049957600080fd5b506104a2610d96565b6040516104af9190611e3a565b60405180910390f35b3480156104c457600080fd5b506104df60048036036104da919081019061192b565b610e34565b6040516104f0959493929190611f44565b60405180910390f35b34801561050557600080fd5b50610520600480360361051b919081019061189d565b610ef2565b60405161052d9190611ef3565b60405180910390f35b34801561054257600080fd5b5061055d60048036036105589190810190611902565b610f6c565b60405161056a9190611e1f565b60405180910390f35b34801561057f57600080fd5b5061059a60048036036105959190810190611874565b610fe0565b6040516105a79190611ef3565b60405180910390f35b3480156105bc57600080fd5b506105d760048036036105d29190810190611902565b61105a565b6040516105e49190611f29565b60405180910390f35b61060760048036036106029190810190611735565b6110ce565b005b34801561061557600080fd5b50610630600480360361062b91908101906116f0565b6110d6565b60405161063d9190611f29565b60405180910390f35b34801561065257600080fd5b5061065b6110e3565b6040516106689190611f0e565b60405180910390f35b34801561067d57600080fd5b506106866111f9565b6040516106939190611f29565b60405180910390f35b6106b660048036036106b191908101906116f0565b61126d565b005b3480156106c457600080fd5b506106cd611271565b6040516106de959493929190611f44565b60405180910390f35b6106ef611292565b80600160006101000a81548173ffffffffffffffffffffffffffffffffffffffff021916908373ffffffffffffffffffffffffffffffffffffffff1602179055507f906a1c6bd7e3091ea86693dd029a831c19049ce77f1dce2ce0bab1cacbabce228160405161075f9190611d9e565b60405180910390a150565b60006012905090565b61077b611498565b610783611323565b9050919050565b610792611292565b60008060009054906101000a900473ffffffffffffffffffffffffffffffffffffffff1673ffffffffffffffffffffffffffffffffffffffff16476040516107d990611d89565b60006040518083038185875af1925050503d8060008114610816576040519150601f19603f3d011682016040523d82523d6000602084013e61081b565b606091505b505090508061085f576040517f08c379a000000000000000000000000000000000000000000000000000000000815260040161085690611ed3565b60405180910390fd5b50565b60606040518060400160405280600f81526020017f4e4f545f494d504c454d454e54454400000000000000000000000000000000008152506040517f08c379a00000000000000000000000000000000000000000000000000000000081526004016108cd9190611e3a565b60405180910390fd5b60038054600181600116156101000203166002900480601f01602080910402602001604051908101604052809291908181526020018280546001816001161561010002031660029004801561096c5780601f106109415761010080835404028352916020019161096c565b820191906000526020600020905b81548152906001019060200180831161094f57829003601f168201915b505050505081565b600160009054906101000a900473ffffffffffffffffffffffffffffffffffffffff1681565b60006109a46114d0565b600260009054906101000a900473ffffffffffffffffffffffffffffffffffffffff1673ffffffffffffffffffffffffffffffffffffffff166365555bcc600360046040518363ffffffff1660e01b8152600401610a03929190611e5c565b60606040518083038186803b158015610a1b57600080fd5b505afa158015610a2f573d6000803e3d6000fd5b505050506040513d601f19601f82011682018060405250610a5391908101906118d9565b90506000816020015114610a6e578060200151915050610a73565b429150505b90565b610a7e611292565b8060068190555050565b610a90611498565b6040518060400160405280600f81526020017f4e4f545f494d504c454d454e54454400000000000000000000000000000000008152506040517f08c379a0000000000000000000000000000000000000000000000000000000008152600401610af99190611e3a565b60405180910390fd5b60065481565b600160009054906101000a900473ffffffffffffffffffffffffffffffffffffffff1673ffffffffffffffffffffffffffffffffffffffff163373ffffffffffffffffffffffffffffffffffffffff1614610b98576040517f08c379a0000000000000000000000000000000000000000000000000000000008152600401610b8f90611e93565b60405180910390fd5b7fb532073b38c83145e3e5135377a08bf9aab55bc0fd7c1179cd4fb995d2a5159c6000809054906101000a900473ffffffffffffffffffffffffffffffffffffffff16600160009054906101000a900473ffffffffffffffffffffffffffffffffffffffff16604051610c0c929190611db9565b60405180910390a1600160009054906101000a900473ffffffffffffffffffffffffffffffffffffffff166000806101000a81548173ffffffffffffffffffffffffffffffffffffffff021916908373ffffffffffffffffffffffffffffffffffffffff1602179055506000600160006101000a81548173ffffffffffffffffffffffffffffffffffffffff021916908373ffffffffffffffffffffffffffffffffffffffff160217905550565b6000809054906101000a900473ffffffffffffffffffffffffffffffffffffffff1681565b610ce7611498565b6040518060400160405280600f81526020017f4e4f545f494d504c454d454e54454400000000000000000000000000000000008152506040517f08c379a0000000000000000000000000000000000000000000000000000000008152600401610d509190611e3a565b60405180910390fd5b600260009054906101000a900473ffffffffffffffffffffffffffffffffffffffff1681565b610d87611498565b610d8f611323565b9050919050565b60048054600181600116156101000203166002900480601f016020809104026020016040519081016040528092919081815260200182805460018160011615610100020316600290048015610e2c5780601f10610e0157610100808354040283529160200191610e2c565b820191906000526020600020905b815481529060010190602001808311610e0f57829003601f168201915b505050505081565b6000806000806000428669ffffffffffffffffffff161415610e6757610e586113a2565b94509450945094509450610ee9565b6000600560008869ffffffffffffffffffff16815260200190815260200160002054905060008114610ec657868188898a8269ffffffffffffffffffff1692508169ffffffffffffffffffff1691509550955095509550955050610ee9565b600080600080600084945083935082925081915080905095509550955095509550505b91939590929450565b610efa611498565b6040518060400160405280600f81526020017f4e4f545f494d504c454d454e54454400000000000000000000000000000000008152506040517f08c379a0000000000000000000000000000000000000000000000000000000008152600401610f639190611e3a565b60405180910390fd5b60006040518060400160405280600f81526020017f4e4f545f494d504c454d454e54454400000000000000000000000000000000008152506040517f08c379a0000000000000000000000000000000000000000000000000000000008152600401610fd79190611e3a565b60405180910390fd5b610fe8611498565b6040518060400160405280600f81526020017f4e4f545f494d504c454d454e54454400000000000000000000000000000000008152506040517f08c379a00000000000000000000000000000000000000000000000000000000081526004016110519190611e3a565b60405180910390fd5b60006040518060400160405280600f81526020017f4e4f545f494d504c454d454e54454400000000000000000000000000000000008152506040517f08c379a00000000000000000000000000000000000000000000000000000000081526004016110c59190611e3a565b60405180910390fd5b505050505050565b6000600654905092915050565b6110eb6114f1565b6110f36114d0565b600260009054906101000a900473ffffffffffffffffffffffffffffffffffffffff1673ffffffffffffffffffffffffffffffffffffffff166365555bcc600360046040518363ffffffff1660e01b8152600401611152929190611e5c565b60606040518083038186803b15801561116a57600080fd5b505afa15801561117e573d6000803e3d6000fd5b505050506040513d601f19601f820116820180604052506111a291908101906118d9565b9050600042905060008260200151146111bd57816020015190505b81600001516005600083815260200190815260200160002081905550604051806040016040528083600001518152602001828152509250505090565b60006040518060400160405280600f81526020017f4e4f545f494d504c454d454e54454400000000000000000000000000000000008152506040517f08c379a00000000000000000000000000000000000000000000000000000000081526004016112649190611e3a565b60405180910390fd5b5050565b60008060008060006112816113a2565b945094509450945094509091929394565b6000809054906101000a900473ffffffffffffffffffffffffffffffffffffffff1673ffffffffffffffffffffffffffffffffffffffff163373ffffffffffffffffffffffffffffffffffffffff1614611321576040517f08c379a000000000000000000000000000000000000000000000000000000000815260040161131890611eb3565b60405180910390fd5b565b61132b611498565b6000806113366113a2565b50509250925050808360600181815250506000836020019067ffffffffffffffff16908167ffffffffffffffff16815250506009836040019060030b908160030b81525050633b9aca00828161138857fe5b05836000019060070b908160070b81525050829250505090565b60008060008060006113b26114d0565b600260009054906101000a900473ffffffffffffffffffffffffffffffffffffffff1673ffffffffffffffffffffffffffffffffffffffff166365555bcc600360046040518363ffffffff1660e01b8152600401611411929190611e5c565b60606040518083038186803b15801561142957600080fd5b505afa15801561143d573d6000803e3d6000fd5b505050506040513d601f19601f8201168201806040525061146191908101906118d9565b90506000429050600082602001511461147c57816020015190505b8082600001518283849650965096509650965050509091929394565b6040518060800160405280600060070b8152602001600067ffffffffffffffff168152602001600060030b8152602001600081525090565b60405180606001604052806000815260200160008152602001600081525090565b604051806040016040528060008152602001600081525090565b60008135905061151a8161215d565b92915050565b60008083601f84011261153257600080fd5b8235905067ffffffffffffffff81111561154b57600080fd5b60208301915083602082028301111561156357600080fd5b9250929050565b60008083601f84011261157c57600080fd5b8235905067ffffffffffffffff81111561159557600080fd5b6020830191508360208202830111156115ad57600080fd5b9250929050565b60008083601f8401126115c657600080fd5b8235905067ffffffffffffffff8111156115df57600080fd5b6020830191508360208202830111156115f757600080fd5b9250929050565b60008135905061160d81612174565b92915050565b60006060828403121561162557600080fd5b61162f6060611fb2565b9050600061163f84828501611688565b600083015250602061165384828501611688565b602083015250604061166784828501611688565b60408301525092915050565b6000813590506116828161218b565b92915050565b6000815190506116978161218b565b92915050565b6000813590506116ac816121a2565b92915050565b6000813590506116c1816121b9565b92915050565b6000602082840312156116d957600080fd5b60006116e78482850161150b565b91505092915050565b6000806020838503121561170357600080fd5b600083013567ffffffffffffffff81111561171d57600080fd5b6117298582860161156a565b92509250509250929050565b6000806000806000806060878903121561174e57600080fd5b600087013567ffffffffffffffff81111561176857600080fd5b61177489828a0161156a565b9650965050602087013567ffffffffffffffff81111561179357600080fd5b61179f89828a01611520565b9450945050604087013567ffffffffffffffff8111156117be57600080fd5b6117ca89828a016115b4565b92509250509295509295509295565b600080600080600080608087890312156117f257600080fd5b600087013567ffffffffffffffff81111561180c57600080fd5b61181889828a0161156a565b9650965050602087013567ffffffffffffffff81111561183757600080fd5b61184389828a01611520565b9450945050604061185689828a0161169d565b925050606061186789828a0161169d565b9150509295509295509295565b60006020828403121561188657600080fd5b6000611894848285016115fe565b91505092915050565b600080604083850312156118b057600080fd5b60006118be858286016115fe565b92505060206118cf85828601611673565b9150509250929050565b6000606082840312156118eb57600080fd5b60006118f984828501611613565b91505092915050565b60006020828403121561191457600080fd5b600061192284828501611673565b91505092915050565b60006020828403121561193d57600080fd5b600061194b848285016116b2565b91505092915050565b60006119608383611c22565b6101208301905092915050565b61197681612054565b82525050565b600061198782612004565b6119918185612027565b935061199c83611fdf565b8060005b838110156119cd5781516119b48882611954565b97506119bf8361201a565b9250506001810190506119a0565b5085935050505092915050565b6119e381612066565b82525050565b6119f2816120f5565b82525050565b611a0181612070565b82525050565b611a1081612070565b82525050565b611a1f8161207a565b82525050565b611a2e81612087565b82525050565b6000611a3f8261200f565b611a498185612043565b9350611a59818560208601612119565b611a628161214c565b840191505092915050565b600081546001811660008114611a8a5760018114611ab057611af4565b607f6002830416611a9b8187612043565b955060ff198316865260208601935050611af4565b60028204611abe8187612043565b9550611ac985611fef565b60005b82811015611aeb57815481890152600182019150602081019050611acc565b80880195505050505b505092915050565b6000611b09603583612043565b91507f596f75206d757374206265206e6f6d696e61746564206265666f726520796f7560008301527f2063616e20616363657074206f776e65727368697000000000000000000000006020830152604082019050919050565b6000611b6f602f83612043565b91507f4f6e6c792074686520636f6e7472616374206f776e6572206d6179207065726660008301527f6f726d207468697320616374696f6e00000000000000000000000000000000006020830152604082019050919050565b6000611bd5601183612043565b91507f7769746864726177616c206661696c65640000000000000000000000000000006000830152602082019050919050565b6000611c15600083612038565b9150600082019050919050565b61012082016000820151611c3960008501826119da565b506020820151611c4c6020850182611cba565b506040820151611c5f60a0850182611cba565b50505050565b608082016000820151611c7b6000850182611a25565b506020820151611c8e6020850182611d5c565b506040820151611ca16040850182611a16565b506060820151611cb46060850182611d3e565b50505050565b608082016000820151611cd06000850182611a25565b506020820151611ce36020850182611d5c565b506040820151611cf66040850182611a16565b506060820151611d096060850182611d3e565b50505050565b604082016000820151611d2560008501826119f8565b506020820151611d386020850182611d3e565b50505050565b611d47816120b4565b82525050565b611d56816120b4565b82525050565b611d65816120be565b82525050565b611d74816120df565b82525050565b611d83816120d2565b82525050565b6000611d9482611c08565b9150819050919050565b6000602082019050611db3600083018461196d565b92915050565b6000604082019050611dce600083018561196d565b611ddb602083018461196d565b9392505050565b60006020820190508181036000830152611dfc818461197c565b905092915050565b6000602082019050611e1960008301846119e9565b92915050565b6000602082019050611e346000830184611a07565b92915050565b60006020820190508181036000830152611e548184611a34565b905092915050565b60006040820190508181036000830152611e768185611a6d565b90508181036020830152611e8a8184611a6d565b90509392505050565b60006020820190508181036000830152611eac81611afc565b9050919050565b60006020820190508181036000830152611ecc81611b62565b9050919050565b60006020820190508181036000830152611eec81611bc8565b9050919050565b6000608082019050611f086000830184611c65565b92915050565b6000604082019050611f236000830184611d0f565b92915050565b6000602082019050611f3e6000830184611d4d565b92915050565b600060a082019050611f596000830188611d6b565b611f666020830187611a07565b611f736040830186611d4d565b611f806060830185611d4d565b611f8d6080830184611d6b565b9695505050505050565b6000602082019050611fac6000830184611d7a565b92915050565b6000604051905081810181811067ffffffffffffffff82111715611fd557600080fd5b8060405250919050565b6000819050602082019050919050565b60008190508160005260206000209050919050565b600081519050919050565b600081519050919050565b6000602082019050919050565b600082825260208201905092915050565b600081905092915050565b600082825260208201905092915050565b600061205f82612094565b9050919050565b6000819050919050565b6000819050919050565b60008160030b9050919050565b60008160070b9050919050565b600073ffffffffffffffffffffffffffffffffffffffff82169050919050565b6000819050919050565b600067ffffffffffffffff82169050919050565b600060ff82169050919050565b600069ffffffffffffffffffff82169050919050565b600061210082612107565b9050919050565b600061211282612094565b9050919050565b60005b8381101561213757808201518184015260208101905061211c565b83811115612146576000848401525b50505050565b6000601f19601f8301169050919050565b61216681612054565b811461217157600080fd5b50565b61217d81612066565b811461218857600080fd5b50565b612194816120b4565b811461219f57600080fd5b50565b6121ab816120be565b81146121b657600080fd5b50565b6121c2816120df565b81146121cd57600080fd5b5056fea365627a7a723158203da29bb17236ace3b8ed2bb5151260b8aa3d53d654c3fd440837ea69d58aa77c6c6578706572696d656e74616cf564736f6c63430005110040",
					"opcodes": "PUSH1 0x80 PUSH1 0x40 MSTORE CALLVALUE DUP1 ISZERO PUSH3 0x11 JUMPI PUSH1 0x0 DUP1 REVERT JUMPDEST POP PUSH1 0x40 MLOAD PUSH3 0x2805 CODESIZE SUB DUP1 PUSH3 0x2805 DUP4 CODECOPY DUP2 DUP2 ADD PUSH1 0x40 MSTORE PUSH3 0x37 SWAP2 SWAP1 DUP2 ADD SWAP1 PUSH3 0x2FD JUMP JUMPDEST DUP1 PUSH1 0x0 PUSH20 0xFFFFFFFFFFFFFFFFFFFFFFFFFFFFFFFFFFFFFFFF AND DUP2 PUSH20 0xFFFFFFFFFFFFFFFFFFFFFFFFFFFFFFFFFFFFFFFF AND EQ ISZERO PUSH3 0xAB JUMPI PUSH1 0x40 MLOAD PUSH32 0x8C379A000000000000000000000000000000000000000000000000000000000 DUP2 MSTORE PUSH1 0x4 ADD PUSH3 0xA2 SWAP1 PUSH3 0x442 JUMP JUMPDEST PUSH1 0x40 MLOAD DUP1 SWAP2 SUB SWAP1 REVERT JUMPDEST DUP1 PUSH1 0x0 DUP1 PUSH2 0x100 EXP DUP2 SLOAD DUP2 PUSH20 0xFFFFFFFFFFFFFFFFFFFFFFFFFFFFFFFFFFFFFFFF MUL NOT AND SWAP1 DUP4 PUSH20 0xFFFFFFFFFFFFFFFFFFFFFFFFFFFFFFFFFFFFFFFF AND MUL OR SWAP1 SSTORE POP PUSH32 0xB532073B38C83145E3E5135377A08BF9AAB55BC0FD7C1179CD4FB995D2A5159C PUSH1 0x0 DUP3 PUSH1 0x40 MLOAD PUSH3 0x11F SWAP3 SWAP2 SWAP1 PUSH3 0x415 JUMP JUMPDEST PUSH1 0x40 MLOAD DUP1 SWAP2 SUB SWAP1 LOG1 POP DUP5 PUSH1 0x2 PUSH1 0x0 PUSH2 0x100 EXP DUP2 SLOAD DUP2 PUSH20 0xFFFFFFFFFFFFFFFFFFFFFFFFFFFFFFFFFFFFFFFF MUL NOT AND SWAP1 DUP4 PUSH20 0xFFFFFFFFFFFFFFFFFFFFFFFFFFFFFFFFFFFFFFFF AND MUL OR SWAP1 SSTORE POP DUP4 PUSH1 0x3 SWAP1 DUP1 MLOAD SWAP1 PUSH1 0x20 ADD SWAP1 PUSH3 0x181 SWAP3 SWAP2 SWAP1 PUSH3 0x1AD JUMP JUMPDEST POP DUP3 PUSH1 0x4 SWAP1 DUP1 MLOAD SWAP1 PUSH1 0x20 ADD SWAP1 PUSH3 0x19A SWAP3 SWAP2 SWAP1 PUSH3 0x1AD JUMP JUMPDEST POP DUP2 PUSH1 0x6 DUP2 SWAP1 SSTORE POP POP POP POP POP POP PUSH3 0x5E2 JUMP JUMPDEST DUP3 DUP1 SLOAD PUSH1 0x1 DUP2 PUSH1 0x1 AND ISZERO PUSH2 0x100 MUL SUB AND PUSH1 0x2 SWAP1 DIV SWAP1 PUSH1 0x0 MSTORE PUSH1 0x20 PUSH1 0x0 KECCAK256 SWAP1 PUSH1 0x1F ADD PUSH1 0x20 SWAP1 DIV DUP2 ADD SWAP3 DUP3 PUSH1 0x1F LT PUSH3 0x1F0 JUMPI DUP1 MLOAD PUSH1 0xFF NOT AND DUP4 DUP1 ADD OR DUP6 SSTORE PUSH3 0x221 JUMP JUMPDEST DUP3 DUP1 ADD PUSH1 0x1 ADD DUP6 SSTORE DUP3 ISZERO PUSH3 0x221 JUMPI SWAP2 DUP3 ADD JUMPDEST DUP3 DUP2 GT ISZERO PUSH3 0x220 JUMPI DUP3 MLOAD DUP3 SSTORE SWAP2 PUSH1 0x20 ADD SWAP2 SWAP1 PUSH1 0x1 ADD SWAP1 PUSH3 0x203 JUMP JUMPDEST JUMPDEST POP SWAP1 POP PUSH3 0x230 SWAP2 SWAP1 PUSH3 0x234 JUMP JUMPDEST POP SWAP1 JUMP JUMPDEST PUSH3 0x259 SWAP2 SWAP1 JUMPDEST DUP1 DUP3 GT ISZERO PUSH3 0x255 JUMPI PUSH1 0x0 DUP2 PUSH1 0x0 SWAP1 SSTORE POP PUSH1 0x1 ADD PUSH3 0x23B JUMP JUMPDEST POP SWAP1 JUMP JUMPDEST SWAP1 JUMP JUMPDEST PUSH1 0x0 DUP2 MLOAD SWAP1 POP PUSH3 0x26D DUP2 PUSH3 0x594 JUMP JUMPDEST SWAP3 SWAP2 POP POP JUMP JUMPDEST PUSH1 0x0 DUP2 MLOAD SWAP1 POP PUSH3 0x284 DUP2 PUSH3 0x5AE JUMP JUMPDEST SWAP3 SWAP2 POP POP JUMP JUMPDEST PUSH1 0x0 DUP3 PUSH1 0x1F DUP4 ADD SLT PUSH3 0x29C JUMPI PUSH1 0x0 DUP1 REVERT JUMPDEST DUP2 MLOAD PUSH3 0x2B3 PUSH3 0x2AD DUP3 PUSH3 0x492 JUMP JUMPDEST PUSH3 0x464 JUMP JUMPDEST SWAP2 POP DUP1 DUP3 MSTORE PUSH1 0x20 DUP4 ADD PUSH1 0x20 DUP4 ADD DUP6 DUP4 DUP4 ADD GT ISZERO PUSH3 0x2D0 JUMPI PUSH1 0x0 DUP1 REVERT JUMPDEST PUSH3 0x2DD DUP4 DUP3 DUP5 PUSH3 0x55E JUMP JUMPDEST POP POP POP SWAP3 SWAP2 POP POP JUMP JUMPDEST PUSH1 0x0 DUP2 MLOAD SWAP1 POP PUSH3 0x2F7 DUP2 PUSH3 0x5C8 JUMP JUMPDEST SWAP3 SWAP2 POP POP JUMP JUMPDEST PUSH1 0x0 DUP1 PUSH1 0x0 DUP1 PUSH1 0x0 PUSH1 0xA0 DUP7 DUP9 SUB SLT ISZERO PUSH3 0x316 JUMPI PUSH1 0x0 DUP1 REVERT JUMPDEST PUSH1 0x0 PUSH3 0x326 DUP9 DUP3 DUP10 ADD PUSH3 0x273 JUMP JUMPDEST SWAP6 POP POP PUSH1 0x20 DUP7 ADD MLOAD PUSH8 0xFFFFFFFFFFFFFFFF DUP2 GT ISZERO PUSH3 0x344 JUMPI PUSH1 0x0 DUP1 REVERT JUMPDEST PUSH3 0x352 DUP9 DUP3 DUP10 ADD PUSH3 0x28A JUMP JUMPDEST SWAP5 POP POP PUSH1 0x40 DUP7 ADD MLOAD PUSH8 0xFFFFFFFFFFFFFFFF DUP2 GT ISZERO PUSH3 0x370 JUMPI PUSH1 0x0 DUP1 REVERT JUMPDEST PUSH3 0x37E DUP9 DUP3 DUP10 ADD PUSH3 0x28A JUMP JUMPDEST SWAP4 POP POP PUSH1 0x60 PUSH3 0x391 DUP9 DUP3 DUP10 ADD PUSH3 0x2E6 JUMP JUMPDEST SWAP3 POP POP PUSH1 0x80 PUSH3 0x3A4 DUP9 DUP3 DUP10 ADD PUSH3 0x25C JUMP JUMPDEST SWAP2 POP POP SWAP3 SWAP6 POP SWAP3 SWAP6 SWAP1 SWAP4 POP JUMP JUMPDEST PUSH3 0x3BC DUP2 PUSH3 0x522 JUMP JUMPDEST DUP3 MSTORE POP POP JUMP JUMPDEST PUSH3 0x3CD DUP2 PUSH3 0x4D0 JUMP JUMPDEST DUP3 MSTORE POP POP JUMP JUMPDEST PUSH1 0x0 PUSH3 0x3E2 PUSH1 0x19 DUP4 PUSH3 0x4BF JUMP JUMPDEST SWAP2 POP PUSH32 0x4F776E657220616464726573732063616E6E6F74206265203000000000000000 PUSH1 0x0 DUP4 ADD MSTORE PUSH1 0x20 DUP3 ADD SWAP1 POP SWAP2 SWAP1 POP JUMP JUMPDEST PUSH1 0x0 PUSH1 0x40 DUP3 ADD SWAP1 POP PUSH3 0x42C PUSH1 0x0 DUP4 ADD DUP6 PUSH3 0x3B1 JUMP JUMPDEST PUSH3 0x43B PUSH1 0x20 DUP4 ADD DUP5 PUSH3 0x3C2 JUMP JUMPDEST SWAP4 SWAP3 POP POP POP JUMP JUMPDEST PUSH1 0x0 PUSH1 0x20 DUP3 ADD SWAP1 POP DUP2 DUP2 SUB PUSH1 0x0 DUP4 ADD MSTORE PUSH3 0x45D DUP2 PUSH3 0x3D3 JUMP JUMPDEST SWAP1 POP SWAP2 SWAP1 POP JUMP JUMPDEST PUSH1 0x0 PUSH1 0x40 MLOAD SWAP1 POP DUP2 DUP2 ADD DUP2 DUP2 LT PUSH8 0xFFFFFFFFFFFFFFFF DUP3 GT OR ISZERO PUSH3 0x488 JUMPI PUSH1 0x0 DUP1 REVERT JUMPDEST DUP1 PUSH1 0x40 MSTORE POP SWAP2 SWAP1 POP JUMP JUMPDEST PUSH1 0x0 PUSH8 0xFFFFFFFFFFFFFFFF DUP3 GT ISZERO PUSH3 0x4AA JUMPI PUSH1 0x0 DUP1 REVERT JUMPDEST PUSH1 0x1F NOT PUSH1 0x1F DUP4 ADD AND SWAP1 POP PUSH1 0x20 DUP2 ADD SWAP1 POP SWAP2 SWAP1 POP JUMP JUMPDEST PUSH1 0x0 DUP3 DUP3 MSTORE PUSH1 0x20 DUP3 ADD SWAP1 POP SWAP3 SWAP2 POP POP JUMP JUMPDEST PUSH1 0x0 PUSH3 0x4DD DUP3 PUSH3 0x4F8 JUMP JUMPDEST SWAP1 POP SWAP2 SWAP1 POP JUMP JUMPDEST PUSH1 0x0 PUSH3 0x4F1 DUP3 PUSH3 0x4D0 JUMP JUMPDEST SWAP1 POP SWAP2 SWAP1 POP JUMP JUMPDEST PUSH1 0x0 PUSH20 0xFFFFFFFFFFFFFFFFFFFFFFFFFFFFFFFFFFFFFFFF DUP3 AND SWAP1 POP SWAP2 SWAP1 POP JUMP JUMPDEST PUSH1 0x0 DUP2 SWAP1 POP SWAP2 SWAP1 POP JUMP JUMPDEST PUSH1 0x0 PUSH3 0x52F DUP3 PUSH3 0x536 JUMP JUMPDEST SWAP1 POP SWAP2 SWAP1 POP JUMP JUMPDEST PUSH1 0x0 PUSH3 0x543 DUP3 PUSH3 0x54A JUMP JUMPDEST SWAP1 POP SWAP2 SWAP1 POP JUMP JUMPDEST PUSH1 0x0 PUSH3 0x557 DUP3 PUSH3 0x4F8 JUMP JUMPDEST SWAP1 POP SWAP2 SWAP1 POP JUMP JUMPDEST PUSH1 0x0 JUMPDEST DUP4 DUP2 LT ISZERO PUSH3 0x57E JUMPI DUP1 DUP3 ADD MLOAD DUP2 DUP5 ADD MSTORE PUSH1 0x20 DUP2 ADD SWAP1 POP PUSH3 0x561 JUMP JUMPDEST DUP4 DUP2 GT ISZERO PUSH3 0x58E JUMPI PUSH1 0x0 DUP5 DUP5 ADD MSTORE JUMPDEST POP POP POP POP JUMP JUMPDEST PUSH3 0x59F DUP2 PUSH3 0x4D0 JUMP JUMPDEST DUP2 EQ PUSH3 0x5AB JUMPI PUSH1 0x0 DUP1 REVERT JUMPDEST POP JUMP JUMPDEST PUSH3 0x5B9 DUP2 PUSH3 0x4E4 JUMP JUMPDEST DUP2 EQ PUSH3 0x5C5 JUMPI PUSH1 0x0 DUP1 REVERT JUMPDEST POP JUMP JUMPDEST PUSH3 0x5D3 DUP2 PUSH3 0x518 JUMP JUMPDEST DUP2 EQ PUSH3 0x5DF JUMPI PUSH1 0x0 DUP1 REVERT JUMPDEST POP JUMP JUMPDEST PUSH2 0x2213 DUP1 PUSH3 0x5F2 PUSH1 0x0 CODECOPY PUSH1 0x0 RETURN INVALID PUSH1 0x80 PUSH1 0x40 MSTORE PUSH1 0x4 CALLDATASIZE LT PUSH2 0x1B7 JUMPI PUSH1 0x0 CALLDATALOAD PUSH1 0xE0 SHR DUP1 PUSH4 0x956DCD1F GT PUSH2 0xEC JUMPI DUP1 PUSH4 0xB633620C GT PUSH2 0x8A JUMPI DUP1 PUSH4 0xD606A8B7 GT PUSH2 0x64 JUMPI DUP1 PUSH4 0xD606A8B7 EQ PUSH2 0x646 JUMPI DUP1 PUSH4 0xE18910A3 EQ PUSH2 0x671 JUMPI DUP1 PUSH4 0xEF9E5E28 EQ PUSH2 0x69C JUMPI DUP1 PUSH4 0xFEAF968C EQ PUSH2 0x6B8 JUMPI PUSH2 0x1B7 JUMP JUMPDEST DUP1 PUSH4 0xB633620C EQ PUSH2 0x5B0 JUMPI DUP1 PUSH4 0xB9256D28 EQ PUSH2 0x5ED JUMPI DUP1 PUSH4 0xD47EED45 EQ PUSH2 0x609 JUMPI PUSH2 0x1B7 JUMP JUMPDEST DUP1 PUSH4 0x9A6FC8F5 GT PUSH2 0xC6 JUMPI DUP1 PUSH4 0x9A6FC8F5 EQ PUSH2 0x4B8 JUMPI DUP1 PUSH4 0xA4AE35E0 EQ PUSH2 0x4F9 JUMPI DUP1 PUSH4 0xB5AB58DC EQ PUSH2 0x536 JUMPI DUP1 PUSH4 0xB5DCC911 EQ PUSH2 0x573 JUMPI PUSH2 0x1B7 JUMP JUMPDEST DUP1 PUSH4 0x956DCD1F EQ PUSH2 0x425 JUMPI DUP1 PUSH4 0x96834AD3 EQ PUSH2 0x450 JUMPI DUP1 PUSH4 0x999B93AF EQ PUSH2 0x48D JUMPI PUSH2 0x1B7 JUMP JUMPDEST DUP1 PUSH4 0x668A0F02 GT PUSH2 0x159 JUMPI DUP1 PUSH4 0x758CDCF0 GT PUSH2 0x133 JUMPI DUP1 PUSH4 0x758CDCF0 EQ PUSH2 0x37B JUMPI DUP1 PUSH4 0x79BA5097 EQ PUSH2 0x3A6 JUMPI DUP1 PUSH4 0x8DA5CB5B EQ PUSH2 0x3BD JUMPI DUP1 PUSH4 0x9474F45B EQ PUSH2 0x3E8 JUMPI PUSH2 0x1B7 JUMP JUMPDEST DUP1 PUSH4 0x668A0F02 EQ PUSH2 0x2EA JUMPI DUP1 PUSH4 0x6A2E770F EQ PUSH2 0x315 JUMPI DUP1 PUSH4 0x711A2E28 EQ PUSH2 0x33E JUMPI PUSH2 0x1B7 JUMP JUMPDEST DUP1 PUSH4 0x3CCFD60B GT PUSH2 0x195 JUMPI DUP1 PUSH4 0x3CCFD60B EQ PUSH2 0x24D JUMPI DUP1 PUSH4 0x4716E9C5 EQ PUSH2 0x264 JUMPI DUP1 PUSH4 0x5001F3B5 EQ PUSH2 0x294 JUMPI DUP1 PUSH4 0x53A47BB7 EQ PUSH2 0x2BF JUMPI PUSH2 0x1B7 JUMP JUMPDEST DUP1 PUSH4 0x1627540C EQ PUSH2 0x1BC JUMPI DUP1 PUSH4 0x313CE567 EQ PUSH2 0x1E5 JUMPI DUP1 PUSH4 0x31D98B3F EQ PUSH2 0x210 JUMPI JUMPDEST PUSH1 0x0 DUP1 REVERT JUMPDEST CALLVALUE DUP1 ISZERO PUSH2 0x1C8 JUMPI PUSH1 0x0 DUP1 REVERT JUMPDEST POP PUSH2 0x1E3 PUSH1 0x4 DUP1 CALLDATASIZE SUB PUSH2 0x1DE SWAP2 SWAP1 DUP2 ADD SWAP1 PUSH2 0x16C7 JUMP JUMPDEST PUSH2 0x6E7 JUMP JUMPDEST STOP JUMPDEST CALLVALUE DUP1 ISZERO PUSH2 0x1F1 JUMPI PUSH1 0x0 DUP1 REVERT JUMPDEST POP PUSH2 0x1FA PUSH2 0x76A JUMP JUMPDEST PUSH1 0x40 MLOAD PUSH2 0x207 SWAP2 SWAP1 PUSH2 0x1F97 JUMP JUMPDEST PUSH1 0x40 MLOAD DUP1 SWAP2 SUB SWAP1 RETURN JUMPDEST CALLVALUE DUP1 ISZERO PUSH2 0x21C JUMPI PUSH1 0x0 DUP1 REVERT JUMPDEST POP PUSH2 0x237 PUSH1 0x4 DUP1 CALLDATASIZE SUB PUSH2 0x232 SWAP2 SWAP1 DUP2 ADD SWAP1 PUSH2 0x1874 JUMP JUMPDEST PUSH2 0x773 JUMP JUMPDEST PUSH1 0x40 MLOAD PUSH2 0x244 SWAP2 SWAP1 PUSH2 0x1EF3 JUMP JUMPDEST PUSH1 0x40 MLOAD DUP1 SWAP2 SUB SWAP1 RETURN JUMPDEST CALLVALUE DUP1 ISZERO PUSH2 0x259 JUMPI PUSH1 0x0 DUP1 REVERT JUMPDEST POP PUSH2 0x262 PUSH2 0x78A JUMP JUMPDEST STOP JUMPDEST PUSH2 0x27E PUSH1 0x4 DUP1 CALLDATASIZE SUB PUSH2 0x279 SWAP2 SWAP1 DUP2 ADD SWAP1 PUSH2 0x17D9 JUMP JUMPDEST PUSH2 0x862 JUMP JUMPDEST PUSH1 0x40 MLOAD PUSH2 0x28B SWAP2 SWAP1 PUSH2 0x1DE2 JUMP JUMPDEST PUSH1 0x40 MLOAD DUP1 SWAP2 SUB SWAP1 RETURN JUMPDEST CALLVALUE DUP1 ISZERO PUSH2 0x2A0 JUMPI PUSH1 0x0 DUP1 REVERT JUMPDEST POP PUSH2 0x2A9 PUSH2 0x8D6 JUMP JUMPDEST PUSH1 0x40 MLOAD PUSH2 0x2B6 SWAP2 SWAP1 PUSH2 0x1E3A JUMP JUMPDEST PUSH1 0x40 MLOAD DUP1 SWAP2 SUB SWAP1 RETURN JUMPDEST CALLVALUE DUP1 ISZERO PUSH2 0x2CB JUMPI PUSH1 0x0 DUP1 REVERT JUMPDEST POP PUSH2 0x2D4 PUSH2 0x974 JUMP JUMPDEST PUSH1 0x40 MLOAD PUSH2 0x2E1 SWAP2 SWAP1 PUSH2 0x1D9E JUMP JUMPDEST PUSH1 0x40 MLOAD DUP1 SWAP2 SUB SWAP1 RETURN JUMPDEST CALLVALUE DUP1 ISZERO PUSH2 0x2F6 JUMPI PUSH1 0x0 DUP1 REVERT JUMPDEST POP PUSH2 0x2FF PUSH2 0x99A JUMP JUMPDEST PUSH1 0x40 MLOAD PUSH2 0x30C SWAP2 SWAP1 PUSH2 0x1F29 JUMP JUMPDEST PUSH1 0x40 MLOAD DUP1 SWAP2 SUB SWAP1 RETURN JUMPDEST CALLVALUE DUP1 ISZERO PUSH2 0x321 JUMPI PUSH1 0x0 DUP1 REVERT JUMPDEST POP PUSH2 0x33C PUSH1 0x4 DUP1 CALLDATASIZE SUB PUSH2 0x337 SWAP2 SWAP1 DUP2 ADD SWAP1 PUSH2 0x1902 JUMP JUMPDEST PUSH2 0xA76 JUMP JUMPDEST STOP JUMPDEST CALLVALUE DUP1 ISZERO PUSH2 0x34A JUMPI PUSH1 0x0 DUP1 REVERT JUMPDEST POP PUSH2 0x365 PUSH1 0x4 DUP1 CALLDATASIZE SUB PUSH2 0x360 SWAP2 SWAP1 DUP2 ADD SWAP1 PUSH2 0x189D JUMP JUMPDEST PUSH2 0xA88 JUMP JUMPDEST PUSH1 0x40 MLOAD PUSH2 0x372 SWAP2 SWAP1 PUSH2 0x1EF3 JUMP JUMPDEST PUSH1 0x40 MLOAD DUP1 SWAP2 SUB SWAP1 RETURN JUMPDEST CALLVALUE DUP1 ISZERO PUSH2 0x387 JUMPI PUSH1 0x0 DUP1 REVERT JUMPDEST POP PUSH2 0x390 PUSH2 0xB02 JUMP JUMPDEST PUSH1 0x40 MLOAD PUSH2 0x39D SWAP2 SWAP1 PUSH2 0x1F29 JUMP JUMPDEST PUSH1 0x40 MLOAD DUP1 SWAP2 SUB SWAP1 RETURN JUMPDEST CALLVALUE DUP1 ISZERO PUSH2 0x3B2 JUMPI PUSH1 0x0 DUP1 REVERT JUMPDEST POP PUSH2 0x3BB PUSH2 0xB08 JUMP JUMPDEST STOP JUMPDEST CALLVALUE DUP1 ISZERO PUSH2 0x3C9 JUMPI PUSH1 0x0 DUP1 REVERT JUMPDEST POP PUSH2 0x3D2 PUSH2 0xCBA JUMP JUMPDEST PUSH1 0x40 MLOAD PUSH2 0x3DF SWAP2 SWAP1 PUSH2 0x1D9E JUMP JUMPDEST PUSH1 0x40 MLOAD DUP1 SWAP2 SUB SWAP1 RETURN JUMPDEST CALLVALUE DUP1 ISZERO PUSH2 0x3F4 JUMPI PUSH1 0x0 DUP1 REVERT JUMPDEST POP PUSH2 0x40F PUSH1 0x4 DUP1 CALLDATASIZE SUB PUSH2 0x40A SWAP2 SWAP1 DUP2 ADD SWAP1 PUSH2 0x1874 JUMP JUMPDEST PUSH2 0xCDF JUMP JUMPDEST PUSH1 0x40 MLOAD PUSH2 0x41C SWAP2 SWAP1 PUSH2 0x1EF3 JUMP JUMPDEST PUSH1 0x40 MLOAD DUP1 SWAP2 SUB SWAP1 RETURN JUMPDEST CALLVALUE DUP1 ISZERO PUSH2 0x431 JUMPI PUSH1 0x0 DUP1 REVERT JUMPDEST POP PUSH2 0x43A PUSH2 0xD59 JUMP JUMPDEST PUSH1 0x40 MLOAD PUSH2 0x447 SWAP2 SWAP1 PUSH2 0x1E04 JUMP JUMPDEST PUSH1 0x40 MLOAD DUP1 SWAP2 SUB SWAP1 RETURN JUMPDEST CALLVALUE DUP1 ISZERO PUSH2 0x45C JUMPI PUSH1 0x0 DUP1 REVERT JUMPDEST POP PUSH2 0x477 PUSH1 0x4 DUP1 CALLDATASIZE SUB PUSH2 0x472 SWAP2 SWAP1 DUP2 ADD SWAP1 PUSH2 0x1874 JUMP JUMPDEST PUSH2 0xD7F JUMP JUMPDEST PUSH1 0x40 MLOAD PUSH2 0x484 SWAP2 SWAP1 PUSH2 0x1EF3 JUMP JUMPDEST PUSH1 0x40 MLOAD DUP1 SWAP2 SUB SWAP1 RETURN JUMPDEST CALLVALUE DUP1 ISZERO PUSH2 0x499 JUMPI PUSH1 0x0 DUP1 REVERT JUMPDEST POP PUSH2 0x4A2 PUSH2 0xD96 JUMP JUMPDEST PUSH1 0x40 MLOAD PUSH2 0x4AF SWAP2 SWAP1 PUSH2 0x1E3A JUMP JUMPDEST PUSH1 0x40 MLOAD DUP1 SWAP2 SUB SWAP1 RETURN JUMPDEST CALLVALUE DUP1 ISZERO PUSH2 0x4C4 JUMPI PUSH1 0x0 DUP1 REVERT JUMPDEST POP PUSH2 0x4DF PUSH1 0x4 DUP1 CALLDATASIZE SUB PUSH2 0x4DA SWAP2 SWAP1 DUP2 ADD SWAP1 PUSH2 0x192B JUMP JUMPDEST PUSH2 0xE34 JUMP JUMPDEST PUSH1 0x40 MLOAD PUSH2 0x4F0 SWAP6 SWAP5 SWAP4 SWAP3 SWAP2 SWAP1 PUSH2 0x1F44 JUMP JUMPDEST PUSH1 0x40 MLOAD DUP1 SWAP2 SUB SWAP1 RETURN JUMPDEST CALLVALUE DUP1 ISZERO PUSH2 0x505 JUMPI PUSH1 0x0 DUP1 REVERT JUMPDEST POP PUSH2 0x520 PUSH1 0x4 DUP1 CALLDATASIZE SUB PUSH2 0x51B SWAP2 SWAP1 DUP2 ADD SWAP1 PUSH2 0x189D JUMP JUMPDEST PUSH2 0xEF2 JUMP JUMPDEST PUSH1 0x40 MLOAD PUSH2 0x52D SWAP2 SWAP1 PUSH2 0x1EF3 JUMP JUMPDEST PUSH1 0x40 MLOAD DUP1 SWAP2 SUB SWAP1 RETURN JUMPDEST CALLVALUE DUP1 ISZERO PUSH2 0x542 JUMPI PUSH1 0x0 DUP1 REVERT JUMPDEST POP PUSH2 0x55D PUSH1 0x4 DUP1 CALLDATASIZE SUB PUSH2 0x558 SWAP2 SWAP1 DUP2 ADD SWAP1 PUSH2 0x1902 JUMP JUMPDEST PUSH2 0xF6C JUMP JUMPDEST PUSH1 0x40 MLOAD PUSH2 0x56A SWAP2 SWAP1 PUSH2 0x1E1F JUMP JUMPDEST PUSH1 0x40 MLOAD DUP1 SWAP2 SUB SWAP1 RETURN JUMPDEST CALLVALUE DUP1 ISZERO PUSH2 0x57F JUMPI PUSH1 0x0 DUP1 REVERT JUMPDEST POP PUSH2 0x59A PUSH1 0x4 DUP1 CALLDATASIZE SUB PUSH2 0x595 SWAP2 SWAP1 DUP2 ADD SWAP1 PUSH2 0x1874 JUMP JUMPDEST PUSH2 0xFE0 JUMP JUMPDEST PUSH1 0x40 MLOAD PUSH2 0x5A7 SWAP2 SWAP1 PUSH2 0x1EF3 JUMP JUMPDEST PUSH1 0x40 MLOAD DUP1 SWAP2 SUB SWAP1 RETURN JUMPDEST CALLVALUE DUP1 ISZERO PUSH2 0x5BC JUMPI PUSH1 0x0 DUP1 REVERT JUMPDEST POP PUSH2 0x5D7 PUSH1 0x4 DUP1 CALLDATASIZE SUB PUSH2 0x5D2 SWAP2 SWAP1 DUP2 ADD SWAP1 PUSH2 0x1902 JUMP JUMPDEST PUSH2 0x105A JUMP JUMPDEST PUSH1 0x40 MLOAD PUSH2 0x5E4 SWAP2 SWAP1 PUSH2 0x1F29 JUMP JUMPDEST PUSH1 0x40 MLOAD DUP1 SWAP2 SUB SWAP1 RETURN JUMPDEST PUSH2 0x607 PUSH1 0x4 DUP1 CALLDATASIZE SUB PUSH2 0x602 SWAP2 SWAP1 DUP2 ADD SWAP1 PUSH2 0x1735 JUMP JUMPDEST PUSH2 0x10CE JUMP JUMPDEST STOP JUMPDEST CALLVALUE DUP1 ISZERO PUSH2 0x615 JUMPI PUSH1 0x0 DUP1 REVERT JUMPDEST POP PUSH2 0x630 PUSH1 0x4 DUP1 CALLDATASIZE SUB PUSH2 0x62B SWAP2 SWAP1 DUP2 ADD SWAP1 PUSH2 0x16F0 JUMP JUMPDEST PUSH2 0x10D6 JUMP JUMPDEST PUSH1 0x40 MLOAD PUSH2 0x63D SWAP2 SWAP1 PUSH2 0x1F29 JUMP JUMPDEST PUSH1 0x40 MLOAD DUP1 SWAP2 SUB SWAP1 RETURN JUMPDEST CALLVALUE DUP1 ISZERO PUSH2 0x652 JUMPI PUSH1 0x0 DUP1 REVERT JUMPDEST POP PUSH2 0x65B PUSH2 0x10E3 JUMP JUMPDEST PUSH1 0x40 MLOAD PUSH2 0x668 SWAP2 SWAP1 PUSH2 0x1F0E JUMP JUMPDEST PUSH1 0x40 MLOAD DUP1 SWAP2 SUB SWAP1 RETURN JUMPDEST CALLVALUE DUP1 ISZERO PUSH2 0x67D JUMPI PUSH1 0x0 DUP1 REVERT JUMPDEST POP PUSH2 0x686 PUSH2 0x11F9 JUMP JUMPDEST PUSH1 0x40 MLOAD PUSH2 0x693 SWAP2 SWAP1 PUSH2 0x1F29 JUMP JUMPDEST PUSH1 0x40 MLOAD DUP1 SWAP2 SUB SWAP1 RETURN JUMPDEST PUSH2 0x6B6 PUSH1 0x4 DUP1 CALLDATASIZE SUB PUSH2 0x6B1 SWAP2 SWAP1 DUP2 ADD SWAP1 PUSH2 0x16F0 JUMP JUMPDEST PUSH2 0x126D JUMP JUMPDEST STOP JUMPDEST CALLVALUE DUP1 ISZERO PUSH2 0x6C4 JUMPI PUSH1 0x0 DUP1 REVERT JUMPDEST POP PUSH2 0x6CD PUSH2 0x1271 JUMP JUMPDEST PUSH1 0x40 MLOAD PUSH2 0x6DE SWAP6 SWAP5 SWAP4 SWAP3 SWAP2 SWAP1 PUSH2 0x1F44 JUMP JUMPDEST PUSH1 0x40 MLOAD DUP1 SWAP2 SUB SWAP1 RETURN JUMPDEST PUSH2 0x6EF PUSH2 0x1292 JUMP JUMPDEST DUP1 PUSH1 0x1 PUSH1 0x0 PUSH2 0x100 EXP DUP2 SLOAD DUP2 PUSH20 0xFFFFFFFFFFFFFFFFFFFFFFFFFFFFFFFFFFFFFFFF MUL NOT AND SWAP1 DUP4 PUSH20 0xFFFFFFFFFFFFFFFFFFFFFFFFFFFFFFFFFFFFFFFF AND MUL OR SWAP1 SSTORE POP PUSH32 0x906A1C6BD7E3091EA86693DD029A831C19049CE77F1DCE2CE0BAB1CACBABCE22 DUP2 PUSH1 0x40 MLOAD PUSH2 0x75F SWAP2 SWAP1 PUSH2 0x1D9E JUMP JUMPDEST PUSH1 0x40 MLOAD DUP1 SWAP2 SUB SWAP1 LOG1 POP JUMP JUMPDEST PUSH1 0x0 PUSH1 0x12 SWAP1 POP SWAP1 JUMP JUMPDEST PUSH2 0x77B PUSH2 0x1498 JUMP JUMPDEST PUSH2 0x783 PUSH2 0x1323 JUMP JUMPDEST SWAP1 POP SWAP2 SWAP1 POP JUMP JUMPDEST PUSH2 0x792 PUSH2 0x1292 JUMP JUMPDEST PUSH1 0x0 DUP1 PUSH1 0x0 SWAP1 SLOAD SWAP1 PUSH2 0x100 EXP SWAP1 DIV PUSH20 0xFFFFFFFFFFFFFFFFFFFFFFFFFFFFFFFFFFFFFFFF AND PUSH20 0xFFFFFFFFFFFFFFFFFFFFFFFFFFFFFFFFFFFFFFFF AND SELFBALANCE PUSH1 0x40 MLOAD PUSH2 0x7D9 SWAP1 PUSH2 0x1D89 JUMP JUMPDEST PUSH1 0x0 PUSH1 0x40 MLOAD DUP1 DUP4 SUB DUP2 DUP6 DUP8 GAS CALL SWAP3 POP POP POP RETURNDATASIZE DUP1 PUSH1 0x0 DUP2 EQ PUSH2 0x816 JUMPI PUSH1 0x40 MLOAD SWAP2 POP PUSH1 0x1F NOT PUSH1 0x3F RETURNDATASIZE ADD AND DUP3 ADD PUSH1 0x40 MSTORE RETURNDATASIZE DUP3 MSTORE RETURNDATASIZE PUSH1 0x0 PUSH1 0x20 DUP5 ADD RETURNDATACOPY PUSH2 0x81B JUMP JUMPDEST PUSH1 0x60 SWAP2 POP JUMPDEST POP POP SWAP1 POP DUP1 PUSH2 0x85F JUMPI PUSH1 0x40 MLOAD PUSH32 0x8C379A000000000000000000000000000000000000000000000000000000000 DUP2 MSTORE PUSH1 0x4 ADD PUSH2 0x856 SWAP1 PUSH2 0x1ED3 JUMP JUMPDEST PUSH1 0x40 MLOAD DUP1 SWAP2 SUB SWAP1 REVERT JUMPDEST POP JUMP JUMPDEST PUSH1 0x60 PUSH1 0x40 MLOAD DUP1 PUSH1 0x40 ADD PUSH1 0x40 MSTORE DUP1 PUSH1 0xF DUP2 MSTORE PUSH1 0x20 ADD PUSH32 0x4E4F545F494D504C454D454E5445440000000000000000000000000000000000 DUP2 MSTORE POP PUSH1 0x40 MLOAD PUSH32 0x8C379A000000000000000000000000000000000000000000000000000000000 DUP2 MSTORE PUSH1 0x4 ADD PUSH2 0x8CD SWAP2 SWAP1 PUSH2 0x1E3A JUMP JUMPDEST PUSH1 0x40 MLOAD DUP1 SWAP2 SUB SWAP1 REVERT JUMPDEST PUSH1 0x3 DUP1 SLOAD PUSH1 0x1 DUP2 PUSH1 0x1 AND ISZERO PUSH2 0x100 MUL SUB AND PUSH1 0x2 SWAP1 DIV DUP1 PUSH1 0x1F ADD PUSH1 0x20 DUP1 SWAP2 DIV MUL PUSH1 0x20 ADD PUSH1 0x40 MLOAD SWAP1 DUP2 ADD PUSH1 0x40 MSTORE DUP1 SWAP3 SWAP2 SWAP1 DUP2 DUP2 MSTORE PUSH1 0x20 ADD DUP3 DUP1 SLOAD PUSH1 0x1 DUP2 PUSH1 0x1 AND ISZERO PUSH2 0x100 MUL SUB AND PUSH1 0x2 SWAP1 DIV DUP1 ISZERO PUSH2 0x96C JUMPI DUP1 PUSH1 0x1F LT PUSH2 0x941 JUMPI PUSH2 0x100 DUP1 DUP4 SLOAD DIV MUL DUP4 MSTORE SWAP2 PUSH1 0x20 ADD SWAP2 PUSH2 0x96C JUMP JUMPDEST DUP3 ADD SWAP2 SWAP1 PUSH1 0x0 MSTORE PUSH1 0x20 PUSH1 0x0 KECCAK256 SWAP1 JUMPDEST DUP2 SLOAD DUP2 MSTORE SWAP1 PUSH1 0x1 ADD SWAP1 PUSH1 0x20 ADD DUP1 DUP4 GT PUSH2 0x94F JUMPI DUP3 SWAP1 SUB PUSH1 0x1F AND DUP3 ADD SWAP2 JUMPDEST POP POP POP POP POP DUP2 JUMP JUMPDEST PUSH1 0x1 PUSH1 0x0 SWAP1 SLOAD SWAP1 PUSH2 0x100 EXP SWAP1 DIV PUSH20 0xFFFFFFFFFFFFFFFFFFFFFFFFFFFFFFFFFFFFFFFF AND DUP2 JUMP JUMPDEST PUSH1 0x0 PUSH2 0x9A4 PUSH2 0x14D0 JUMP JUMPDEST PUSH1 0x2 PUSH1 0x0 SWAP1 SLOAD SWAP1 PUSH2 0x100 EXP SWAP1 DIV PUSH20 0xFFFFFFFFFFFFFFFFFFFFFFFFFFFFFFFFFFFFFFFF AND PUSH20 0xFFFFFFFFFFFFFFFFFFFFFFFFFFFFFFFFFFFFFFFF AND PUSH4 0x65555BCC PUSH1 0x3 PUSH1 0x4 PUSH1 0x40 MLOAD DUP4 PUSH4 0xFFFFFFFF AND PUSH1 0xE0 SHL DUP2 MSTORE PUSH1 0x4 ADD PUSH2 0xA03 SWAP3 SWAP2 SWAP1 PUSH2 0x1E5C JUMP JUMPDEST PUSH1 0x60 PUSH1 0x40 MLOAD DUP1 DUP4 SUB DUP2 DUP7 DUP1 EXTCODESIZE ISZERO DUP1 ISZERO PUSH2 0xA1B JUMPI PUSH1 0x0 DUP1 REVERT JUMPDEST POP GAS STATICCALL ISZERO DUP1 ISZERO PUSH2 0xA2F JUMPI RETURNDATASIZE PUSH1 0x0 DUP1 RETURNDATACOPY RETURNDATASIZE PUSH1 0x0 REVERT JUMPDEST POP POP POP POP PUSH1 0x40 MLOAD RETURNDATASIZE PUSH1 0x1F NOT PUSH1 0x1F DUP3 ADD AND DUP3 ADD DUP1 PUSH1 0x40 MSTORE POP PUSH2 0xA53 SWAP2 SWAP1 DUP2 ADD SWAP1 PUSH2 0x18D9 JUMP JUMPDEST SWAP1 POP PUSH1 0x0 DUP2 PUSH1 0x20 ADD MLOAD EQ PUSH2 0xA6E JUMPI DUP1 PUSH1 0x20 ADD MLOAD SWAP2 POP POP PUSH2 0xA73 JUMP JUMPDEST TIMESTAMP SWAP2 POP POP JUMPDEST SWAP1 JUMP JUMPDEST PUSH2 0xA7E PUSH2 0x1292 JUMP JUMPDEST DUP1 PUSH1 0x6 DUP2 SWAP1 SSTORE POP POP JUMP JUMPDEST PUSH2 0xA90 PUSH2 0x1498 JUMP JUMPDEST PUSH1 0x40 MLOAD DUP1 PUSH1 0x40 ADD PUSH1 0x40 MSTORE DUP1 PUSH1 0xF DUP2 MSTORE PUSH1 0x20 ADD PUSH32 0x4E4F545F494D504C454D454E5445440000000000000000000000000000000000 DUP2 MSTORE POP PUSH1 0x40 MLOAD PUSH32 0x8C379A000000000000000000000000000000000000000000000000000000000 DUP2 MSTORE PUSH1 0x4 ADD PUSH2 0xAF9 SWAP2 SWAP1 PUSH2 0x1E3A JUMP JUMPDEST PUSH1 0x40 MLOAD DUP1 SWAP2 SUB SWAP1 REVERT JUMPDEST PUSH1 0x6 SLOAD DUP2 JUMP JUMPDEST PUSH1 0x1 PUSH1 0x0 SWAP1 SLOAD SWAP1 PUSH2 0x100 EXP SWAP1 DIV PUSH20 0xFFFFFFFFFFFFFFFFFFFFFFFFFFFFFFFFFFFFFFFF AND PUSH20 0xFFFFFFFFFFFFFFFFFFFFFFFFFFFFFFFFFFFFFFFF AND CALLER PUSH20 0xFFFFFFFFFFFFFFFFFFFFFFFFFFFFFFFFFFFFFFFF AND EQ PUSH2 0xB98 JUMPI PUSH1 0x40 MLOAD PUSH32 0x8C379A000000000000000000000000000000000000000000000000000000000 DUP2 MSTORE PUSH1 0x4 ADD PUSH2 0xB8F SWAP1 PUSH2 0x1E93 JUMP JUMPDEST PUSH1 0x40 MLOAD DUP1 SWAP2 SUB SWAP1 REVERT JUMPDEST PUSH32 0xB532073B38C83145E3E5135377A08BF9AAB55BC0FD7C1179CD4FB995D2A5159C PUSH1 0x0 DUP1 SWAP1 SLOAD SWAP1 PUSH2 0x100 EXP SWAP1 DIV PUSH20 0xFFFFFFFFFFFFFFFFFFFFFFFFFFFFFFFFFFFFFFFF AND PUSH1 0x1 PUSH1 0x0 SWAP1 SLOAD SWAP1 PUSH2 0x100 EXP SWAP1 DIV PUSH20 0xFFFFFFFFFFFFFFFFFFFFFFFFFFFFFFFFFFFFFFFF AND PUSH1 0x40 MLOAD PUSH2 0xC0C SWAP3 SWAP2 SWAP1 PUSH2 0x1DB9 JUMP JUMPDEST PUSH1 0x40 MLOAD DUP1 SWAP2 SUB SWAP1 LOG1 PUSH1 0x1 PUSH1 0x0 SWAP1 SLOAD SWAP1 PUSH2 0x100 EXP SWAP1 DIV PUSH20 0xFFFFFFFFFFFFFFFFFFFFFFFFFFFFFFFFFFFFFFFF AND PUSH1 0x0 DUP1 PUSH2 0x100 EXP DUP2 SLOAD DUP2 PUSH20 0xFFFFFFFFFFFFFFFFFFFFFFFFFFFFFFFFFFFFFFFF MUL NOT AND SWAP1 DUP4 PUSH20 0xFFFFFFFFFFFFFFFFFFFFFFFFFFFFFFFFFFFFFFFF AND MUL OR SWAP1 SSTORE POP PUSH1 0x0 PUSH1 0x1 PUSH1 0x0 PUSH2 0x100 EXP DUP2 SLOAD DUP2 PUSH20 0xFFFFFFFFFFFFFFFFFFFFFFFFFFFFFFFFFFFFFFFF MUL NOT AND SWAP1 DUP4 PUSH20 0xFFFFFFFFFFFFFFFFFFFFFFFFFFFFFFFFFFFFFFFF AND MUL OR SWAP1 SSTORE POP JUMP JUMPDEST PUSH1 0x0 DUP1 SWAP1 SLOAD SWAP1 PUSH2 0x100 EXP SWAP1 DIV PUSH20 0xFFFFFFFFFFFFFFFFFFFFFFFFFFFFFFFFFFFFFFFF AND DUP2 JUMP JUMPDEST PUSH2 0xCE7 PUSH2 0x1498 JUMP JUMPDEST PUSH1 0x40 MLOAD DUP1 PUSH1 0x40 ADD PUSH1 0x40 MSTORE DUP1 PUSH1 0xF DUP2 MSTORE PUSH1 0x20 ADD PUSH32 0x4E4F545F494D504C454D454E5445440000000000000000000000000000000000 DUP2 MSTORE POP PUSH1 0x40 MLOAD PUSH32 0x8C379A000000000000000000000000000000000000000000000000000000000 DUP2 MSTORE PUSH1 0x4 ADD PUSH2 0xD50 SWAP2 SWAP1 PUSH2 0x1E3A JUMP JUMPDEST PUSH1 0x40 MLOAD DUP1 SWAP2 SUB SWAP1 REVERT JUMPDEST PUSH1 0x2 PUSH1 0x0 SWAP1 SLOAD SWAP1 PUSH2 0x100 EXP SWAP1 DIV PUSH20 0xFFFFFFFFFFFFFFFFFFFFFFFFFFFFFFFFFFFFFFFF AND DUP2 JUMP JUMPDEST PUSH2 0xD87 PUSH2 0x1498 JUMP JUMPDEST PUSH2 0xD8F PUSH2 0x1323 JUMP JUMPDEST SWAP1 POP SWAP2 SWAP1 POP JUMP JUMPDEST PUSH1 0x4 DUP1 SLOAD PUSH1 0x1 DUP2 PUSH1 0x1 AND ISZERO PUSH2 0x100 MUL SUB AND PUSH1 0x2 SWAP1 DIV DUP1 PUSH1 0x1F ADD PUSH1 0x20 DUP1 SWAP2 DIV MUL PUSH1 0x20 ADD PUSH1 0x40 MLOAD SWAP1 DUP2 ADD PUSH1 0x40 MSTORE DUP1 SWAP3 SWAP2 SWAP1 DUP2 DUP2 MSTORE PUSH1 0x20 ADD DUP3 DUP1 SLOAD PUSH1 0x1 DUP2 PUSH1 0x1 AND ISZERO PUSH2 0x100 MUL SUB AND PUSH1 0x2 SWAP1 DIV DUP1 ISZERO PUSH2 0xE2C JUMPI DUP1 PUSH1 0x1F LT PUSH2 0xE01 JUMPI PUSH2 0x100 DUP1 DUP4 SLOAD DIV MUL DUP4 MSTORE SWAP2 PUSH1 0x20 ADD SWAP2 PUSH2 0xE2C JUMP JUMPDEST DUP3 ADD SWAP2 SWAP1 PUSH1 0x0 MSTORE PUSH1 0x20 PUSH1 0x0 KECCAK256 SWAP1 JUMPDEST DUP2 SLOAD DUP2 MSTORE SWAP1 PUSH1 0x1 ADD SWAP1 PUSH1 0x20 ADD DUP1 DUP4 GT PUSH2 0xE0F JUMPI DUP3 SWAP1 SUB PUSH1 0x1F AND DUP3 ADD SWAP2 JUMPDEST POP POP POP POP POP DUP2 JUMP JUMPDEST PUSH1 0x0 DUP1 PUSH1 0x0 DUP1 PUSH1 0x0 TIMESTAMP DUP7 PUSH10 0xFFFFFFFFFFFFFFFFFFFF AND EQ ISZERO PUSH2 0xE67 JUMPI PUSH2 0xE58 PUSH2 0x13A2 JUMP JUMPDEST SWAP5 POP SWAP5 POP SWAP5 POP SWAP5 POP SWAP5 POP PUSH2 0xEE9 JUMP JUMPDEST PUSH1 0x0 PUSH1 0x5 PUSH1 0x0 DUP9 PUSH10 0xFFFFFFFFFFFFFFFFFFFF AND DUP2 MSTORE PUSH1 0x20 ADD SWAP1 DUP2 MSTORE PUSH1 0x20 ADD PUSH1 0x0 KECCAK256 SLOAD SWAP1 POP PUSH1 0x0 DUP2 EQ PUSH2 0xEC6 JUMPI DUP7 DUP2 DUP9 DUP10 DUP11 DUP3 PUSH10 0xFFFFFFFFFFFFFFFFFFFF AND SWAP3 POP DUP2 PUSH10 0xFFFFFFFFFFFFFFFFFFFF AND SWAP2 POP SWAP6 POP SWAP6 POP SWAP6 POP SWAP6 POP SWAP6 POP POP PUSH2 0xEE9 JUMP JUMPDEST PUSH1 0x0 DUP1 PUSH1 0x0 DUP1 PUSH1 0x0 DUP5 SWAP5 POP DUP4 SWAP4 POP DUP3 SWAP3 POP DUP2 SWAP2 POP DUP1 SWAP1 POP SWAP6 POP SWAP6 POP SWAP6 POP SWAP6 POP SWAP6 POP POP JUMPDEST SWAP2 SWAP4 SWAP6 SWAP1 SWAP3 SWAP5 POP JUMP JUMPDEST PUSH2 0xEFA PUSH2 0x1498 JUMP JUMPDEST PUSH1 0x40 MLOAD DUP1 PUSH1 0x40 ADD PUSH1 0x40 MSTORE DUP1 PUSH1 0xF DUP2 MSTORE PUSH1 0x20 ADD PUSH32 0x4E4F545F494D504C454D454E5445440000000000000000000000000000000000 DUP2 MSTORE POP PUSH1 0x40 MLOAD PUSH32 0x8C379A000000000000000000000000000000000000000000000000000000000 DUP2 MSTORE PUSH1 0x4 ADD PUSH2 0xF63 SWAP2 SWAP1 PUSH2 0x1E3A JUMP JUMPDEST PUSH1 0x40 MLOAD DUP1 SWAP2 SUB SWAP1 REVERT JUMPDEST PUSH1 0x0 PUSH1 0x40 MLOAD DUP1 PUSH1 0x40 ADD PUSH1 0x40 MSTORE DUP1 PUSH1 0xF DUP2 MSTORE PUSH1 0x20 ADD PUSH32 0x4E4F545F494D504C454D454E5445440000000000000000000000000000000000 DUP2 MSTORE POP PUSH1 0x40 MLOAD PUSH32 0x8C379A000000000000000000000000000000000000000000000000000000000 DUP2 MSTORE PUSH1 0x4 ADD PUSH2 0xFD7 SWAP2 SWAP1 PUSH2 0x1E3A JUMP JUMPDEST PUSH1 0x40 MLOAD DUP1 SWAP2 SUB SWAP1 REVERT JUMPDEST PUSH2 0xFE8 PUSH2 0x1498 JUMP JUMPDEST PUSH1 0x40 MLOAD DUP1 PUSH1 0x40 ADD PUSH1 0x40 MSTORE DUP1 PUSH1 0xF DUP2 MSTORE PUSH1 0x20 ADD PUSH32 0x4E4F545F494D504C454D454E5445440000000000000000000000000000000000 DUP2 MSTORE POP PUSH1 0x40 MLOAD PUSH32 0x8C379A000000000000000000000000000000000000000000000000000000000 DUP2 MSTORE PUSH1 0x4 ADD PUSH2 0x1051 SWAP2 SWAP1 PUSH2 0x1E3A JUMP JUMPDEST PUSH1 0x40 MLOAD DUP1 SWAP2 SUB SWAP1 REVERT JUMPDEST PUSH1 0x0 PUSH1 0x40 MLOAD DUP1 PUSH1 0x40 ADD PUSH1 0x40 MSTORE DUP1 PUSH1 0xF DUP2 MSTORE PUSH1 0x20 ADD PUSH32 0x4E4F545F494D504C454D454E5445440000000000000000000000000000000000 DUP2 MSTORE POP PUSH1 0x40 MLOAD PUSH32 0x8C379A000000000000000000000000000000000000000000000000000000000 DUP2 MSTORE PUSH1 0x4 ADD PUSH2 0x10C5 SWAP2 SWAP1 PUSH2 0x1E3A JUMP JUMPDEST PUSH1 0x40 MLOAD DUP1 SWAP2 SUB SWAP1 REVERT JUMPDEST POP POP POP POP POP POP JUMP JUMPDEST PUSH1 0x0 PUSH1 0x6 SLOAD SWAP1 POP SWAP3 SWAP2 POP POP JUMP JUMPDEST PUSH2 0x10EB PUSH2 0x14F1 JUMP JUMPDEST PUSH2 0x10F3 PUSH2 0x14D0 JUMP JUMPDEST PUSH1 0x2 PUSH1 0x0 SWAP1 SLOAD SWAP1 PUSH2 0x100 EXP SWAP1 DIV PUSH20 0xFFFFFFFFFFFFFFFFFFFFFFFFFFFFFFFFFFFFFFFF AND PUSH20 0xFFFFFFFFFFFFFFFFFFFFFFFFFFFFFFFFFFFFFFFF AND PUSH4 0x65555BCC PUSH1 0x3 PUSH1 0x4 PUSH1 0x40 MLOAD DUP4 PUSH4 0xFFFFFFFF AND PUSH1 0xE0 SHL DUP2 MSTORE PUSH1 0x4 ADD PUSH2 0x1152 SWAP3 SWAP2 SWAP1 PUSH2 0x1E5C JUMP JUMPDEST PUSH1 0x60 PUSH1 0x40 MLOAD DUP1 DUP4 SUB DUP2 DUP7 DUP1 EXTCODESIZE ISZERO DUP1 ISZERO PUSH2 0x116A JUMPI PUSH1 0x0 DUP1 REVERT JUMPDEST POP GAS STATICCALL ISZERO DUP1 ISZERO PUSH2 0x117E JUMPI RETURNDATASIZE PUSH1 0x0 DUP1 RETURNDATACOPY RETURNDATASIZE PUSH1 0x0 REVERT JUMPDEST POP POP POP POP PUSH1 0x40 MLOAD RETURNDATASIZE PUSH1 0x1F NOT PUSH1 0x1F DUP3 ADD AND DUP3 ADD DUP1 PUSH1 0x40 MSTORE POP PUSH2 0x11A2 SWAP2 SWAP1 DUP2 ADD SWAP1 PUSH2 0x18D9 JUMP JUMPDEST SWAP1 POP PUSH1 0x0 TIMESTAMP SWAP1 POP PUSH1 0x0 DUP3 PUSH1 0x20 ADD MLOAD EQ PUSH2 0x11BD JUMPI DUP2 PUSH1 0x20 ADD MLOAD SWAP1 POP JUMPDEST DUP2 PUSH1 0x0 ADD MLOAD PUSH1 0x5 PUSH1 0x0 DUP4 DUP2 MSTORE PUSH1 0x20 ADD SWAP1 DUP2 MSTORE PUSH1 0x20 ADD PUSH1 0x0 KECCAK256 DUP2 SWAP1 SSTORE POP PUSH1 0x40 MLOAD DUP1 PUSH1 0x40 ADD PUSH1 0x40 MSTORE DUP1 DUP4 PUSH1 0x0 ADD MLOAD DUP2 MSTORE PUSH1 0x20 ADD DUP3 DUP2 MSTORE POP SWAP3 POP POP POP SWAP1 JUMP JUMPDEST PUSH1 0x0 PUSH1 0x40 MLOAD DUP1 PUSH1 0x40 ADD PUSH1 0x40 MSTORE DUP1 PUSH1 0xF DUP2 MSTORE PUSH1 0x20 ADD PUSH32 0x4E4F545F494D504C454D454E5445440000000000000000000000000000000000 DUP2 MSTORE POP PUSH1 0x40 MLOAD PUSH32 0x8C379A000000000000000000000000000000000000000000000000000000000 DUP2 MSTORE PUSH1 0x4 ADD PUSH2 0x1264 SWAP2 SWAP1 PUSH2 0x1E3A JUMP JUMPDEST PUSH1 0x40 MLOAD DUP1 SWAP2 SUB SWAP1 REVERT JUMPDEST POP POP JUMP JUMPDEST PUSH1 0x0 DUP1 PUSH1 0x0 DUP1 PUSH1 0x0 PUSH2 0x1281 PUSH2 0x13A2 JUMP JUMPDEST SWAP5 POP SWAP5 POP SWAP5 POP SWAP5 POP SWAP5 POP SWAP1 SWAP2 SWAP3 SWAP4 SWAP5 JUMP JUMPDEST PUSH1 0x0 DUP1 SWAP1 SLOAD SWAP1 PUSH2 0x100 EXP SWAP1 DIV PUSH20 0xFFFFFFFFFFFFFFFFFFFFFFFFFFFFFFFFFFFFFFFF AND PUSH20 0xFFFFFFFFFFFFFFFFFFFFFFFFFFFFFFFFFFFFFFFF AND CALLER PUSH20 0xFFFFFFFFFFFFFFFFFFFFFFFFFFFFFFFFFFFFFFFF AND EQ PUSH2 0x1321 JUMPI PUSH1 0x40 MLOAD PUSH32 0x8C379A000000000000000000000000000000000000000000000000000000000 DUP2 MSTORE PUSH1 0x4 ADD PUSH2 0x1318 SWAP1 PUSH2 0x1EB3 JUMP JUMPDEST PUSH1 0x40 MLOAD DUP1 SWAP2 SUB SWAP1 REVERT JUMPDEST JUMP JUMPDEST PUSH2 0x132B PUSH2 0x1498 JUMP JUMPDEST PUSH1 0x0 DUP1 PUSH2 0x1336 PUSH2 0x13A2 JUMP JUMPDEST POP POP SWAP3 POP SWAP3 POP POP DUP1 DUP4 PUSH1 0x60 ADD DUP2 DUP2 MSTORE POP POP PUSH1 0x0 DUP4 PUSH1 0x20 ADD SWAP1 PUSH8 0xFFFFFFFFFFFFFFFF AND SWAP1 DUP2 PUSH8 0xFFFFFFFFFFFFFFFF AND DUP2 MSTORE POP POP PUSH1 0x9 DUP4 PUSH1 0x40 ADD SWAP1 PUSH1 0x3 SIGNEXTEND SWAP1 DUP2 PUSH1 0x3 SIGNEXTEND DUP2 MSTORE POP POP PUSH4 0x3B9ACA00 DUP3 DUP2 PUSH2 0x1388 JUMPI INVALID JUMPDEST SDIV DUP4 PUSH1 0x0 ADD SWAP1 PUSH1 0x7 SIGNEXTEND SWAP1 DUP2 PUSH1 0x7 SIGNEXTEND DUP2 MSTORE POP POP DUP3 SWAP3 POP POP POP SWAP1 JUMP JUMPDEST PUSH1 0x0 DUP1 PUSH1 0x0 DUP1 PUSH1 0x0 PUSH2 0x13B2 PUSH2 0x14D0 JUMP JUMPDEST PUSH1 0x2 PUSH1 0x0 SWAP1 SLOAD SWAP1 PUSH2 0x100 EXP SWAP1 DIV PUSH20 0xFFFFFFFFFFFFFFFFFFFFFFFFFFFFFFFFFFFFFFFF AND PUSH20 0xFFFFFFFFFFFFFFFFFFFFFFFFFFFFFFFFFFFFFFFF AND PUSH4 0x65555BCC PUSH1 0x3 PUSH1 0x4 PUSH1 0x40 MLOAD DUP4 PUSH4 0xFFFFFFFF AND PUSH1 0xE0 SHL DUP2 MSTORE PUSH1 0x4 ADD PUSH2 0x1411 SWAP3 SWAP2 SWAP1 PUSH2 0x1E5C JUMP JUMPDEST PUSH1 0x60 PUSH1 0x40 MLOAD DUP1 DUP4 SUB DUP2 DUP7 DUP1 EXTCODESIZE ISZERO DUP1 ISZERO PUSH2 0x1429 JUMPI PUSH1 0x0 DUP1 REVERT JUMPDEST POP GAS STATICCALL ISZERO DUP1 ISZERO PUSH2 0x143D JUMPI RETURNDATASIZE PUSH1 0x0 DUP1 RETURNDATACOPY RETURNDATASIZE PUSH1 0x0 REVERT JUMPDEST POP POP POP POP PUSH1 0x40 MLOAD RETURNDATASIZE PUSH1 0x1F NOT PUSH1 0x1F DUP3 ADD AND DUP3 ADD DUP1 PUSH1 0x40 MSTORE POP PUSH2 0x1461 SWAP2 SWAP1 DUP2 ADD SWAP1 PUSH2 0x18D9 JUMP JUMPDEST SWAP1 POP PUSH1 0x0 TIMESTAMP SWAP1 POP PUSH1 0x0 DUP3 PUSH1 0x20 ADD MLOAD EQ PUSH2 0x147C JUMPI DUP2 PUSH1 0x20 ADD MLOAD SWAP1 POP JUMPDEST DUP1 DUP3 PUSH1 0x0 ADD MLOAD DUP3 DUP4 DUP5 SWAP7 POP SWAP7 POP SWAP7 POP SWAP7 POP SWAP7 POP POP POP SWAP1 SWAP2 SWAP3 SWAP4 SWAP5 JUMP JUMPDEST PUSH1 0x40 MLOAD DUP1 PUSH1 0x80 ADD PUSH1 0x40 MSTORE DUP1 PUSH1 0x0 PUSH1 0x7 SIGNEXTEND DUP2 MSTORE PUSH1 0x20 ADD PUSH1 0x0 PUSH8 0xFFFFFFFFFFFFFFFF AND DUP2 MSTORE PUSH1 0x20 ADD PUSH1 0x0 PUSH1 0x3 SIGNEXTEND DUP2 MSTORE PUSH1 0x20 ADD PUSH1 0x0 DUP2 MSTORE POP SWAP1 JUMP JUMPDEST PUSH1 0x40 MLOAD DUP1 PUSH1 0x60 ADD PUSH1 0x40 MSTORE DUP1 PUSH1 0x0 DUP2 MSTORE PUSH1 0x20 ADD PUSH1 0x0 DUP2 MSTORE PUSH1 0x20 ADD PUSH1 0x0 DUP2 MSTORE POP SWAP1 JUMP JUMPDEST PUSH1 0x40 MLOAD DUP1 PUSH1 0x40 ADD PUSH1 0x40 MSTORE DUP1 PUSH1 0x0 DUP2 MSTORE PUSH1 0x20 ADD PUSH1 0x0 DUP2 MSTORE POP SWAP1 JUMP JUMPDEST PUSH1 0x0 DUP2 CALLDATALOAD SWAP1 POP PUSH2 0x151A DUP2 PUSH2 0x215D JUMP JUMPDEST SWAP3 SWAP2 POP POP JUMP JUMPDEST PUSH1 0x0 DUP1 DUP4 PUSH1 0x1F DUP5 ADD SLT PUSH2 0x1532 JUMPI PUSH1 0x0 DUP1 REVERT JUMPDEST DUP3 CALLDATALOAD SWAP1 POP PUSH8 0xFFFFFFFFFFFFFFFF DUP2 GT ISZERO PUSH2 0x154B JUMPI PUSH1 0x0 DUP1 REVERT JUMPDEST PUSH1 0x20 DUP4 ADD SWAP2 POP DUP4 PUSH1 0x20 DUP3 MUL DUP4 ADD GT ISZERO PUSH2 0x1563 JUMPI PUSH1 0x0 DUP1 REVERT JUMPDEST SWAP3 POP SWAP3 SWAP1 POP JUMP JUMPDEST PUSH1 0x0 DUP1 DUP4 PUSH1 0x1F DUP5 ADD SLT PUSH2 0x157C JUMPI PUSH1 0x0 DUP1 REVERT JUMPDEST DUP3 CALLDATALOAD SWAP1 POP PUSH8 0xFFFFFFFFFFFFFFFF DUP2 GT ISZERO PUSH2 0x1595 JUMPI PUSH1 0x0 DUP1 REVERT JUMPDEST PUSH1 0x20 DUP4 ADD SWAP2 POP DUP4 PUSH1 0x20 DUP3 MUL DUP4 ADD GT ISZERO PUSH2 0x15AD JUMPI PUSH1 0x0 DUP1 REVERT JUMPDEST SWAP3 POP SWAP3 SWAP1 POP JUMP JUMPDEST PUSH1 0x0 DUP1 DUP4 PUSH1 0x1F DUP5 ADD SLT PUSH2 0x15C6 JUMPI PUSH1 0x0 DUP1 REVERT JUMPDEST DUP3 CALLDATALOAD SWAP1 POP PUSH8 0xFFFFFFFFFFFFFFFF DUP2 GT ISZERO PUSH2 0x15DF JUMPI PUSH1 0x0 DUP1 REVERT JUMPDEST PUSH1 0x20 DUP4 ADD SWAP2 POP DUP4 PUSH1 0x20 DUP3 MUL DUP4 ADD GT ISZERO PUSH2 0x15F7 JUMPI PUSH1 0x0 DUP1 REVERT JUMPDEST SWAP3 POP SWAP3 SWAP1 POP JUMP JUMPDEST PUSH1 0x0 DUP2 CALLDATALOAD SWAP1 POP PUSH2 0x160D DUP2 PUSH2 0x2174 JUMP JUMPDEST SWAP3 SWAP2 POP POP JUMP JUMPDEST PUSH1 0x0 PUSH1 0x60 DUP3 DUP5 SUB SLT ISZERO PUSH2 0x1625 JUMPI PUSH1 0x0 DUP1 REVERT JUMPDEST PUSH2 0x162F PUSH1 0x60 PUSH2 0x1FB2 JUMP JUMPDEST SWAP1 POP PUSH1 0x0 PUSH2 0x163F DUP5 DUP3 DUP6 ADD PUSH2 0x1688 JUMP JUMPDEST PUSH1 0x0 DUP4 ADD MSTORE POP PUSH1 0x20 PUSH2 0x1653 DUP5 DUP3 DUP6 ADD PUSH2 0x1688 JUMP JUMPDEST PUSH1 0x20 DUP4 ADD MSTORE POP PUSH1 0x40 PUSH2 0x1667 DUP5 DUP3 DUP6 ADD PUSH2 0x1688 JUMP JUMPDEST PUSH1 0x40 DUP4 ADD MSTORE POP SWAP3 SWAP2 POP POP JUMP JUMPDEST PUSH1 0x0 DUP2 CALLDATALOAD SWAP1 POP PUSH2 0x1682 DUP2 PUSH2 0x218B JUMP JUMPDEST SWAP3 SWAP2 POP POP JUMP JUMPDEST PUSH1 0x0 DUP2 MLOAD SWAP1 POP PUSH2 0x1697 DUP2 PUSH2 0x218B JUMP JUMPDEST SWAP3 SWAP2 POP POP JUMP JUMPDEST PUSH1 0x0 DUP2 CALLDATALOAD SWAP1 POP PUSH2 0x16AC DUP2 PUSH2 0x21A2 JUMP JUMPDEST SWAP3 SWAP2 POP POP JUMP JUMPDEST PUSH1 0x0 DUP2 CALLDATALOAD SWAP1 POP PUSH2 0x16C1 DUP2 PUSH2 0x21B9 JUMP JUMPDEST SWAP3 SWAP2 POP POP JUMP JUMPDEST PUSH1 0x0 PUSH1 0x20 DUP3 DUP5 SUB SLT ISZERO PUSH2 0x16D9 JUMPI PUSH1 0x0 DUP1 REVERT JUMPDEST PUSH1 0x0 PUSH2 0x16E7 DUP5 DUP3 DUP6 ADD PUSH2 0x150B JUMP JUMPDEST SWAP2 POP POP SWAP3 SWAP2 POP POP JUMP JUMPDEST PUSH1 0x0 DUP1 PUSH1 0x20 DUP4 DUP6 SUB SLT ISZERO PUSH2 0x1703 JUMPI PUSH1 0x0 DUP1 REVERT JUMPDEST PUSH1 0x0 DUP4 ADD CALLDATALOAD PUSH8 0xFFFFFFFFFFFFFFFF DUP2 GT ISZERO PUSH2 0x171D JUMPI PUSH1 0x0 DUP1 REVERT JUMPDEST PUSH2 0x1729 DUP6 DUP3 DUP7 ADD PUSH2 0x156A JUMP JUMPDEST SWAP3 POP SWAP3 POP POP SWAP3 POP SWAP3 SWAP1 POP JUMP JUMPDEST PUSH1 0x0 DUP1 PUSH1 0x0 DUP1 PUSH1 0x0 DUP1 PUSH1 0x60 DUP8 DUP10 SUB SLT ISZERO PUSH2 0x174E JUMPI PUSH1 0x0 DUP1 REVERT JUMPDEST PUSH1 0x0 DUP8 ADD CALLDATALOAD PUSH8 0xFFFFFFFFFFFFFFFF DUP2 GT ISZERO PUSH2 0x1768 JUMPI PUSH1 0x0 DUP1 REVERT JUMPDEST PUSH2 0x1774 DUP10 DUP3 DUP11 ADD PUSH2 0x156A JUMP JUMPDEST SWAP7 POP SWAP7 POP POP PUSH1 0x20 DUP8 ADD CALLDATALOAD PUSH8 0xFFFFFFFFFFFFFFFF DUP2 GT ISZERO PUSH2 0x1793 JUMPI PUSH1 0x0 DUP1 REVERT JUMPDEST PUSH2 0x179F DUP10 DUP3 DUP11 ADD PUSH2 0x1520 JUMP JUMPDEST SWAP5 POP SWAP5 POP POP PUSH1 0x40 DUP8 ADD CALLDATALOAD PUSH8 0xFFFFFFFFFFFFFFFF DUP2 GT ISZERO PUSH2 0x17BE JUMPI PUSH1 0x0 DUP1 REVERT JUMPDEST PUSH2 0x17CA DUP10 DUP3 DUP11 ADD PUSH2 0x15B4 JUMP JUMPDEST SWAP3 POP SWAP3 POP POP SWAP3 SWAP6 POP SWAP3 SWAP6 POP SWAP3 SWAP6 JUMP JUMPDEST PUSH1 0x0 DUP1 PUSH1 0x0 DUP1 PUSH1 0x0 DUP1 PUSH1 0x80 DUP8 DUP10 SUB SLT ISZERO PUSH2 0x17F2 JUMPI PUSH1 0x0 DUP1 REVERT JUMPDEST PUSH1 0x0 DUP8 ADD CALLDATALOAD PUSH8 0xFFFFFFFFFFFFFFFF DUP2 GT ISZERO PUSH2 0x180C JUMPI PUSH1 0x0 DUP1 REVERT JUMPDEST PUSH2 0x1818 DUP10 DUP3 DUP11 ADD PUSH2 0x156A JUMP JUMPDEST SWAP7 POP SWAP7 POP POP PUSH1 0x20 DUP8 ADD CALLDATALOAD PUSH8 0xFFFFFFFFFFFFFFFF DUP2 GT ISZERO PUSH2 0x1837 JUMPI PUSH1 0x0 DUP1 REVERT JUMPDEST PUSH2 0x1843 DUP10 DUP3 DUP11 ADD PUSH2 0x1520 JUMP JUMPDEST SWAP5 POP SWAP5 POP POP PUSH1 0x40 PUSH2 0x1856 DUP10 DUP3 DUP11 ADD PUSH2 0x169D JUMP JUMPDEST SWAP3 POP POP PUSH1 0x60 PUSH2 0x1867 DUP10 DUP3 DUP11 ADD PUSH2 0x169D JUMP JUMPDEST SWAP2 POP POP SWAP3 SWAP6 POP SWAP3 SWAP6 POP SWAP3 SWAP6 JUMP JUMPDEST PUSH1 0x0 PUSH1 0x20 DUP3 DUP5 SUB SLT ISZERO PUSH2 0x1886 JUMPI PUSH1 0x0 DUP1 REVERT JUMPDEST PUSH1 0x0 PUSH2 0x1894 DUP5 DUP3 DUP6 ADD PUSH2 0x15FE JUMP JUMPDEST SWAP2 POP POP SWAP3 SWAP2 POP POP JUMP JUMPDEST PUSH1 0x0 DUP1 PUSH1 0x40 DUP4 DUP6 SUB SLT ISZERO PUSH2 0x18B0 JUMPI PUSH1 0x0 DUP1 REVERT JUMPDEST PUSH1 0x0 PUSH2 0x18BE DUP6 DUP3 DUP7 ADD PUSH2 0x15FE JUMP JUMPDEST SWAP3 POP POP PUSH1 0x20 PUSH2 0x18CF DUP6 DUP3 DUP7 ADD PUSH2 0x1673 JUMP JUMPDEST SWAP2 POP POP SWAP3 POP SWAP3 SWAP1 POP JUMP JUMPDEST PUSH1 0x0 PUSH1 0x60 DUP3 DUP5 SUB SLT ISZERO PUSH2 0x18EB JUMPI PUSH1 0x0 DUP1 REVERT JUMPDEST PUSH1 0x0 PUSH2 0x18F9 DUP5 DUP3 DUP6 ADD PUSH2 0x1613 JUMP JUMPDEST SWAP2 POP POP SWAP3 SWAP2 POP POP JUMP JUMPDEST PUSH1 0x0 PUSH1 0x20 DUP3 DUP5 SUB SLT ISZERO PUSH2 0x1914 JUMPI PUSH1 0x0 DUP1 REVERT JUMPDEST PUSH1 0x0 PUSH2 0x1922 DUP5 DUP3 DUP6 ADD PUSH2 0x1673 JUMP JUMPDEST SWAP2 POP POP SWAP3 SWAP2 POP POP JUMP JUMPDEST PUSH1 0x0 PUSH1 0x20 DUP3 DUP5 SUB SLT ISZERO PUSH2 0x193D JUMPI PUSH1 0x0 DUP1 REVERT JUMPDEST PUSH1 0x0 PUSH2 0x194B DUP5 DUP3 DUP6 ADD PUSH2 0x16B2 JUMP JUMPDEST SWAP2 POP POP SWAP3 SWAP2 POP POP JUMP JUMPDEST PUSH1 0x0 PUSH2 0x1960 DUP4 DUP4 PUSH2 0x1C22 JUMP JUMPDEST PUSH2 0x120 DUP4 ADD SWAP1 POP SWAP3 SWAP2 POP POP JUMP JUMPDEST PUSH2 0x1976 DUP2 PUSH2 0x2054 JUMP JUMPDEST DUP3 MSTORE POP POP JUMP JUMPDEST PUSH1 0x0 PUSH2 0x1987 DUP3 PUSH2 0x2004 JUMP JUMPDEST PUSH2 0x1991 DUP2 DUP6 PUSH2 0x2027 JUMP JUMPDEST SWAP4 POP PUSH2 0x199C DUP4 PUSH2 0x1FDF JUMP JUMPDEST DUP1 PUSH1 0x0 JUMPDEST DUP4 DUP2 LT ISZERO PUSH2 0x19CD JUMPI DUP2 MLOAD PUSH2 0x19B4 DUP9 DUP3 PUSH2 0x1954 JUMP JUMPDEST SWAP8 POP PUSH2 0x19BF DUP4 PUSH2 0x201A JUMP JUMPDEST SWAP3 POP POP PUSH1 0x1 DUP2 ADD SWAP1 POP PUSH2 0x19A0 JUMP JUMPDEST POP DUP6 SWAP4 POP POP POP POP SWAP3 SWAP2 POP POP JUMP JUMPDEST PUSH2 0x19E3 DUP2 PUSH2 0x2066 JUMP JUMPDEST DUP3 MSTORE POP POP JUMP JUMPDEST PUSH2 0x19F2 DUP2 PUSH2 0x20F5 JUMP JUMPDEST DUP3 MSTORE POP POP JUMP JUMPDEST PUSH2 0x1A01 DUP2 PUSH2 0x2070 JUMP JUMPDEST DUP3 MSTORE POP POP JUMP JUMPDEST PUSH2 0x1A10 DUP2 PUSH2 0x2070 JUMP JUMPDEST DUP3 MSTORE POP POP JUMP JUMPDEST PUSH2 0x1A1F DUP2 PUSH2 0x207A JUMP JUMPDEST DUP3 MSTORE POP POP JUMP JUMPDEST PUSH2 0x1A2E DUP2 PUSH2 0x2087 JUMP JUMPDEST DUP3 MSTORE POP POP JUMP JUMPDEST PUSH1 0x0 PUSH2 0x1A3F DUP3 PUSH2 0x200F JUMP JUMPDEST PUSH2 0x1A49 DUP2 DUP6 PUSH2 0x2043 JUMP JUMPDEST SWAP4 POP PUSH2 0x1A59 DUP2 DUP6 PUSH1 0x20 DUP7 ADD PUSH2 0x2119 JUMP JUMPDEST PUSH2 0x1A62 DUP2 PUSH2 0x214C JUMP JUMPDEST DUP5 ADD SWAP2 POP POP SWAP3 SWAP2 POP POP JUMP JUMPDEST PUSH1 0x0 DUP2 SLOAD PUSH1 0x1 DUP2 AND PUSH1 0x0 DUP2 EQ PUSH2 0x1A8A JUMPI PUSH1 0x1 DUP2 EQ PUSH2 0x1AB0 JUMPI PUSH2 0x1AF4 JUMP JUMPDEST PUSH1 0x7F PUSH1 0x2 DUP4 DIV AND PUSH2 0x1A9B DUP2 DUP8 PUSH2 0x2043 JUMP JUMPDEST SWAP6 POP PUSH1 0xFF NOT DUP4 AND DUP7 MSTORE PUSH1 0x20 DUP7 ADD SWAP4 POP POP PUSH2 0x1AF4 JUMP JUMPDEST PUSH1 0x2 DUP3 DIV PUSH2 0x1ABE DUP2 DUP8 PUSH2 0x2043 JUMP JUMPDEST SWAP6 POP PUSH2 0x1AC9 DUP6 PUSH2 0x1FEF JUMP JUMPDEST PUSH1 0x0 JUMPDEST DUP3 DUP2 LT ISZERO PUSH2 0x1AEB JUMPI DUP2 SLOAD DUP2 DUP10 ADD MSTORE PUSH1 0x1 DUP3 ADD SWAP2 POP PUSH1 0x20 DUP2 ADD SWAP1 POP PUSH2 0x1ACC JUMP JUMPDEST DUP1 DUP9 ADD SWAP6 POP POP POP POP JUMPDEST POP POP SWAP3 SWAP2 POP POP JUMP JUMPDEST PUSH1 0x0 PUSH2 0x1B09 PUSH1 0x35 DUP4 PUSH2 0x2043 JUMP JUMPDEST SWAP2 POP PUSH32 0x596F75206D757374206265206E6F6D696E61746564206265666F726520796F75 PUSH1 0x0 DUP4 ADD MSTORE PUSH32 0x2063616E20616363657074206F776E6572736869700000000000000000000000 PUSH1 0x20 DUP4 ADD MSTORE PUSH1 0x40 DUP3 ADD SWAP1 POP SWAP2 SWAP1 POP JUMP JUMPDEST PUSH1 0x0 PUSH2 0x1B6F PUSH1 0x2F DUP4 PUSH2 0x2043 JUMP JUMPDEST SWAP2 POP PUSH32 0x4F6E6C792074686520636F6E7472616374206F776E6572206D61792070657266 PUSH1 0x0 DUP4 ADD MSTORE PUSH32 0x6F726D207468697320616374696F6E0000000000000000000000000000000000 PUSH1 0x20 DUP4 ADD MSTORE PUSH1 0x40 DUP3 ADD SWAP1 POP SWAP2 SWAP1 POP JUMP JUMPDEST PUSH1 0x0 PUSH2 0x1BD5 PUSH1 0x11 DUP4 PUSH2 0x2043 JUMP JUMPDEST SWAP2 POP PUSH32 0x7769746864726177616C206661696C6564000000000000000000000000000000 PUSH1 0x0 DUP4 ADD MSTORE PUSH1 0x20 DUP3 ADD SWAP1 POP SWAP2 SWAP1 POP JUMP JUMPDEST PUSH1 0x0 PUSH2 0x1C15 PUSH1 0x0 DUP4 PUSH2 0x2038 JUMP JUMPDEST SWAP2 POP PUSH1 0x0 DUP3 ADD SWAP1 POP SWAP2 SWAP1 POP JUMP JUMPDEST PUSH2 0x120 DUP3 ADD PUSH1 0x0 DUP3 ADD MLOAD PUSH2 0x1C39 PUSH1 0x0 DUP6 ADD DUP3 PUSH2 0x19DA JUMP JUMPDEST POP PUSH1 0x20 DUP3 ADD MLOAD PUSH2 0x1C4C PUSH1 0x20 DUP6 ADD DUP3 PUSH2 0x1CBA JUMP JUMPDEST POP PUSH1 0x40 DUP3 ADD MLOAD PUSH2 0x1C5F PUSH1 0xA0 DUP6 ADD DUP3 PUSH2 0x1CBA JUMP JUMPDEST POP POP POP POP JUMP JUMPDEST PUSH1 0x80 DUP3 ADD PUSH1 0x0 DUP3 ADD MLOAD PUSH2 0x1C7B PUSH1 0x0 DUP6 ADD DUP3 PUSH2 0x1A25 JUMP JUMPDEST POP PUSH1 0x20 DUP3 ADD MLOAD PUSH2 0x1C8E PUSH1 0x20 DUP6 ADD DUP3 PUSH2 0x1D5C JUMP JUMPDEST POP PUSH1 0x40 DUP3 ADD MLOAD PUSH2 0x1CA1 PUSH1 0x40 DUP6 ADD DUP3 PUSH2 0x1A16 JUMP JUMPDEST POP PUSH1 0x60 DUP3 ADD MLOAD PUSH2 0x1CB4 PUSH1 0x60 DUP6 ADD DUP3 PUSH2 0x1D3E JUMP JUMPDEST POP POP POP POP JUMP JUMPDEST PUSH1 0x80 DUP3 ADD PUSH1 0x0 DUP3 ADD MLOAD PUSH2 0x1CD0 PUSH1 0x0 DUP6 ADD DUP3 PUSH2 0x1A25 JUMP JUMPDEST POP PUSH1 0x20 DUP3 ADD MLOAD PUSH2 0x1CE3 PUSH1 0x20 DUP6 ADD DUP3 PUSH2 0x1D5C JUMP JUMPDEST POP PUSH1 0x40 DUP3 ADD MLOAD PUSH2 0x1CF6 PUSH1 0x40 DUP6 ADD DUP3 PUSH2 0x1A16 JUMP JUMPDEST POP PUSH1 0x60 DUP3 ADD MLOAD PUSH2 0x1D09 PUSH1 0x60 DUP6 ADD DUP3 PUSH2 0x1D3E JUMP JUMPDEST POP POP POP POP JUMP JUMPDEST PUSH1 0x40 DUP3 ADD PUSH1 0x0 DUP3 ADD MLOAD PUSH2 0x1D25 PUSH1 0x0 DUP6 ADD DUP3 PUSH2 0x19F8 JUMP JUMPDEST POP PUSH1 0x20 DUP3 ADD MLOAD PUSH2 0x1D38 PUSH1 0x20 DUP6 ADD DUP3 PUSH2 0x1D3E JUMP JUMPDEST POP POP POP POP JUMP JUMPDEST PUSH2 0x1D47 DUP2 PUSH2 0x20B4 JUMP JUMPDEST DUP3 MSTORE POP POP JUMP JUMPDEST PUSH2 0x1D56 DUP2 PUSH2 0x20B4 JUMP JUMPDEST DUP3 MSTORE POP POP JUMP JUMPDEST PUSH2 0x1D65 DUP2 PUSH2 0x20BE JUMP JUMPDEST DUP3 MSTORE POP POP JUMP JUMPDEST PUSH2 0x1D74 DUP2 PUSH2 0x20DF JUMP JUMPDEST DUP3 MSTORE POP POP JUMP JUMPDEST PUSH2 0x1D83 DUP2 PUSH2 0x20D2 JUMP JUMPDEST DUP3 MSTORE POP POP JUMP JUMPDEST PUSH1 0x0 PUSH2 0x1D94 DUP3 PUSH2 0x1C08 JUMP JUMPDEST SWAP2 POP DUP2 SWAP1 POP SWAP2 SWAP1 POP JUMP JUMPDEST PUSH1 0x0 PUSH1 0x20 DUP3 ADD SWAP1 POP PUSH2 0x1DB3 PUSH1 0x0 DUP4 ADD DUP5 PUSH2 0x196D JUMP JUMPDEST SWAP3 SWAP2 POP POP JUMP JUMPDEST PUSH1 0x0 PUSH1 0x40 DUP3 ADD SWAP1 POP PUSH2 0x1DCE PUSH1 0x0 DUP4 ADD DUP6 PUSH2 0x196D JUMP JUMPDEST PUSH2 0x1DDB PUSH1 0x20 DUP4 ADD DUP5 PUSH2 0x196D JUMP JUMPDEST SWAP4 SWAP3 POP POP POP JUMP JUMPDEST PUSH1 0x0 PUSH1 0x20 DUP3 ADD SWAP1 POP DUP2 DUP2 SUB PUSH1 0x0 DUP4 ADD MSTORE PUSH2 0x1DFC DUP2 DUP5 PUSH2 0x197C JUMP JUMPDEST SWAP1 POP SWAP3 SWAP2 POP POP JUMP JUMPDEST PUSH1 0x0 PUSH1 0x20 DUP3 ADD SWAP1 POP PUSH2 0x1E19 PUSH1 0x0 DUP4 ADD DUP5 PUSH2 0x19E9 JUMP JUMPDEST SWAP3 SWAP2 POP POP JUMP JUMPDEST PUSH1 0x0 PUSH1 0x20 DUP3 ADD SWAP1 POP PUSH2 0x1E34 PUSH1 0x0 DUP4 ADD DUP5 PUSH2 0x1A07 JUMP JUMPDEST SWAP3 SWAP2 POP POP JUMP JUMPDEST PUSH1 0x0 PUSH1 0x20 DUP3 ADD SWAP1 POP DUP2 DUP2 SUB PUSH1 0x0 DUP4 ADD MSTORE PUSH2 0x1E54 DUP2 DUP5 PUSH2 0x1A34 JUMP JUMPDEST SWAP1 POP SWAP3 SWAP2 POP POP JUMP JUMPDEST PUSH1 0x0 PUSH1 0x40 DUP3 ADD SWAP1 POP DUP2 DUP2 SUB PUSH1 0x0 DUP4 ADD MSTORE PUSH2 0x1E76 DUP2 DUP6 PUSH2 0x1A6D JUMP JUMPDEST SWAP1 POP DUP2 DUP2 SUB PUSH1 0x20 DUP4 ADD MSTORE PUSH2 0x1E8A DUP2 DUP5 PUSH2 0x1A6D JUMP JUMPDEST SWAP1 POP SWAP4 SWAP3 POP POP POP JUMP JUMPDEST PUSH1 0x0 PUSH1 0x20 DUP3 ADD SWAP1 POP DUP2 DUP2 SUB PUSH1 0x0 DUP4 ADD MSTORE PUSH2 0x1EAC DUP2 PUSH2 0x1AFC JUMP JUMPDEST SWAP1 POP SWAP2 SWAP1 POP JUMP JUMPDEST PUSH1 0x0 PUSH1 0x20 DUP3 ADD SWAP1 POP DUP2 DUP2 SUB PUSH1 0x0 DUP4 ADD MSTORE PUSH2 0x1ECC DUP2 PUSH2 0x1B62 JUMP JUMPDEST SWAP1 POP SWAP2 SWAP1 POP JUMP JUMPDEST PUSH1 0x0 PUSH1 0x20 DUP3 ADD SWAP1 POP DUP2 DUP2 SUB PUSH1 0x0 DUP4 ADD MSTORE PUSH2 0x1EEC DUP2 PUSH2 0x1BC8 JUMP JUMPDEST SWAP1 POP SWAP2 SWAP1 POP JUMP JUMPDEST PUSH1 0x0 PUSH1 0x80 DUP3 ADD SWAP1 POP PUSH2 0x1F08 PUSH1 0x0 DUP4 ADD DUP5 PUSH2 0x1C65 JUMP JUMPDEST SWAP3 SWAP2 POP POP JUMP JUMPDEST PUSH1 0x0 PUSH1 0x40 DUP3 ADD SWAP1 POP PUSH2 0x1F23 PUSH1 0x0 DUP4 ADD DUP5 PUSH2 0x1D0F JUMP JUMPDEST SWAP3 SWAP2 POP POP JUMP JUMPDEST PUSH1 0x0 PUSH1 0x20 DUP3 ADD SWAP1 POP PUSH2 0x1F3E PUSH1 0x0 DUP4 ADD DUP5 PUSH2 0x1D4D JUMP JUMPDEST SWAP3 SWAP2 POP POP JUMP JUMPDEST PUSH1 0x0 PUSH1 0xA0 DUP3 ADD SWAP1 POP PUSH2 0x1F59 PUSH1 0x0 DUP4 ADD DUP9 PUSH2 0x1D6B JUMP JUMPDEST PUSH2 0x1F66 PUSH1 0x20 DUP4 ADD DUP8 PUSH2 0x1A07 JUMP JUMPDEST PUSH2 0x1F73 PUSH1 0x40 DUP4 ADD DUP7 PUSH2 0x1D4D JUMP JUMPDEST PUSH2 0x1F80 PUSH1 0x60 DUP4 ADD DUP6 PUSH2 0x1D4D JUMP JUMPDEST PUSH2 0x1F8D PUSH1 0x80 DUP4 ADD DUP5 PUSH2 0x1D6B JUMP JUMPDEST SWAP7 SWAP6 POP POP POP POP POP POP JUMP JUMPDEST PUSH1 0x0 PUSH1 0x20 DUP3 ADD SWAP1 POP PUSH2 0x1FAC PUSH1 0x0 DUP4 ADD DUP5 PUSH2 0x1D7A JUMP JUMPDEST SWAP3 SWAP2 POP POP JUMP JUMPDEST PUSH1 0x0 PUSH1 0x40 MLOAD SWAP1 POP DUP2 DUP2 ADD DUP2 DUP2 LT PUSH8 0xFFFFFFFFFFFFFFFF DUP3 GT OR ISZERO PUSH2 0x1FD5 JUMPI PUSH1 0x0 DUP1 REVERT JUMPDEST DUP1 PUSH1 0x40 MSTORE POP SWAP2 SWAP1 POP JUMP JUMPDEST PUSH1 0x0 DUP2 SWAP1 POP PUSH1 0x20 DUP3 ADD SWAP1 POP SWAP2 SWAP1 POP JUMP JUMPDEST PUSH1 0x0 DUP2 SWAP1 POP DUP2 PUSH1 0x0 MSTORE PUSH1 0x20 PUSH1 0x0 KECCAK256 SWAP1 POP SWAP2 SWAP1 POP JUMP JUMPDEST PUSH1 0x0 DUP2 MLOAD SWAP1 POP SWAP2 SWAP1 POP JUMP JUMPDEST PUSH1 0x0 DUP2 MLOAD SWAP1 POP SWAP2 SWAP1 POP JUMP JUMPDEST PUSH1 0x0 PUSH1 0x20 DUP3 ADD SWAP1 POP SWAP2 SWAP1 POP JUMP JUMPDEST PUSH1 0x0 DUP3 DUP3 MSTORE PUSH1 0x20 DUP3 ADD SWAP1 POP SWAP3 SWAP2 POP POP JUMP JUMPDEST PUSH1 0x0 DUP2 SWAP1 POP SWAP3 SWAP2 POP POP JUMP JUMPDEST PUSH1 0x0 DUP3 DUP3 MSTORE PUSH1 0x20 DUP3 ADD SWAP1 POP SWAP3 SWAP2 POP POP JUMP JUMPDEST PUSH1 0x0 PUSH2 0x205F DUP3 PUSH2 0x2094 JUMP JUMPDEST SWAP1 POP SWAP2 SWAP1 POP JUMP JUMPDEST PUSH1 0x0 DUP2 SWAP1 POP SWAP2 SWAP1 POP JUMP JUMPDEST PUSH1 0x0 DUP2 SWAP1 POP SWAP2 SWAP1 POP JUMP JUMPDEST PUSH1 0x0 DUP2 PUSH1 0x3 SIGNEXTEND SWAP1 POP SWAP2 SWAP1 POP JUMP JUMPDEST PUSH1 0x0 DUP2 PUSH1 0x7 SIGNEXTEND SWAP1 POP SWAP2 SWAP1 POP JUMP JUMPDEST PUSH1 0x0 PUSH20 0xFFFFFFFFFFFFFFFFFFFFFFFFFFFFFFFFFFFFFFFF DUP3 AND SWAP1 POP SWAP2 SWAP1 POP JUMP JUMPDEST PUSH1 0x0 DUP2 SWAP1 POP SWAP2 SWAP1 POP JUMP JUMPDEST PUSH1 0x0 PUSH8 0xFFFFFFFFFFFFFFFF DUP3 AND SWAP1 POP SWAP2 SWAP1 POP JUMP JUMPDEST PUSH1 0x0 PUSH1 0xFF DUP3 AND SWAP1 POP SWAP2 SWAP1 POP JUMP JUMPDEST PUSH1 0x0 PUSH10 0xFFFFFFFFFFFFFFFFFFFF DUP3 AND SWAP1 POP SWAP2 SWAP1 POP JUMP JUMPDEST PUSH1 0x0 PUSH2 0x2100 DUP3 PUSH2 0x2107 JUMP JUMPDEST SWAP1 POP SWAP2 SWAP1 POP JUMP JUMPDEST PUSH1 0x0 PUSH2 0x2112 DUP3 PUSH2 0x2094 JUMP JUMPDEST SWAP1 POP SWAP2 SWAP1 POP JUMP JUMPDEST PUSH1 0x0 JUMPDEST DUP4 DUP2 LT ISZERO PUSH2 0x2137 JUMPI DUP1 DUP3 ADD MLOAD DUP2 DUP5 ADD MSTORE PUSH1 0x20 DUP2 ADD SWAP1 POP PUSH2 0x211C JUMP JUMPDEST DUP4 DUP2 GT ISZERO PUSH2 0x2146 JUMPI PUSH1 0x0 DUP5 DUP5 ADD MSTORE JUMPDEST POP POP POP POP JUMP JUMPDEST PUSH1 0x0 PUSH1 0x1F NOT PUSH1 0x1F DUP4 ADD AND SWAP1 POP SWAP2 SWAP1 POP JUMP JUMPDEST PUSH2 0x2166 DUP2 PUSH2 0x2054 JUMP JUMPDEST DUP2 EQ PUSH2 0x2171 JUMPI PUSH1 0x0 DUP1 REVERT JUMPDEST POP JUMP JUMPDEST PUSH2 0x217D DUP2 PUSH2 0x2066 JUMP JUMPDEST DUP2 EQ PUSH2 0x2188 JUMPI PUSH1 0x0 DUP1 REVERT JUMPDEST POP JUMP JUMPDEST PUSH2 0x2194 DUP2 PUSH2 0x20B4 JUMP JUMPDEST DUP2 EQ PUSH2 0x219F JUMPI PUSH1 0x0 DUP1 REVERT JUMPDEST POP JUMP JUMPDEST PUSH2 0x21AB DUP2 PUSH2 0x20BE JUMP JUMPDEST DUP2 EQ PUSH2 0x21B6 JUMPI PUSH1 0x0 DUP1 REVERT JUMPDEST POP JUMP JUMPDEST PUSH2 0x21C2 DUP2 PUSH2 0x20DF JUMP JUMPDEST DUP2 EQ PUSH2 0x21CD JUMPI PUSH1 0x0 DUP1 REVERT JUMPDEST POP JUMP INVALID LOG3 PUSH6 0x627A7A723158 KECCAK256 RETURNDATASIZE LOG2 SWAP12 0xB1 PUSH19 0x36ACE3B8ED2BB5151260B8AA3D53D654C3FD44 ADDMOD CALLDATACOPY 0xEA PUSH10 0xD58AA77C6C6578706572 PUSH10 0x6D656E74616CF564736F PUSH13 0x63430005110040000000000000 "
				},
				"gasEstimates": {
					"creation": {
						"codeDepositCost": "1744600",
						"executionCost": "infinite",
						"totalCost": "infinite"
					},
					"external": {
						"acceptOwnership()": "infinite",
						"bandOracle()": "1303",
						"base()": "infinite",
						"decimals()": "412",
						"getAnswer(uint256)": "infinite",
						"getEmaPrice(bytes32)": "infinite",
						"getEmaPriceNoOlderThan(bytes32,uint256)": "infinite",
						"getEmaPriceUnsafe(bytes32)": "infinite",
						"getPrice(bytes32)": "infinite",
						"getPriceNoOlderThan(bytes32,uint256)": "infinite",
						"getPriceUnsafe(bytes32)": "infinite",
						"getRoundData(uint80)": "infinite",
						"getTimestamp(uint256)": "infinite",
						"getUpdateFee(bytes[])": "1559",
						"getValidTimePeriod()": "infinite",
						"latestRound()": "infinite",
						"latestRoundData()": "infinite",
						"nominateNewOwner(address)": "infinite",
						"nominatedOwner()": "1326",
						"owner()": "1303",
						"parsePriceFeedUpdates(bytes[],bytes32[],uint64,uint64)": "infinite",
						"pullDataAndCache()": "infinite",
						"quote()": "infinite",
						"setUpdateFee(uint256)": "21382",
						"updateFee()": "1174",
						"updatePriceFeeds(bytes[])": "538",
						"updatePriceFeedsIfNecessary(bytes[],bytes32[],uint64[])": "996",
						"withdraw()": "infinite"
					},
					"internal": {
						"_getPrice()": "infinite",
						"_latestRoundData()": "infinite"
					}
				},
				"methodIdentifiers": {
					"acceptOwnership()": "79ba5097",
					"bandOracle()": "956dcd1f",
					"base()": "5001f3b5",
					"decimals()": "313ce567",
					"getAnswer(uint256)": "b5ab58dc",
					"getEmaPrice(bytes32)": "b5dcc911",
					"getEmaPriceNoOlderThan(bytes32,uint256)": "711a2e28",
					"getEmaPriceUnsafe(bytes32)": "9474f45b",
					"getPrice(bytes32)": "31d98b3f",
					"getPriceNoOlderThan(bytes32,uint256)": "a4ae35e0",
					"getPriceUnsafe(bytes32)": "96834ad3",
					"getRoundData(uint80)": "9a6fc8f5",
					"getTimestamp(uint256)": "b633620c",
					"getUpdateFee(bytes[])": "d47eed45",
					"getValidTimePeriod()": "e18910a3",
					"latestRound()": "668a0f02",
					"latestRoundData()": "feaf968c",
					"nominateNewOwner(address)": "1627540c",
					"nominatedOwner()": "53a47bb7",
					"owner()": "8da5cb5b",
					"parsePriceFeedUpdates(bytes[],bytes32[],uint64,uint64)": "4716e9c5",
					"pullDataAndCache()": "d606a8b7",
					"quote()": "999b93af",
					"setUpdateFee(uint256)": "6a2e770f",
					"updateFee()": "758cdcf0",
					"updatePriceFeeds(bytes[])": "ef9e5e28",
					"updatePriceFeedsIfNecessary(bytes[],bytes32[],uint64[])": "b9256d28",
					"withdraw()": "3ccfd60b"
				}
			},
			"storageLayout": {
				"storage": [
					{
						"astId": 559,
						"contract": "contracts/BandOracleReader.sol:BandOracleReader",
						"label": "owner",
						"offset": 0,
						"slot": "0",
						"type": "t_address"
					},
					{
						"astId": 561,
						"contract": "contracts/BandOracleReader.sol:BandOracleReader",
						"label": "nominatedOwner",
						"offset": 0,
						"slot": "1",
						"type": "t_address"
					},
					{
						"astId": 55,
						"contract": "contracts/BandOracleReader.sol:BandOracleReader",
						"label": "bandOracle",
						"offset": 0,
						"slot": "2",
						"type": "t_contract(IStdReference)31"
					},
					{
						"astId": 57,
						"contract": "contracts/BandOracleReader.sol:BandOracleReader",
						"label": "base",
						"offset": 0,
						"slot": "3",
						"type": "t_string_storage"
					},
					{
						"astId": 59,
						"contract": "contracts/BandOracleReader.sol:BandOracleReader",
						"label": "quote",
						"offset": 0,
						"slot": "4",
						"type": "t_string_storage"
					},
					{
						"astId": 63,
						"contract": "contracts/BandOracleReader.sol:BandOracleReader",
						"label": "roundData",
						"offset": 0,
						"slot": "5",
						"type": "t_mapping(t_uint256,t_int256)"
					},
					{
						"astId": 65,
						"contract": "contracts/BandOracleReader.sol:BandOracleReader",
						"label": "updateFee",
						"offset": 0,
						"slot": "6",
						"type": "t_uint256"
					}
				],
				"types": {
					"t_address": {
						"encoding": "inplace",
						"label": "address",
						"numberOfBytes": "20"
					},
					"t_contract(IStdReference)31": {
						"encoding": "inplace",
						"label": "contract IStdReference",
						"numberOfBytes": "20"
					},
					"t_int256": {
						"encoding": "inplace",
						"label": "int256",
						"numberOfBytes": "32"
					},
					"t_mapping(t_uint256,t_int256)": {
						"encoding": "mapping",
						"key": "t_uint256",
						"label": "mapping(uint256 => int256)",
						"numberOfBytes": "32",
						"value": "t_int256"
					},
					"t_string_storage": {
						"encoding": "bytes",
						"label": "string",
						"numberOfBytes": "32"
					},
					"t_uint256": {
						"encoding": "inplace",
						"label": "uint256",
						"numberOfBytes": "32"
					}
				}
			},
			"userdoc": {
				"methods": {}
			}
		}
	}
}